{
  "contractName": "Avanzamento",
  "abi": [
    {
      "constant": false,
      "inputs": [],
      "name": "getSal",
      "outputs": [
        {
          "name": "",
          "type": "uint256"
        }
      ],
      "payable": false,
      "stateMutability": "nonpayable",
      "type": "function",
      "signature": "0x2daa87d7"
    },
    {
      "constant": false,
      "inputs": [],
      "name": "getSalData",
      "outputs": [
        {
          "name": "",
          "type": "uint256[]"
        },
        {
          "name": "",
          "type": "uint256[]"
        }
      ],
      "payable": false,
      "stateMutability": "nonpayable",
      "type": "function",
      "signature": "0x3f7e583d"
    },
    {
      "constant": false,
      "inputs": [
        {
          "name": "_data",
          "type": "uint256"
        }
      ],
      "name": "getSalData",
      "outputs": [
        {
          "name": "",
          "type": "uint256"
        },
        {
          "name": "",
          "type": "uint256"
        }
      ],
      "payable": false,
      "stateMutability": "nonpayable",
      "type": "function",
      "signature": "0x95433212"
    },
    {
      "constant": false,
      "inputs": [],
      "name": "enableSal",
      "outputs": [],
      "payable": false,
      "stateMutability": "nonpayable",
      "type": "function",
      "signature": "0x07134978"
    },
    {
      "constant": false,
      "inputs": [
        {
          "name": "_codice",
          "type": "string"
        },
        {
          "name": "_nome",
          "type": "string"
        },
        {
          "name": "_perc_tot",
          "type": "uint256"
        },
        {
          "name": "_perc_i",
          "type": "uint256"
        },
        {
          "name": "_perc_ragg",
          "type": "uint256"
        },
        {
          "name": "_costo_i",
          "type": "uint256"
        },
        {
          "name": "_costo_ragg",
          "type": "uint256"
        }
      ],
      "name": "insertSal",
      "outputs": [],
      "payable": false,
      "stateMutability": "nonpayable",
      "type": "function",
      "signature": "0x67bed40d"
    },
    {
      "constant": false,
      "inputs": [
        {
          "name": "_sal",
          "type": "uint256"
        }
      ],
      "name": "getSal1",
      "outputs": [
        {
          "name": "",
          "type": "uint256[]"
        },
        {
          "name": "",
          "type": "uint256[]"
        },
        {
          "name": "",
          "type": "uint256[]"
        },
        {
          "name": "",
          "type": "uint256[]"
        }
      ],
      "payable": false,
      "stateMutability": "nonpayable",
      "type": "function",
      "signature": "0x402dacde"
    },
    {
      "constant": false,
      "inputs": [
        {
          "name": "_sal",
          "type": "uint256"
        }
      ],
      "name": "getSal2",
      "outputs": [
        {
          "name": "",
          "type": "string[]"
        },
        {
          "name": "",
          "type": "uint256[]"
        },
        {
          "name": "",
          "type": "string[]"
        },
        {
          "name": "",
          "type": "uint256[]"
        }
      ],
      "payable": false,
      "stateMutability": "nonpayable",
      "type": "function",
      "signature": "0x972326a9"
    },
    {
      "constant": false,
      "inputs": [],
      "name": "getGrafico",
      "outputs": [
        {
          "name": "",
          "type": "uint256[]"
        },
        {
          "name": "",
          "type": "uint256[]"
        },
        {
          "name": "",
          "type": "uint256[]"
        }
      ],
      "payable": false,
      "stateMutability": "nonpayable",
      "type": "function",
      "signature": "0x348edc4b"
    },
    {
      "constant": false,
      "inputs": [
        {
          "name": "_indirizzo",
          "type": "address"
        }
      ],
      "name": "setIndirizzoMisure",
      "outputs": [],
      "payable": false,
      "stateMutability": "nonpayable",
      "type": "function",
      "signature": "0x14481ad6"
    },
    {
      "constant": false,
      "inputs": [
        {
          "name": "_indirizzo",
          "type": "address"
        }
      ],
      "name": "setIndirizzoGiornale",
      "outputs": [],
      "payable": false,
      "stateMutability": "nonpayable",
      "type": "function",
      "signature": "0x8acc3489"
    },
    {
      "constant": false,
      "inputs": [
        {
          "name": "_indirizzo",
          "type": "address"
        }
      ],
      "name": "setIndirizzoLibretto",
      "outputs": [],
      "payable": false,
      "stateMutability": "nonpayable",
      "type": "function",
      "signature": "0xcb92b744"
    },
    {
      "constant": false,
      "inputs": [
        {
          "name": "_indirizzo",
          "type": "address"
        }
      ],
      "name": "setIndirizzoFirme",
      "outputs": [],
      "payable": false,
      "stateMutability": "nonpayable",
      "type": "function",
      "signature": "0xd111bfb4"
    },
    {
      "constant": false,
      "inputs": [
        {
          "name": "_indirizzo",
          "type": "address"
        }
      ],
      "name": "setIndirizzoRiserve",
      "outputs": [],
      "payable": false,
      "stateMutability": "nonpayable",
      "type": "function",
      "signature": "0x6fff351c"
    },
    {
      "constant": false,
      "inputs": [
        {
          "name": "_indirizzo",
          "type": "address"
        }
      ],
      "name": "setIndirizzoRegistro",
      "outputs": [],
      "payable": false,
      "stateMutability": "nonpayable",
      "type": "function",
      "signature": "0xedd66cb8"
    },
    {
      "constant": false,
      "inputs": [],
      "name": "killAvanzamento",
      "outputs": [],
      "payable": false,
      "stateMutability": "nonpayable",
      "type": "function",
      "signature": "0x2ddf646d"
    }
  ],
  "bytecode": "0x6080604052600180556001600255600160035534801561001e57600080fd5b506135288061002e6000396000f3fe6080604052600436106100db576000357c0100000000000000000000000000000000000000000000000000000000900463ffffffff16806307134978146100e057806314481ad6146100f75780632daa87d7146101205780632ddf646d1461014b578063348edc4b146101625780633f7e583d1461018f578063402dacde146101bb57806367bed40d146101fb5780636fff351c146102245780638acc34891461024d5780639543321214610276578063972326a9146102b4578063cb92b744146102f4578063d111bfb41461031d578063edd66cb814610346575b600080fd5b3480156100ec57600080fd5b506100f561036f565b005b34801561010357600080fd5b5061011e60048036036101199190810190612b8b565b6109ff565b005b34801561012c57600080fd5b50610135610b18565b60405161014291906132a5565b60405180910390f35b34801561015757600080fd5b50610160610b22565b005b34801561016e57600080fd5b50610177610eef565b60405161018693929190613156565b60405180910390f35b34801561019b57600080fd5b506101a4611056565b6040516101b292919061311f565b60405180910390f35b3480156101c757600080fd5b506101e260048036036101dd9190810190612d83565b611150565b6040516101f294939291906131a2565b60405180910390f35b34801561020757600080fd5b50610222600480360361021d9190810190612cb5565b6115c2565b005b34801561023057600080fd5b5061024b60048036036102469190810190612b8b565b611749565b005b34801561025957600080fd5b50610274600480360361026f9190810190612b8b565b611862565b005b34801561028257600080fd5b5061029d60048036036102989190810190612d83565b61197b565b6040516102ab9291906132c0565b60405180910390f35b3480156102c057600080fd5b506102db60048036036102d69190810190612d83565b611a12565b6040516102eb94939291906130be565b60405180910390f35b34801561030057600080fd5b5061031b60048036036103169190810190612b8b565b6120f4565b005b34801561032957600080fd5b50610344600480360361033f9190810190612b8b565b61220d565b005b34801561035257600080fd5b5061036d60048036036103689190810190612b8b565b612326565b005b600660009054906101000a900473ffffffffffffffffffffffffffffffffffffffff1673ffffffffffffffffffffffffffffffffffffffff1662deb5d6336040518263ffffffff167c01000000000000000000000000000000000000000000000000000000000281526004016103e591906130a3565b602060405180830381600087803b1580156103ff57600080fd5b505af1158015610413573d6000803e3d6000fd5b505050506040513d601f19601f820116820180604052506104379190810190612c4b565b1515610478576040517f08c379a000000000000000000000000000000000000000000000000000000000815260040161046f90613285565b60405180910390fd5b600660009054906101000a900473ffffffffffffffffffffffffffffffffffffffff1673ffffffffffffffffffffffffffffffffffffffff166388865dd26040518163ffffffff167c0100000000000000000000000000000000000000000000000000000000028152600401602060405180830381600087803b1580156104fe57600080fd5b505af1158015610512573d6000803e3d6000fd5b505050506040513d601f19601f820116820180604052506105369190810190612c4b565b1515610577576040517f08c379a000000000000000000000000000000000000000000000000000000000815260040161056e90613265565b60405180910390fd5b606080606080606061058761243f565b94509450945094509450606085516040519080825280602002602001820160405280156105c857816020015b60608152602001906001900390816105b35790505b509050606086516040519080825280602002602001820160405280156105fd5781602001602082028038833980820191505090505b509050600080905060008090505b885181101561082557600660009054906101000a900473ffffffffffffffffffffffffffffffffffffffff1673ffffffffffffffffffffffffffffffffffffffff1663e37f1bd88a8381518110151561066057fe5b906020019060200201516040518263ffffffff167c01000000000000000000000000000000000000000000000000000000000281526004016106a29190613203565b600060405180830381600087803b1580156106bc57600080fd5b505af11580156106d0573d6000803e3d6000fd5b505050506040513d6000823e3d601f19601f820116820180604052506106f99190810190612c74565b848381518110151561070757fe5b90602001906020020181905250600660009054906101000a900473ffffffffffffffffffffffffffffffffffffffff1673ffffffffffffffffffffffffffffffffffffffff1663b8017f188a8381518110151561076057fe5b906020019060200201516040518263ffffffff167c01000000000000000000000000000000000000000000000000000000000281526004016107a29190613203565b602060405180830381600087803b1580156107bc57600080fd5b505af11580156107d0573d6000803e3d6000fd5b505050506040513d601f19601f820116820180604052506107f49190810190612dac565b838281518110151561080257fe5b90602001906020020181815250508180600101925050808060010191505061060b565b5060008090505b88518110156108f2576108e5898281518110151561084657fe5b90602001906020020151858381518110151561085e57fe5b906020019060200201518a8481518110151561087657fe5b906020019060200201518a8581518110151561088e57fe5b906020019060200201518a868151811015156108a657fe5b9060200190602002015188878151811015156108be57fe5b906020019060200201518b888151811015156108d657fe5b906020019060200201516115c2565b808060010191505061082c565b5042600560006001600254038152602001908152602001600020819055506004600354908060018154018082558091505090600182039060005260206000200160009091929091909150555060026000815480929190600101919050555060018081905550600660009054906101000a900473ffffffffffffffffffffffffffffffffffffffff1673ffffffffffffffffffffffffffffffffffffffff1663893371c06040518163ffffffff167c0100000000000000000000000000000000000000000000000000000000028152600401600060405180830381600087803b1580156109dd57600080fd5b505af11580156109f1573d6000803e3d6000fd5b505050505050505050505050565b600073ffffffffffffffffffffffffffffffffffffffff168173ffffffffffffffffffffffffffffffffffffffff1614151515610a71576040517f08c379a0000000000000000000000000000000000000000000000000000000008152600401610a6890613245565b60405180910390fd5b80600760006101000a81548173ffffffffffffffffffffffffffffffffffffffff021916908373ffffffffffffffffffffffffffffffffffffffff160217905550600760009054906101000a900473ffffffffffffffffffffffffffffffffffffffff16600660006101000a81548173ffffffffffffffffffffffffffffffffffffffff021916908373ffffffffffffffffffffffffffffffffffffffff16021790555050565b6000600254905090565b600860009054906101000a900473ffffffffffffffffffffffffffffffffffffffff1673ffffffffffffffffffffffffffffffffffffffff1663f4ab9bbc6040518163ffffffff167c0100000000000000000000000000000000000000000000000000000000028152600401600060405180830381600087803b158015610ba857600080fd5b505af1158015610bbc573d6000803e3d6000fd5b50505050600a60009054906101000a900473ffffffffffffffffffffffffffffffffffffffff1673ffffffffffffffffffffffffffffffffffffffff1663c1343a366040518163ffffffff167c0100000000000000000000000000000000000000000000000000000000028152600401600060405180830381600087803b158015610c4657600080fd5b505af1158015610c5a573d6000803e3d6000fd5b50505050600e60009054906101000a900473ffffffffffffffffffffffffffffffffffffffff1673ffffffffffffffffffffffffffffffffffffffff16631d30c0ed6040518163ffffffff167c0100000000000000000000000000000000000000000000000000000000028152600401600060405180830381600087803b158015610ce457600080fd5b505af1158015610cf8573d6000803e3d6000fd5b50505050600c60009054906101000a900473ffffffffffffffffffffffffffffffffffffffff1673ffffffffffffffffffffffffffffffffffffffff16634e9855e96040518163ffffffff167c0100000000000000000000000000000000000000000000000000000000028152600401600060405180830381600087803b158015610d8257600080fd5b505af1158015610d96573d6000803e3d6000fd5b50505050601060009054906101000a900473ffffffffffffffffffffffffffffffffffffffff1673ffffffffffffffffffffffffffffffffffffffff1663fb8f72c46040518163ffffffff167c0100000000000000000000000000000000000000000000000000000000028152600401600060405180830381600087803b158015610e2057600080fd5b505af1158015610e34573d6000803e3d6000fd5b50505050600660009054906101000a900473ffffffffffffffffffffffffffffffffffffffff1673ffffffffffffffffffffffffffffffffffffffff16639a17f5346040518163ffffffff167c0100000000000000000000000000000000000000000000000000000000028152600401600060405180830381600087803b158015610ebe57600080fd5b505af1158015610ed2573d6000803e3d6000fd5b505050503373ffffffffffffffffffffffffffffffffffffffff16ff5b606080606080600160025403604051908082528060200260200182016040528015610f295781602001602082028038833980820191505090505b5090506060600160025403604051908082528060200260200182016040528015610f625781602001602082028038833980820191505090505b5090506060600160025403604051908082528060200260200182016040528015610f9b5781602001602082028038833980820191505090505b509050600080905060008090505b6001600254038110156110435760056000828152602001908152602001600020548583815181101515610fd857fe5b9060200190602002018181525050600181018483815181101515610ff857fe5b9060200190602002018181525050611012600182016127b0565b838381518110151561102057fe5b906020019060200201818152505081806001019250508080600101915050610fa9565b5083838396509650965050505050909192565b606080606060025460405190808252806020026020018201604052801561108c5781602001602082028038833980820191505090505b50905060606002546040519080825280602002602001820160405280156110c25781602001602082028038833980820191505090505b509050600080905060008090505b600160025403811015611142576001810184838151811015156110ef57fe5b90602001906020020181815250506005600082815260200190815260200160002054838381518110151561111f57fe5b9060200190602002018181525050818060010192505080806001019150506110d0565b508282945094505050509091565b606080606080600185141561136a576000600160046001880381548110151561117557fe5b90600052602060002001540390506060816040519080825280602002602001820160405280156111b45781602001602082028038833980820191505090505b5090506060826040519080825280602002602001820160405280156111e85781602001602082028038833980820191505090505b50905060608360405190808252806020026020018201604052801561121c5781602001602082028038833980820191505090505b5090506060846040519080825280602002602001820160405280156112505781602001602082028038833980820191505090505b509050600080905060008090505b868160ff161015611352576000808260ff16815260200190815260200160002060030154868381518110151561129057fe5b90602001906020020181815250506000808260ff1681526020019081526020016000206004015485838151811015156112c557fe5b90602001906020020181815250506000808260ff1681526020019081526020016000206005015484838151811015156112fa57fe5b90602001906020020181815250506000808260ff16815260200190815260200160002060070154838381518110151561132f57fe5b90602001906020020181815250508180600101925050808060010191505061125e565b508484848499509950995099505050505050506115bb565b600060046002870381548110151561137e57fe5b906000526020600020015460046001880381548110151561139b57fe5b90600052602060002001540390506060816040519080825280602002602001820160405280156113da5781602001602082028038833980820191505090505b50905060608260405190808252806020026020018201604052801561140e5781602001602082028038833980820191505090505b5090506060836040519080825280602002602001820160405280156114425781602001602082028038833980820191505090505b5090506060846040519080825280602002602001820160405280156114765781602001602082028038833980820191505090505b509050600080905060006001600460028e0381548110151561149457fe5b90600052602060002001540390505b6001600460018e038154811015156114b757fe5b9060005260206000200154038110156115a7576000808281526020019081526020016000206003015486838151811015156114ee57fe5b906020019060200201818152505060008082815260200190815260200160002060040154858381518110151561152057fe5b906020019060200201818152505060008082815260200190815260200160002060050154848381518110151561155257fe5b906020019060200201818152505060008082815260200190815260200160002060070154838381518110151561158457fe5b9060200190602002018181525050818060010192505080806001019150506114a3565b508484848499509950995099505050505050505b9193509193565b42600080600160035403815260200190815260200160002060000181905550866000806001600354038152602001908152602001600020600101908051906020019061160f929190612899565b50856000806001600354038152602001908152602001600020600201908051906020019061163e929190612899565b50846000806001600354038152602001908152602001600020600301819055508360008060016003540381526020019081526020016000206004018190555082600080600160035403815260200190815260200160002060050181905550816000806001600354038152602001908152602001600020600601819055508060008060016003540381526020019081526020016000206007018190555060025460008060016003540381526020019081526020016000206009018190555060015460008060016003540381526020019081526020016000206008018190555060016000815480929190600101919050555060036000815480929190600101919050555050505050505050565b600073ffffffffffffffffffffffffffffffffffffffff168173ffffffffffffffffffffffffffffffffffffffff16141515156117bb576040517f08c379a00000000000000000000000000000000000000000000000000000000081526004016117b290613245565b60405180910390fd5b80600f60006101000a81548173ffffffffffffffffffffffffffffffffffffffff021916908373ffffffffffffffffffffffffffffffffffffffff160217905550600f60009054906101000a900473ffffffffffffffffffffffffffffffffffffffff16600e60006101000a81548173ffffffffffffffffffffffffffffffffffffffff021916908373ffffffffffffffffffffffffffffffffffffffff16021790555050565b600073ffffffffffffffffffffffffffffffffffffffff168173ffffffffffffffffffffffffffffffffffffffff16141515156118d4576040517f08c379a00000000000000000000000000000000000000000000000000000000081526004016118cb90613245565b60405180910390fd5b80600960006101000a81548173ffffffffffffffffffffffffffffffffffffffff021916908373ffffffffffffffffffffffffffffffffffffffff160217905550600960009054906101000a900473ffffffffffffffffffffffffffffffffffffffff16600860006101000a81548173ffffffffffffffffffffffffffffffffffffffff021916908373ffffffffffffffffffffffffffffffffffffffff16021790555050565b600080600083141515156119c4576040517f08c379a00000000000000000000000000000000000000000000000000000000081526004016119bb90613225565b60405180910390fd5b60008090505b600160025403811015611a0b5783600560008381526020019081526020016000205414156119fe5780849250925050611a0d565b80806001019150506119ca565b505b915091565b6060806060806001851415611d645760006001600460018803815481101515611a3757fe5b9060005260206000200154039050606081604051908082528060200260200182016040528015611a765781602001602082028038833980820191505090505b509050606082604051908082528060200260200182016040528015611aaf57816020015b6060815260200190600190039081611a9a5790505b509050606083604051908082528060200260200182016040528015611ae857816020015b6060815260200190600190039081611ad35790505b509050606084604051908082528060200260200182016040528015611b1c5781602001602082028038833980820191505090505b509050600080905060008090505b868160ff161015611d4c576000808260ff1681526020019081526020016000206001018054600181600116156101000203166002900480601f016020809104026020016040519081016040528092919081815260200182805460018160011615610100020316600290048015611be15780601f10611bb657610100808354040283529160200191611be1565b820191906000526020600020905b815481529060010190602001808311611bc457829003601f168201915b50505050508583815181101515611bf457fe5b906020019060200201819052506000808260ff168152602001908152602001600020600001548683815181101515611c2857fe5b90602001906020020181815250506000808260ff1681526020019081526020016000206002018054600181600116156101000203166002900480601f016020809104026020016040519081016040528092919081815260200182805460018160011615610100020316600290048015611ce25780601f10611cb757610100808354040283529160200191611ce2565b820191906000526020600020905b815481529060010190602001808311611cc557829003601f168201915b50505050508483815181101515611cf557fe5b906020019060200201819052506000808260ff168152602001908152602001600020600601548383815181101515611d2957fe5b906020019060200201818152505081806001019250508080600101915050611b2a565b508385848499509950995099505050505050506120ed565b6000600460028703815481101515611d7857fe5b9060005260206000200154600460018803815481101515611d9557fe5b9060005260206000200154039050606081604051908082528060200260200182016040528015611dd45781602001602082028038833980820191505090505b509050606082604051908082528060200260200182016040528015611e0d57816020015b6060815260200190600190039081611df85790505b509050606083604051908082528060200260200182016040528015611e4657816020015b6060815260200190600190039081611e315790505b509050606084604051908082528060200260200182016040528015611e7a5781602001602082028038833980820191505090505b509050600080905060006001600460028e03815481101515611e9857fe5b90600052602060002001540390505b6001600460018e03815481101515611ebb57fe5b9060005260206000200154038110156120d9576000808281526020019081526020016000206001018054600181600116156101000203166002900480601f016020809104026020016040519081016040528092919081815260200182805460018160011615610100020316600290048015611f775780601f10611f4c57610100808354040283529160200191611f77565b820191906000526020600020905b815481529060010190602001808311611f5a57829003601f168201915b50505050508583815181101515611f8a57fe5b90602001906020020181905250600080828152602001908152602001600020600001548683815181101515611fbb57fe5b90602001906020020181815250506000808281526020019081526020016000206002018054600181600116156101000203166002900480601f0160208091040260200160405190810160405280929190818152602001828054600181600116156101000203166002900480156120725780601f1061204757610100808354040283529160200191612072565b820191906000526020600020905b81548152906001019060200180831161205557829003601f168201915b5050505050848381518110151561208557fe5b906020019060200201819052506000808281526020019081526020016000206006015483838151811015156120b657fe5b906020019060200201818152505081806001019250508080600101915050611ea7565b508385848499509950995099505050505050505b9193509193565b600073ffffffffffffffffffffffffffffffffffffffff168173ffffffffffffffffffffffffffffffffffffffff1614151515612166576040517f08c379a000000000000000000000000000000000000000000000000000000000815260040161215d90613245565b60405180910390fd5b80600b60006101000a81548173ffffffffffffffffffffffffffffffffffffffff021916908373ffffffffffffffffffffffffffffffffffffffff160217905550600b60009054906101000a900473ffffffffffffffffffffffffffffffffffffffff16600a60006101000a81548173ffffffffffffffffffffffffffffffffffffffff021916908373ffffffffffffffffffffffffffffffffffffffff16021790555050565b600073ffffffffffffffffffffffffffffffffffffffff168173ffffffffffffffffffffffffffffffffffffffff161415151561227f576040517f08c379a000000000000000000000000000000000000000000000000000000000815260040161227690613245565b60405180910390fd5b80600d60006101000a81548173ffffffffffffffffffffffffffffffffffffffff021916908373ffffffffffffffffffffffffffffffffffffffff160217905550600d60009054906101000a900473ffffffffffffffffffffffffffffffffffffffff16600c60006101000a81548173ffffffffffffffffffffffffffffffffffffffff021916908373ffffffffffffffffffffffffffffffffffffffff16021790555050565b600073ffffffffffffffffffffffffffffffffffffffff168173ffffffffffffffffffffffffffffffffffffffff1614151515612398576040517f08c379a000000000000000000000000000000000000000000000000000000000815260040161238f90613245565b60405180910390fd5b80601160006101000a81548173ffffffffffffffffffffffffffffffffffffffff021916908373ffffffffffffffffffffffffffffffffffffffff160217905550601160009054906101000a900473ffffffffffffffffffffffffffffffffffffffff16601060006101000a81548173ffffffffffffffffffffffffffffffffffffffff021916908373ffffffffffffffffffffffffffffffffffffffff16021790555050565b606080606080606060008090506060806060601060009054906101000a900473ffffffffffffffffffffffffffffffffffffffff1673ffffffffffffffffffffffffffffffffffffffff166372927f426040518163ffffffff167c0100000000000000000000000000000000000000000000000000000000028152600401600060405180830381600087803b1580156124d757600080fd5b505af11580156124eb573d6000803e3d6000fd5b505050506040513d6000823e3d601f19601f820116820180604052506125149190810190612bb4565b9250925092506060835160405190808252806020026020018201604052801561254c5781602001602082028038833980820191505090505b509050606084516040519080825280602002602001820160405280156125815781602001602082028038833980820191505090505b509050606085516040519080825280602002602001820160405280156125b65781602001602082028038833980820191505090505b509050606086516040519080825280602002602001820160405280156125eb5781602001602082028038833980820191505090505b50905060008090505b875181101561279157600080600080601060009054906101000a900473ffffffffffffffffffffffffffffffffffffffff1673ffffffffffffffffffffffffffffffffffffffff1663e5530b118b8781518110151561264f57fe5b906020019060200201518d8881518110151561266757fe5b906020019060200201516040518363ffffffff167c01000000000000000000000000000000000000000000000000000000000281526004016126aa9291906132c0565b608060405180830381600087803b1580156126c457600080fd5b505af11580156126d8573d6000803e3d6000fd5b505050506040513d601f19601f820116820180604052506126fc9190810190612dd5565b935093509350935083898e81518110151561271357fe5b906020019060200201818152505082888e81518110151561273057fe5b906020019060200201818152505081878e81518110151561274d57fe5b906020019060200201818152505080868e81518110151561276a57fe5b90602001906020020181815250508c806001019d50505050505080806001019150506125f4565b5086848484849c509c509c509c509c5050505050505050509091929394565b6000806000905060018314151561283a57600060016004600286038154811015156127d757fe5b90600052602060002001540390505b60016004600186038154811015156127fa57fe5b90600052602060002001540381101561283457600080828152602001908152602001600020600701548201915080806001019150506127e6565b50612890565b60008090505b600160046001860381548110151561285457fe5b90600052602060002001540381101561288e5760008082815260200190815260200160002060070154820191508080600101915050612840565b505b80915050919050565b828054600181600116156101000203166002900490600052602060002090601f016020900481019282601f106128da57805160ff1916838001178555612908565b82800160010185558215612908579182015b828111156129075782518255916020019190600101906128ec565b5b5090506129159190612919565b5090565b61293b91905b8082111561293757600081600090555060010161291f565b5090565b90565b600061294a823561343d565b905092915050565b600082601f830112151561296557600080fd5b815161297861297382613316565b6132e9565b9150818183526020840193506020810190508360005b838110156129be57815186016129a48882612a61565b84526020840193506020830192505060018101905061298e565b5050505092915050565b600082601f83011215156129db57600080fd5b81516129ee6129e98261333e565b6132e9565b91508181835260208401935060208101905083856020840282011115612a1357600080fd5b60005b83811015612a435781612a298882612b77565b845260208401935060208301925050600181019050612a16565b5050505092915050565b6000612a59825161344f565b905092915050565b600082601f8301121515612a7457600080fd5b8151612a87612a8282613366565b6132e9565b91508082526020830160208301858383011115612aa357600080fd5b612aae8382846134aa565b50505092915050565b600082601f8301121515612aca57600080fd5b8135612add612ad882613392565b6132e9565b91508082526020830160208301858383011115612af957600080fd5b612b0483828461349b565b50505092915050565b600082601f8301121515612b2057600080fd5b8151612b33612b2e82613392565b6132e9565b91508082526020830160208301858383011115612b4f57600080fd5b612b5a8382846134aa565b50505092915050565b6000612b6f823561345b565b905092915050565b6000612b83825161345b565b905092915050565b600060208284031215612b9d57600080fd5b6000612bab8482850161293e565b91505092915050565b600080600060608486031215612bc957600080fd5b600084015167ffffffffffffffff811115612be357600080fd5b612bef86828701612952565b935050602084015167ffffffffffffffff811115612c0c57600080fd5b612c18868287016129c8565b925050604084015167ffffffffffffffff811115612c3557600080fd5b612c41868287016129c8565b9150509250925092565b600060208284031215612c5d57600080fd5b6000612c6b84828501612a4d565b91505092915050565b600060208284031215612c8657600080fd5b600082015167ffffffffffffffff811115612ca057600080fd5b612cac84828501612b0d565b91505092915050565b600080600080600080600060e0888a031215612cd057600080fd5b600088013567ffffffffffffffff811115612cea57600080fd5b612cf68a828b01612ab7565b975050602088013567ffffffffffffffff811115612d1357600080fd5b612d1f8a828b01612ab7565b9650506040612d308a828b01612b63565b9550506060612d418a828b01612b63565b9450506080612d528a828b01612b63565b93505060a0612d638a828b01612b63565b92505060c0612d748a828b01612b63565b91505092959891949750929550565b600060208284031215612d9557600080fd5b6000612da384828501612b63565b91505092915050565b600060208284031215612dbe57600080fd5b6000612dcc84828501612b77565b91505092915050565b60008060008060808587031215612deb57600080fd5b6000612df987828801612b77565b9450506020612e0a87828801612b77565b9350506040612e1b87828801612b77565b9250506060612e2c87828801612b77565b91505092959194509250565b612e4181613465565b82525050565b6000612e52826133d8565b80845260208401935083602082028501612e6b856133be565b60005b84811015612ea4578383038852612e86838351612f10565b9250612e91826133f9565b9150602088019750600181019050612e6e565b508196508694505050505092915050565b6000612ec0826133e3565b808452602084019350612ed2836133cb565b60005b82811015612f0457612ee8868351613094565b612ef182613406565b9150602086019550600181019050612ed5565b50849250505092915050565b6000612f1b826133ee565b808452612f2f8160208601602086016134aa565b612f38816134dd565b602085010191505092915050565b6000602682527f4e6f6e203f20706f73736962696c65207061737361726520756e61206461746160208301527f206e756c6c6100000000000000000000000000000000000000000000000000006040830152606082019050919050565b6000602082527f4c27696e646972697a7a6f207061737361746f206e6f6e203f2076616c69646f6020830152604082019050919050565b6000602782527f4e6f6e20efbfbd20616e636f7261207374617461207375706572617461206c6160208301527f20736f676c6961000000000000000000000000000000000000000000000000006040830152606082019050919050565b6000603b82527f536f6c6f20696c204469726574746f726520646569204c61766f72692070753f60208301527f207574696c697a7a617265207175657374612066756e7a696f6e6500000000006040830152606082019050919050565b61309d81613433565b82525050565b60006020820190506130b86000830184612e38565b92915050565b600060808201905081810360008301526130d88187612e47565b905081810360208301526130ec8186612eb5565b905081810360408301526131008185612e47565b905081810360608301526131148184612eb5565b905095945050505050565b600060408201905081810360008301526131398185612eb5565b9050818103602083015261314d8184612eb5565b90509392505050565b600060608201905081810360008301526131708186612eb5565b905081810360208301526131848185612eb5565b905081810360408301526131988184612eb5565b9050949350505050565b600060808201905081810360008301526131bc8187612eb5565b905081810360208301526131d08186612eb5565b905081810360408301526131e48185612eb5565b905081810360608301526131f88184612eb5565b905095945050505050565b6000602082019050818103600083015261321d8184612f10565b905092915050565b6000602082019050818103600083015261323e81612f46565b9050919050565b6000602082019050818103600083015261325e81612fa3565b9050919050565b6000602082019050818103600083015261327e81612fda565b9050919050565b6000602082019050818103600083015261329e81613037565b9050919050565b60006020820190506132ba6000830184613094565b92915050565b60006040820190506132d56000830185613094565b6132e26020830184613094565b9392505050565b6000604051905081810181811067ffffffffffffffff8211171561330c57600080fd5b8060405250919050565b600067ffffffffffffffff82111561332d57600080fd5b602082029050602081019050919050565b600067ffffffffffffffff82111561335557600080fd5b602082029050602081019050919050565b600067ffffffffffffffff82111561337d57600080fd5b601f19601f8301169050602081019050919050565b600067ffffffffffffffff8211156133a957600080fd5b601f19601f8301169050602081019050919050565b6000602082019050919050565b6000602082019050919050565b600081519050919050565b600081519050919050565b600081519050919050565b6000602082019050919050565b6000602082019050919050565b600073ffffffffffffffffffffffffffffffffffffffff82169050919050565b6000819050919050565b600061344882613413565b9050919050565b60008115159050919050565b6000819050919050565b600061347082613477565b9050919050565b600061348282613489565b9050919050565b600061349482613413565b9050919050565b82818337600083830152505050565b60005b838110156134c85780820151818401526020810190506134ad565b838111156134d7576000848401525b50505050565b6000601f19601f830116905091905056fea265627a7a72305820dec89c76c283139ef6ef6378e3856673f942bf6d676f94c47b465a36ae2d0a676c6578706572696d656e74616cf50037",
  "source": "pragma solidity ^0.5.0;\npragma experimental ABIEncoderV2;\n\nimport \"./Misure.sol\";\nimport \"./Registro.sol\";\nimport \"./Giornale.sol\";\nimport \"./Libretto.sol\";\nimport \"./Riserve.sol\";\nimport \"./Firme.sol\";\n\n\ncontract Avanzamento {\n    \n    // il sal viene emesso ad ogni raggiungimento della rata di acconto\n    // quindi si ha che il sal riassume i lavori con le relative percentuali e costi che hanno fatto in modo di raggiungere quell acconto\n    // quindi in generale un sal potr? essere formato anche da piu registri di contabilita\n    // infatti non ? detto che un unico registro riesca a maturare il valore da raggiungere per poter superare la rata di acconto prefissata\n    \n    // per questo devono essere fatti i controlli tra i vari registri di contabilit? in modo da non prendere ripetizioni di uno stesso lavoro\n    // se si hanno ripetizioni, ovviamente si deve andare a prendere il lavoro piu aggiornato, cio? quello che ha una percentuale di avanzamento maggiore\n    \n    // ho una soglia monetaria o percentuale\n    // quando dopo l emissione di un nuovo registro di contabilit? mi accorgo che ? stata superata questa soglia, si ha uno stato di avanzamento\n    // quindi viene data la possibilit? al DL di emettere il SAL \n    \n    struct StatoAvanzamentoLavori {\n        uint data_sal;\n        string codice_lavoro;\n        string nome_lavoro; \n        uint percentuale_totale; // percentuale del lavoro\n        uint percentuale_i; // percentuale del lavoro i esimo sul totale\n        uint percentuale_raggiunta; // percentuale raggiunta sul 100%\n        uint costo_i; // costo del lavoto i esimo\n        uint costo_raggiunto; // costo del lavoro raggiunto con la percentuale raggiunta\n        uint numero_rigo;\n        uint sal; // indica il numero del sal\n    }\n    \n    mapping (uint => StatoAvanzamentoLavori) private avanzamenti;\n    uint private numero_avanzamenti = 1; // per indicare i righi del sal\n    uint private sal = 1;\n    uint private numero_totale_avanzamenti = 1;\n    uint[] private righi_max_sal;\n    \n    mapping(uint => uint) private data;\n    \n    \n    function getSal() public returns(uint) {\n        return sal;\n    }\n    \n    // a partire da una certa data, restituisce il numero di sal \n    function getSalData (uint _data) public returns(uint, uint) {\n        require (_data != 0, \"Non ? possibile passare una data nulla\");\n        for (uint i = 0; i < (sal - 1); i++) {\n            if (data[i] == _data) {\n                return (i, _data);\n            }\n        }\n    }\n    \n    // se non viene passata una data, si restituisce la lista dei sal con la data \n    function getSalData() public returns(uint[] memory, uint[] memory) {\n        uint[] memory sa = new uint[](sal);\n        uint[] memory date = new uint[](sal);\n        \n        uint cont = 0;\n        \n        for (uint i = 0; i < (sal - 1); i++) {\n            sa[cont] = i+1;\n            date[cont] = data[i];\n            cont++;\n        }\n        return(sa, date);\n    }\n    \n    \n    \n    // calcola il costo di avanzamento, dato dalla somma dei costi di tutti i valori nel sal\n    function countCostoSal (uint _sal) private returns(uint) {\n        uint somma = 0;\n        // se il numero del sal non ? il primo allora bisogna considerare come righi solamente quelli che vanno dal numero di righi\n        // del sal precedente + 1, cio? dal primo rigo del sal voluto, fino all ultimo rigo del sal voluto\n        if (_sal != 1) {\n            for (uint i = (righi_max_sal[_sal - 2] - 1); i < (righi_max_sal[_sal - 1] - 1); i++) {\n                somma += avanzamenti[i].costo_raggiunto;\n            }\n        }\n        // se invece il sal considerato ? il primo allora si va dal primo rigo fino al ultimo del sal\n        else {\n            for (uint i = 0; i < (righi_max_sal[_sal - 1] - 1); i++) {\n                somma += avanzamenti[i].costo_raggiunto;\n            }\n        }\n        return somma;\n    }\n\n\n    // serve al DL per abilitare il sal\n    function enableSal() public onlyDirettoreLavori {\n        // si richiede che la rata di acconto sia stata superata\n        require(m.getSuperata(), \"Non  ancora stata superata la soglia\");\n        \n        \n        // devono essere controllate le misurazioni da inserire\n        // parto dal registro che ha fatto superare la soglia e prendo da questo tutte le misurazioni dato che sono le piu aggiornate\n        // si inseriscono all interno di una struttura che serve per contenere i codici dei lavori distinti\n        // se il codice non si trova dentro la struttura allora lo si inserisce e poi si inserisce nel sal quel rigo del registro.\n        // se invece si ha gia quel codice allora sicuramente ? piu aggiornato di lui dato che proviene da un registro piu recente\n        // si procede cosi fino ad arrivare al primo registro delle contabilit?\n        // ? quindi sicuro che si vanno ad inserire tutte le misurazioni che hanno prodotto un avanzamento\n        \n        (string[] memory codice, uint[] memory perc_tot, uint[] memory perc_i, uint[] memory perc_ragg, \n        uint[] memory costo_ragg) = findMisurazioni();\n        \n        string[] memory nome = new string[](codice.length);\n        uint[] memory costo_i = new uint[](codice.length);\n        uint j = 0;\n        for (uint i = 0; i < codice.length; i++) {\n            nome[j] = m.findNomeLavoro(codice[i]);\n            costo_i[i] = m.findCostoLavoro(codice[i]);\n            j++;\n        }\n        \n        for (uint i = 0; i < codice.length; i++) {\n            insertSal(codice[i], nome[i], perc_tot[i], perc_i[i], perc_ragg[i], costo_i[i], costo_ragg[i]);\n        }\n        data[sal - 1] = now;\n        righi_max_sal.push(numero_totale_avanzamenti);\n        sal++;\n        numero_avanzamenti = 1;\n        m.setNonSuperata();\n    }\n    \n    \n    // serve per trovare i dati relativi ai registri da inserire nel sal\n    function findMisurazioni () private returns(string[] memory, uint[] memory, uint[] memory, uint[] memory, uint[] memory) {\n        uint j = 0;\n        (string[] memory codici, uint[] memory righi, uint[] memory registri) = r.findRegistri();\n        \n        uint[] memory perc_totali = new uint[](codici.length);\n        uint[] memory perc_iesime = new uint[](codici.length);\n        uint[] memory perc_raggiunte = new uint[](codici.length);\n        uint[] memory costi_raggiunti = new uint[](codici.length);\n        \n        for (uint i = 0; i < codici.length; i++) {\n            (uint perc_tot, uint perc_i, uint perc_ragg, uint costo_ragg) = r.findContenuto(registri[i], righi[i]); \n            perc_totali[j] = perc_tot;\n            perc_iesime[j] = perc_i;\n            perc_raggiunte[j] = perc_ragg;\n            costi_raggiunti[j] = costo_ragg;\n            j++;\n        }\n        return (codici, perc_totali, perc_iesime, perc_raggiunte, costi_raggiunti);\n    }\n    \n    \n    function insertSal (string memory _codice, string memory _nome, uint _perc_tot, uint _perc_i, uint _perc_ragg, uint _costo_i, uint _costo_ragg) public {\n        avanzamenti[numero_totale_avanzamenti - 1].data_sal = now;\n        avanzamenti[numero_totale_avanzamenti - 1].codice_lavoro = _codice;\n        avanzamenti[numero_totale_avanzamenti - 1].nome_lavoro = _nome;\n        avanzamenti[numero_totale_avanzamenti - 1].percentuale_totale = _perc_tot;\n        avanzamenti[numero_totale_avanzamenti - 1].percentuale_i = _perc_i;\n        avanzamenti[numero_totale_avanzamenti - 1].percentuale_raggiunta = _perc_ragg;\n        avanzamenti[numero_totale_avanzamenti - 1].costo_i = _costo_i;\n        avanzamenti[numero_totale_avanzamenti - 1].costo_raggiunto = _costo_ragg;\n        avanzamenti[numero_totale_avanzamenti - 1].sal = sal;\n        avanzamenti[numero_totale_avanzamenti - 1].numero_rigo = numero_avanzamenti;\n        numero_avanzamenti++;\n        numero_totale_avanzamenti++;\n    }\n    \n    \n    \n    function getSal1 (uint _sal) public returns(uint[] memory, uint[] memory, uint[] memory, uint[] memory) {\n        if (_sal == 1) {\n            uint lunghezza = righi_max_sal[_sal - 1] - 1;\n            \n            uint[] memory perc_tot = new uint[](lunghezza);\n            uint[] memory perc_i = new uint[](lunghezza);\n            uint[] memory perc_ragg = new uint[](lunghezza);\n            uint[] memory costo_ragg = new uint[](lunghezza);\n            \n            uint cont = 0;\n            \n            for (uint8 j = 0; j < lunghezza; j++) {\n                perc_tot[cont] = avanzamenti[j].percentuale_totale;\n                perc_i[cont] = avanzamenti[j].percentuale_i;\n                perc_ragg[cont] = avanzamenti[j].percentuale_raggiunta;\n                costo_ragg[cont] = avanzamenti[j].costo_raggiunto;\n                \n                cont++;\n            }\n            return (perc_tot, perc_i, perc_ragg, costo_ragg);\n        }\n        else {\n            uint lunghezza = righi_max_sal[_sal - 1] - righi_max_sal[_sal - 2];\n            \n            uint[] memory perc_tot = new uint[](lunghezza);\n            uint[] memory perc_i = new uint[](lunghezza);\n            uint[] memory perc_ragg = new uint[](lunghezza);\n            uint[] memory costo_ragg = new uint[](lunghezza);\n            \n            uint cont = 0;\n            \n            for (uint j = (righi_max_sal[_sal - 2] - 1); j < (righi_max_sal[_sal - 1] - 1); j++) {\n                perc_tot[cont] = avanzamenti[j].percentuale_totale;\n                perc_i[cont] = avanzamenti[j].percentuale_i;\n                perc_ragg[cont] = avanzamenti[j].percentuale_raggiunta;\n                costo_ragg[cont] = avanzamenti[j].costo_raggiunto;\n                \n                cont++;\n            }\n            return (perc_tot, perc_i, perc_ragg, costo_ragg);\n        }\n    }\n    \n    function getSal2 (uint _sal) public returns (string[] memory, uint[] memory, string[] memory, uint[] memory) {\n        if (_sal == 1) {\n            uint lunghezza = righi_max_sal[_sal - 1] - 1;\n            \n            uint[] memory date = new uint[](lunghezza);\n            string[] memory code = new string[](lunghezza);\n            string[] memory name = new string[](lunghezza);\n            uint[] memory costo_i = new uint[](lunghezza);\n            \n            uint cont = 0;\n            \n            for (uint8 j = 0; j < lunghezza; j++) {\n                code[cont] = avanzamenti[j].codice_lavoro;\n                date[cont] = avanzamenti[j].data_sal;\n                name[cont] = avanzamenti[j].nome_lavoro;\n                costo_i[cont] = avanzamenti[j].costo_i;\n                \n                cont++;\n            }\n            return (code, date, name, costo_i);\n        }\n        else {\n            uint lunghezza = righi_max_sal[_sal - 1] - righi_max_sal[_sal - 2];\n            \n            uint[] memory date = new uint[](lunghezza);\n            string[] memory code = new string[](lunghezza);\n            string[] memory name = new string[](lunghezza);\n            uint[] memory costo_i = new uint[](lunghezza);\n            \n            uint cont = 0;\n            \n            for (uint j = (righi_max_sal[_sal - 2] - 1); j < (righi_max_sal[_sal - 1] - 1); j++) {\n                code[cont] = avanzamenti[j].codice_lavoro;\n                date[cont] = avanzamenti[j].data_sal;\n                name[cont] = avanzamenti[j].nome_lavoro;\n                costo_i[cont] = avanzamenti[j].costo_i;\n                \n                cont++;\n            }\n            return (code, date, name, costo_i);\n        }\n    }\n    \n    \n    // funzione che serve per restituire i dati necessari (data sal, numero sal, valore monetario sal) a formare il grafico dell andamento delle lavorazioni\n    function getGrafico () public returns(uint[] memory, uint[] memory, uint[] memory) {\n        uint[] memory date = new uint[](sal - 1);\n        uint[] memory sa = new uint[](sal - 1);\n        uint[] memory val = new uint[](sal - 1);\n        \n        uint cont = 0;\n        \n        for (uint i = 0; i < (sal - 1) ; i++) { \n            date[cont] = data[i];\n            sa[cont] = i+1;\n            val[cont] = countCostoSal(i+1);\n            cont++;\n        }\n        return(date, sa, val);\n    }\n\n    \n    Misure m;\n    address private indirizzoMisure;\n    \n    function setIndirizzoMisure (address _indirizzo) public {\n        require(_indirizzo != address(0), \"L'indirizzo passato non ? valido\");\n        indirizzoMisure = _indirizzo;\n        m = Misure(indirizzoMisure);\n    }\n    \n    Giornale g;\n    address private indirizzoGiornale;\n    \n    function setIndirizzoGiornale(address _indirizzo) public {\n        require(_indirizzo != address(0), \"L'indirizzo passato non ? valido\");\n        indirizzoGiornale = _indirizzo;\n        g = Giornale(indirizzoGiornale);\n    }\n    \n    Libretto l;\n    address private indirizzoLibretto;\n    \n    function setIndirizzoLibretto (address _indirizzo) public {\n        require(_indirizzo != address(0), \"L'indirizzo passato non ? valido\");\n        indirizzoLibretto = _indirizzo;\n        l = Libretto(indirizzoLibretto);\n    }\n    \n    Firme a;\n    address private indirizzoFirme;\n    \n    function setIndirizzoFirme (address _indirizzo) public {\n        require(_indirizzo != address(0), \"L'indirizzo passato non ? valido\");\n        indirizzoFirme = _indirizzo;\n        a = Firme(indirizzoFirme);\n    }\n    \n    Riserve i;\n    address private indirizzoRiserve;\n    \n    function setIndirizzoRiserve (address _indirizzo) public {\n        require(_indirizzo != address(0), \"L'indirizzo passato non ? valido\");\n        indirizzoRiserve = _indirizzo;\n        i = Riserve(indirizzoRiserve);\n    }\n    \n    Registro r;\n    address private indirizzoRegistro;\n    \n    function setIndirizzoRegistro (address _indirizzo) public {\n        require(_indirizzo != address(0), \"L'indirizzo passato non ? valido\");\n        indirizzoRegistro = _indirizzo;\n        r = Registro(indirizzoRegistro);\n    }\n    \n    \n    modifier onlyDirettoreLavori {\n        // solo il Direttore dei Lavori pu? utilizzare questa funzione\n        require(\n            m.enableDL(msg.sender), \"Solo il Direttore dei Lavori pu? utilizzare questa funzione\"\n        );\n        _; //indica dove deve essere posta la funzione chiamata\n    }\n    \n    function killAvanzamento() public {\n        g.killGiornale();\n        l.killLibretto();\n        i.killRiserve();\n        a.killFirme();\n        r.killRegistro();\n        m.killMisure();\n        selfdestruct(msg.sender);\n    }\n}\n",
  "sourcePath": "/Users/roby/Desktop/ServerIds/truffle/contracts/Avanzamento.sol",
  "compiler": {
    "name": "solc",
    "version": "0.5.0+commit.1d4f565a.Emscripten.clang"
  },
  "schemaVersion": "3.0.8",
  "updatedAt": "2019-09-06T09:37:53.962Z",
  "devdoc": {
    "methods": {}
  },
  "userdoc": {
    "methods": {}
  }
}