{
  "contractName": "Firme",
  "abi": [
    {
      "constant": false,
      "inputs": [],
      "name": "getFirme",
      "outputs": [
        {
          "name": "",
          "type": "uint256[]"
        },
        {
          "name": "",
          "type": "uint256[]"
        }
      ],
      "payable": false,
      "stateMutability": "nonpayable",
      "type": "function",
      "signature": "0x4a8a744a"
    },
    {
      "constant": false,
      "inputs": [
        {
          "name": "_documento",
          "type": "uint256"
        },
        {
          "name": "_rigo",
          "type": "uint256"
        }
      ],
      "name": "checkFirma",
      "outputs": [
        {
          "name": "",
          "type": "bool"
        }
      ],
      "payable": false,
      "stateMutability": "nonpayable",
      "type": "function",
      "signature": "0xeb804943"
    },
    {
      "constant": false,
      "inputs": [
        {
          "name": "_documento",
          "type": "uint256"
        },
        {
          "name": "_numero_rigo",
          "type": "uint256"
        }
      ],
      "name": "checkRiserva",
      "outputs": [
        {
          "name": "",
          "type": "bool"
        }
      ],
      "payable": false,
      "stateMutability": "nonpayable",
      "type": "function",
      "signature": "0x77f7b6e1"
    },
    {
      "constant": false,
      "inputs": [
        {
          "name": "_documento",
          "type": "uint256"
        },
        {
          "name": "_numero_rigo",
          "type": "uint256"
        }
      ],
      "name": "setFirme",
      "outputs": [],
      "payable": false,
      "stateMutability": "nonpayable",
      "type": "function",
      "signature": "0x66c4a464"
    },
    {
      "constant": false,
      "inputs": [
        {
          "name": "_documento",
          "type": "uint256"
        },
        {
          "name": "_numero_rigo",
          "type": "uint256"
        },
        {
          "name": "_riserva",
          "type": "bool"
        }
      ],
      "name": "setFirme",
      "outputs": [],
      "payable": false,
      "stateMutability": "nonpayable",
      "type": "function",
      "signature": "0xd223f520"
    },
    {
      "constant": false,
      "inputs": [
        {
          "name": "_indirizzo",
          "type": "address"
        }
      ],
      "name": "setIndirizzoMisure",
      "outputs": [],
      "payable": false,
      "stateMutability": "nonpayable",
      "type": "function",
      "signature": "0x14481ad6"
    },
    {
      "constant": false,
      "inputs": [],
      "name": "killFirme",
      "outputs": [],
      "payable": false,
      "stateMutability": "nonpayable",
      "type": "function",
      "signature": "0x4e9855e9"
    }
  ],
  "bytecode": "0x60806040526001805534801561001457600080fd5b50610796806100246000396000f3fe608060405260043610610083576000357c0100000000000000000000000000000000000000000000000000000000900463ffffffff16806314481ad6146100885780634a8a744a146100d95780634e9855e91461018d57806366c4a464146101a457806377f7b6e1146101e9578063d223f52014610246578063eb80494314610297575b600080fd5b34801561009457600080fd5b506100d7600480360360208110156100ab57600080fd5b81019080803573ffffffffffffffffffffffffffffffffffffffff1690602001909291905050506102f4565b005b3480156100e557600080fd5b506100ee610440565b604051808060200180602001838103835285818151815260200191508051906020019060200280838360005b8381101561013557808201518184015260208101905061011a565b50505050905001838103825284818151815260200191508051906020019060200280838360005b8381101561017757808201518184015260208101905061015c565b5050505090500194505050505060405180910390f35b34801561019957600080fd5b506101a2610551565b005b3480156101b057600080fd5b506101e7600480360360408110156101c757600080fd5b81019080803590602001909291908035906020019092919050505061056a565b005b3480156101f557600080fd5b5061022c6004803603604081101561020c57600080fd5b8101908080359060200190929190803590602001909291905050506105bc565b604051808215151515815260200191505060405180910390f35b34801561025257600080fd5b506102956004803603606081101561026957600080fd5b81019080803590602001909291908035906020019092919080351515906020019092919050505061064d565b005b3480156102a357600080fd5b506102da600480360360408110156102ba57600080fd5b8101908080359060200190929190803590602001909291905050506106d1565b604051808215151515815260200191505060405180910390f35b600073ffffffffffffffffffffffffffffffffffffffff168173ffffffffffffffffffffffffffffffffffffffff1614151515610399576040517f08c379a00000000000000000000000000000000000000000000000000000000081526004018080602001828103825260208152602001807f4c27696e646972697a7a6f207061737361746f206e6f6e203f2076616c69646f81525060200191505060405180910390fd5b80600360006101000a81548173ffffffffffffffffffffffffffffffffffffffff021916908373ffffffffffffffffffffffffffffffffffffffff160217905550600360009054906101000a900473ffffffffffffffffffffffffffffffffffffffff16600260006101000a81548173ffffffffffffffffffffffffffffffffffffffff021916908373ffffffffffffffffffffffffffffffffffffffff16021790555050565b606080606060018054036040519080825280602002602001820160405280156104785781602001602082028038833980820191505090505b509050606060018054036040519080825280602002602001820160405280156104b05781602001602082028038833980820191505090505b509050600080905060008090505b6001805403811015610543576000808281526020019081526020016000206000015484838151811015156104ee57fe5b906020019060200201818152505060008082815260200190815260200160002060010154838381518110151561052057fe5b9060200190602002018181525050818060010192505080806001019150506104be565b508282945094505050509091565b3373ffffffffffffffffffffffffffffffffffffffff16ff5b8160008060018054038152602001908152602001600020600001819055508060008060018054038152602001908152602001600020600101819055506001600081548092919060010191905055505050565b600080600090505b600180540381101561064557836000808381526020019081526020016000206000015414801561060857508260008083815260200190815260200160002060010154145b156106385760008082815260200190815260200160002060020160009054906101000a900460ff16915050610647565b80806001019150506105c4565b505b92915050565b826000806001805403815260200190815260200160002060000181905550816000806001805403815260200190815260200160002060010181905550806000806001805403815260200190815260200160002060020160006101000a81548160ff021916908315150217905550600160008154809291906001019190505550505050565b600080600090505b600180540381101561076257836000808381526020019081526020016000206000015414801561071d57508260008083815260200190815260200160002060010154145b156107555760008060008381526020019081526020016000206001015414151561074b576001915050610764565b6000915050610764565b80806001019150506106d9565b505b9291505056fea165627a7a723058207b49d9f097e1ba97f7cb7d69c1934bdf8a3fd7924fa286dd8b5a9b26e9f7783d0029",
  "source": "pragma solidity ^0.5.0;\n\nimport \"./StringUtils.sol\";\nimport \"./Misure.sol\";\n\ncontract Firme {\n    \n    struct Controfirma {\n        uint numero_documento; // indica il numero del documento, ad esempio il libretto nr.1 oppure il registro nr.2...\n        uint numero_rigo; // indica il rigo del documento\n        bool riserva; // questo campo va compilato solo nel caso del libretto per dire che si ha una firma con riserva\n    }\n    \n    mapping (uint => Controfirma) private firme;\n    uint private numero_firme = 1;\n    \n    \n    function getFirme() public returns(uint[] memory, uint[] memory) {\n        uint[] memory doc = new uint[](numero_firme - 1);\n        uint[] memory rig = new uint[](numero_firme - 1);\n        \n        uint cont = 0;\n        \n        for (uint i = 0; i < (numero_firme - 1); i++) {\n            doc[cont] = firme[i].numero_documento;\n            rig[cont] = firme[i].numero_rigo;\n            \n            cont++;\n        }\n        \n        return(doc, rig);\n    }\n    \n    // serve per vedere se in un certo rigo del libretto � stata posta una firma\n    function checkFirma (uint _documento, uint _rigo) public returns(bool) {\n        for (uint i = 0; i < (numero_firme - 1); i++) {\n            if (firme[i].numero_documento == _documento && firme[i].numero_rigo == _rigo) {\n                if (firme[i].numero_rigo != 0) {\n                    return true;\n                }\n                else {\n                    return false;\n                }\n            }\n        }\n    }\n    \n    // serve per vedere se in un certo rigo del libretto � stata posta una firma con riserva\n    function checkRiserva (uint _documento, uint _numero_rigo) public returns(bool) {\n        for (uint i = 0; i < (numero_firme - 1); i++) {\n            if (firme[i].numero_documento == _documento && firme[i].numero_rigo == _numero_rigo) {\n                return (firme[i].riserva);\n            }\n        }\n    }\n    \n    \n    // setta la firma \n    function setFirme(uint _documento, uint _numero_rigo) public {\n        firme[numero_firme - 1].numero_documento = _documento;\n        firme[numero_firme - 1].numero_rigo = _numero_rigo; \n        numero_firme++;\n    }\n    \n    //setta la firma con riserva per la ditta, infatti ? l unico attore che puo invocarla\n    function setFirme(uint _documento, uint _numero_rigo, bool _riserva) public {\n        firme[numero_firme - 1].numero_documento = _documento;\n        firme[numero_firme - 1].numero_rigo = _numero_rigo; \n        firme[numero_firme - 1].riserva = _riserva;\n        numero_firme++;\n    }\n\n\n    Misure m;\n    address private indirizzoMisure;\n    \n    function setIndirizzoMisure (address _indirizzo) public {\n        require(_indirizzo != address(0), \"L'indirizzo passato non ? valido\");\n        indirizzoMisure = _indirizzo;\n        m = Misure(indirizzoMisure);\n    }\n\n    \n   function killFirme() public {\n        selfdestruct(msg.sender);\n    }\n}\n",
  "sourcePath": "/Users/roby/Desktop/ServerIds/truffle/contracts/Firme.sol",
  "compiler": {
    "name": "solc",
    "version": "0.5.0+commit.1d4f565a.Emscripten.clang"
  },
  "schemaVersion": "3.0.8",
  "updatedAt": "2019-09-06T09:37:53.729Z",
  "devdoc": {
    "methods": {}
  },
  "userdoc": {
    "methods": {}
  }
}