{
  "contractName": "Giornale",
  "abi": [
    {
      "constant": false,
      "inputs": [
        {
          "name": "_giornale",
          "type": "uint256"
        },
        {
          "name": "_rigo",
          "type": "uint256"
        }
      ],
      "name": "getRigoGiornale",
      "outputs": [
        {
          "name": "",
          "type": "uint256"
        }
      ],
      "payable": false,
      "stateMutability": "nonpayable",
      "type": "function",
      "signature": "0x45fa9bc0"
    },
    {
      "constant": false,
      "inputs": [],
      "name": "getGiornaleData",
      "outputs": [
        {
          "name": "",
          "type": "uint256[]"
        },
        {
          "name": "",
          "type": "uint256[]"
        }
      ],
      "payable": false,
      "stateMutability": "nonpayable",
      "type": "function",
      "signature": "0xa9be1569"
    },
    {
      "constant": false,
      "inputs": [
        {
          "name": "_data",
          "type": "uint256"
        }
      ],
      "name": "getGiornaleData",
      "outputs": [
        {
          "name": "",
          "type": "uint256"
        },
        {
          "name": "",
          "type": "uint256"
        },
        {
          "name": "",
          "type": "bool"
        }
      ],
      "payable": false,
      "stateMutability": "nonpayable",
      "type": "function",
      "signature": "0xec4e09ce"
    },
    {
      "constant": false,
      "inputs": [],
      "name": "finishGiornale",
      "outputs": [],
      "payable": false,
      "stateMutability": "nonpayable",
      "type": "function",
      "signature": "0x9efd1985"
    },
    {
      "constant": false,
      "inputs": [
        {
          "name": "_quantita",
          "type": "uint256[]"
        },
        {
          "name": "_qualita",
          "type": "string[]"
        },
        {
          "name": "_ore",
          "type": "uint256[]"
        },
        {
          "name": "_descrizione",
          "type": "string"
        },
        {
          "name": "_attrezzature",
          "type": "string[]"
        },
        {
          "name": "_quantita_attr",
          "type": "uint256[]"
        },
        {
          "name": "_numero",
          "type": "uint256"
        },
        {
          "name": "_numero_documento",
          "type": "uint256"
        }
      ],
      "name": "updateGiornale",
      "outputs": [],
      "payable": false,
      "stateMutability": "nonpayable",
      "type": "function",
      "signature": "0xbe492359"
    },
    {
      "constant": false,
      "inputs": [
        {
          "name": "_quantita",
          "type": "uint256[]"
        },
        {
          "name": "_qualita",
          "type": "string[]"
        },
        {
          "name": "_ore",
          "type": "uint256[]"
        },
        {
          "name": "_descrizione",
          "type": "string"
        },
        {
          "name": "_attrezzature",
          "type": "string[]"
        },
        {
          "name": "_quantita_attr",
          "type": "uint256[]"
        }
      ],
      "name": "insertGiornale",
      "outputs": [],
      "payable": false,
      "stateMutability": "nonpayable",
      "type": "function",
      "signature": "0x4e7cab01"
    },
    {
      "constant": false,
      "inputs": [
        {
          "name": "_giornale",
          "type": "uint256"
        }
      ],
      "name": "get1",
      "outputs": [
        {
          "name": "",
          "type": "uint256[][]"
        },
        {
          "name": "",
          "type": "string[][]"
        },
        {
          "name": "",
          "type": "uint256[][]"
        },
        {
          "name": "",
          "type": "uint256[]"
        }
      ],
      "payable": false,
      "stateMutability": "nonpayable",
      "type": "function",
      "signature": "0x9c117f0f"
    },
    {
      "constant": false,
      "inputs": [
        {
          "name": "_giornale",
          "type": "uint256"
        }
      ],
      "name": "get2",
      "outputs": [
        {
          "name": "",
          "type": "string[][]"
        },
        {
          "name": "",
          "type": "uint256[][]"
        },
        {
          "name": "",
          "type": "uint256[]"
        }
      ],
      "payable": false,
      "stateMutability": "nonpayable",
      "type": "function",
      "signature": "0x31184dc3"
    },
    {
      "constant": false,
      "inputs": [
        {
          "name": "_giornale",
          "type": "uint256"
        }
      ],
      "name": "get3",
      "outputs": [
        {
          "name": "",
          "type": "uint256[]"
        },
        {
          "name": "",
          "type": "string[]"
        },
        {
          "name": "",
          "type": "uint256[]"
        },
        {
          "name": "",
          "type": "uint256[]"
        }
      ],
      "payable": false,
      "stateMutability": "nonpayable",
      "type": "function",
      "signature": "0xed09d19a"
    },
    {
      "constant": false,
      "inputs": [
        {
          "name": "_indirizzo",
          "type": "address"
        }
      ],
      "name": "setIndirizzoMisure",
      "outputs": [],
      "payable": false,
      "stateMutability": "nonpayable",
      "type": "function",
      "signature": "0x14481ad6"
    },
    {
      "constant": false,
      "inputs": [],
      "name": "killGiornale",
      "outputs": [],
      "payable": false,
      "stateMutability": "nonpayable",
      "type": "function",
      "signature": "0xf4ab9bbc"
    }
  ],
  "bytecode": "0x6080604052600180556001600260006101000a81548160ff021916908360ff160217905550600160035534801561003557600080fd5b50615348806100456000396000f3fe6080604052600436106100af576000357c0100000000000000000000000000000000000000000000000000000000900463ffffffff16806314481ad6146100b457806331184dc3146100dd57806345fa9bc01461011c5780634e7cab01146101595780639c117f0f146101825780639efd1985146101c2578063a9be1569146101d9578063be49235914610205578063ec4e09ce1461022e578063ed09d19a1461026d578063f4ab9bbc146102ad575b600080fd5b3480156100c057600080fd5b506100db60048036036100d691908101906142d2565b6102c4565b005b3480156100e957600080fd5b5061010460048036036100ff919081019061457f565b6103dd565b60405161011393929190614d52565b60405180910390f35b34801561012857600080fd5b50610143600480360361013e91908101906145a8565b611262565b6040516101509190615017565b60405180910390f35b34801561016557600080fd5b50610180600480360361017b91908101906142fb565b6112e5565b005b34801561018e57600080fd5b506101a960048036036101a4919081019061457f565b6118b7565b6040516101b99493929190614d9e565b60405180910390f35b3480156101ce57600080fd5b506101d7612afb565b005b3480156101e557600080fd5b506101ee612cb3565b6040516101fc929190614e60565b60405180910390f35b34801561021157600080fd5b5061022c60048036036102279190810190614414565b612dda565b005b34801561023a57600080fd5b506102556004803603610250919081019061457f565b613419565b60405161026493929190615032565b60405180910390f35b34801561027957600080fd5b50610294600480360361028f919081019061457f565b6134f5565b6040516102a49493929190614dff565b60405180910390f35b3480156102b957600080fd5b506102c2614031565b005b600073ffffffffffffffffffffffffffffffffffffffff168173ffffffffffffffffffffffffffffffffffffffff1614151515610336576040517f08c379a000000000000000000000000000000000000000000000000000000000815260040161032d90614f37565b60405180910390fd5b80600760006101000a81548173ffffffffffffffffffffffffffffffffffffffff021916908373ffffffffffffffffffffffffffffffffffffffff160217905550600760009054906101000a900473ffffffffffffffffffffffffffffffffffffffff16600660006101000a81548173ffffffffffffffffffffffffffffffffffffffff021916908373ffffffffffffffffffffffffffffffffffffffff16021790555050565b6060806060600260009054906101000a900460ff1660ff16841415610afa576001841415610763576000600160035403905060608160405190808252806020026020018201604052801561044557816020015b60608152602001906001900390816104305790505b50905060608260405190808252806020026020018201604052801561047e57816020015b60608152602001906001900390816104695790505b5090506060836040519080825280602002602001820160405280156104b25781602001602082028038833980820191505090505b509050600080905060008090505b858160ff16101561074f576000808260ff1681526020019081526020016000206008015483838151811015156104f257fe5b90602001906020020181815250506060838381518110151561051057fe5b9060200190602002015160405190808252806020026020018201604052801561054d57816020015b60608152602001906001900390816105385790505b5090506060848481518110151561056057fe5b906020019060200201516040519080825280602002602001820160405280156105985781602001602082028038833980820191505090505b50905060008090505b85858151811015156105af57fe5b906020019060200201518160ff1610156106ff576000808560ff16815260200190815260200160002060060160008260ff1681526020019081526020016000208054600181600116156101000203166002900480601f0160208091040260200160405190810160405280929190818152602001828054600181600116156101000203166002900480156106835780601f1061065857610100808354040283529160200191610683565b820191906000526020600020905b81548152906001019060200180831161066657829003601f168201915b5050505050838260ff1681518110151561069957fe5b906020019060200201819052506000808560ff16815260200190815260200160002060070160008260ff16815260200190815260200160002054828260ff168151811015156106e457fe5b906020019060200201818152505080806001019150506105a1565b5081878581518110151561070f57fe5b9060200190602002018190525080868581518110151561072b57fe5b906020019060200201819052508380600101945050505080806001019150506104c0565b50838383975097509750505050505061125b565b6000600160046002870381548110151561077957fe5b9060005260206000200154036001600354030390506060816040519080825280602002602001820160405280156107c457816020015b60608152602001906001900390816107af5790505b5090506060826040519080825280602002602001820160405280156107fd57816020015b60608152602001906001900390816107e85790505b5090506060836040519080825280602002602001820160405280156108315781602001602082028038833980820191505090505b509050600080905060006001600460028c0381548110151561084f57fe5b90600052602060002001540390505b600160035403811015610ae65760008082815260200190815260200160002060080154838381518110151561088f57fe5b9060200190602002018181525050606083838151811015156108ad57fe5b906020019060200201516040519080825280602002602001820160405280156108ea57816020015b60608152602001906001900390816108d55790505b509050606084848151811015156108fd57fe5b906020019060200201516040519080825280602002602001820160405280156109355781602001602082028038833980820191505090505b50905060008090505b858581518110151561094c57fe5b906020019060200201518160ff161015610a965760008085815260200190815260200160002060060160008260ff1681526020019081526020016000208054600181600116156101000203166002900480601f016020809104026020016040519081016040528092919081815260200182805460018160011615610100020316600290048015610a1d5780601f106109f257610100808354040283529160200191610a1d565b820191906000526020600020905b815481529060010190602001808311610a0057829003601f168201915b5050505050838260ff16815181101515610a3357fe5b9060200190602002018190525060008085815260200190815260200160002060070160008260ff16815260200190815260200160002054828260ff16815181101515610a7b57fe5b9060200190602002018181525050808060010191505061093e565b50818785815181101515610aa657fe5b90602001906020020181905250808685815181101515610ac257fe5b9060200190602002018190525083806001019450505050808060010191505061085e565b50838383975097509750505050505061125b565b600260009054906101000a900460ff1660ff1684101561125a576001841415610e955760006001600460018703815481101515610b3357fe5b9060005260206000200154039050606081604051908082528060200260200182016040528015610b7757816020015b6060815260200190600190039081610b625790505b509050606082604051908082528060200260200182016040528015610bb057816020015b6060815260200190600190039081610b9b5790505b509050606083604051908082528060200260200182016040528015610be45781602001602082028038833980820191505090505b509050600080905060008090505b858160ff161015610e81576000808260ff168152602001908152602001600020600801548383815181101515610c2457fe5b906020019060200201818152505060608383815181101515610c4257fe5b90602001906020020151604051908082528060200260200182016040528015610c7f57816020015b6060815260200190600190039081610c6a5790505b50905060608484815181101515610c9257fe5b90602001906020020151604051908082528060200260200182016040528015610cca5781602001602082028038833980820191505090505b50905060008090505b8585815181101515610ce157fe5b906020019060200201518160ff161015610e31576000808560ff16815260200190815260200160002060060160008260ff1681526020019081526020016000208054600181600116156101000203166002900480601f016020809104026020016040519081016040528092919081815260200182805460018160011615610100020316600290048015610db55780601f10610d8a57610100808354040283529160200191610db5565b820191906000526020600020905b815481529060010190602001808311610d9857829003601f168201915b5050505050838260ff16815181101515610dcb57fe5b906020019060200201819052506000808560ff16815260200190815260200160002060070160008260ff16815260200190815260200160002054828260ff16815181101515610e1657fe5b90602001906020020181815250508080600101915050610cd3565b50818785815181101515610e4157fe5b90602001906020020181905250808685815181101515610e5d57fe5b90602001906020020181905250838060010194505050508080600101915050610bf2565b50838383975097509750505050505061125b565b6000600460028603815481101515610ea957fe5b9060005260206000200154600460018703815481101515610ec657fe5b9060005260206000200154039050606081604051908082528060200260200182016040528015610f0a57816020015b6060815260200190600190039081610ef55790505b509050606082604051908082528060200260200182016040528015610f4357816020015b6060815260200190600190039081610f2e5790505b509050606083604051908082528060200260200182016040528015610f775781602001602082028038833980820191505090505b509050600080905060006001600460028c03815481101515610f9557fe5b90600052602060002001540390505b6001600460018c03815481101515610fb857fe5b90600052602060002001540381101561124657600080828152602001908152602001600020600801548383815181101515610fef57fe5b90602001906020020181815250506060838381518110151561100d57fe5b9060200190602002015160405190808252806020026020018201604052801561104a57816020015b60608152602001906001900390816110355790505b5090506060848481518110151561105d57fe5b906020019060200201516040519080825280602002602001820160405280156110955781602001602082028038833980820191505090505b50905060008090505b85858151811015156110ac57fe5b906020019060200201518160ff1610156111f65760008085815260200190815260200160002060060160008260ff1681526020019081526020016000208054600181600116156101000203166002900480601f01602080910402602001604051908101604052809291908181526020018280546001816001161561010002031660029004801561117d5780601f106111525761010080835404028352916020019161117d565b820191906000526020600020905b81548152906001019060200180831161116057829003601f168201915b5050505050838260ff1681518110151561119357fe5b9060200190602002018190525060008085815260200190815260200160002060070160008260ff16815260200190815260200160002054828260ff168151811015156111db57fe5b9060200190602002018181525050808060010191505061109e565b5081878581518110151561120657fe5b9060200190602002018190525080868581518110151561122257fe5b90602001906020020181905250838060010194505050508080600101915050610fa4565b50838383975097509750505050505061125b565b5b9193909250565b600080600090505b6001600354038110156112dd5783600080838152602001908152602001600020600a0160009054906101000a900460ff1660ff161480156112bf575082600080838152602001908152602001600020600b0154145b156112d057600181019150506112df565b808060010191505061126a565b505b92915050565b600660009054906101000a900473ffffffffffffffffffffffffffffffffffffffff1673ffffffffffffffffffffffffffffffffffffffff1662deb5d6336040518263ffffffff167c010000000000000000000000000000000000000000000000000000000002815260040161135b9190614d37565b602060405180830381600087803b15801561137557600080fd5b505af1158015611389573d6000803e3d6000fd5b505050506040513d601f19601f820116820180604052506113ad9190810190614556565b15156113ee576040517f08c379a00000000000000000000000000000000000000000000000000000000081526004016113e590614ff7565b60405180910390fd5b6000806000600160035403815260200190815260200160002090504281600001819055508381600501908051906020019061142a92919061404a565b506000816009018190555060015481600b0181905550600260009054906101000a900460ff1681600a0160006101000a81548160ff021916908360ff160217905550855187511415156114b2576040517f08c379a00000000000000000000000000000000000000000000000000000000081526004016114a990614f97565b60405180910390fd5b845187511415156114f8576040517f08c379a00000000000000000000000000000000000000000000000000000000081526004016114ef90614f97565b60405180910390fd5b8451865114151561153e576040517f08c379a000000000000000000000000000000000000000000000000000000000815260040161153590614f97565b60405180910390fd5b81518351141515611584576040517f08c379a000000000000000000000000000000000000000000000000000000000815260040161157b90614f17565b60405180910390fd5b60008090505b87518160ff161015611718576000888260ff168151811015156115a957fe5b90602001906020020151141515156115f6576040517f08c379a00000000000000000000000000000000000000000000000000000000081526004016115ed90614ef7565b60405180910390fd5b878160ff1681518110151561160757fe5b906020019060200201518260010160008360ff16815260200190815260200160002081905550868160ff1681518110151561163e57fe5b906020019060200201518260020160008360ff168152602001908152602001600020908051906020019061167392919061404a565b506000868260ff1681518110151561168757fe5b90602001906020020151141515156116d4576040517f08c379a00000000000000000000000000000000000000000000000000000000081526004016116cb90614f77565b60405180910390fd5b858160ff168151811015156116e557fe5b906020019060200201518260030160008360ff16815260200190815260200160002081905550808060010191505061158a565b5060008090505b83518160ff16101561181657838160ff1681518110151561173c57fe5b906020019060200201518260060160008360ff168152602001908152602001600020908051906020019061177192919061404a565b506000838260ff1681518110151561178557fe5b90602001906020020151141515156117d2576040517f08c379a00000000000000000000000000000000000000000000000000000000081526004016117c990614f57565b60405180910390fd5b828160ff168151811015156117e357fe5b906020019060200201518260070160008360ff16815260200190815260200160002081905550808060010191505061171f565b5086518160040181905550825181600801819055506001600081548092919060010191905055506003600081548092919060010191905055506000600560006001600260009054906101000a900460ff160360ff1681526020019081526020016000205414156118ae5742600560006001600260009054906101000a900460ff160360ff168152602001908152602001600020819055505b50505050505050565b606080606080600260009054906101000a900460ff1660ff168514156121b4576001851415611d2f576000600160035403905060608160405190808252806020026020018201604052801561192057816020015b606081526020019060019003908161190b5790505b50905060608260405190808252806020026020018201604052801561195957816020015b60608152602001906001900390816119445790505b50905060608360405190808252806020026020018201604052801561199257816020015b606081526020019060019003908161197d5790505b5090506060846040519080825280602002602001820160405280156119c65781602001602082028038833980820191505090505b509050600080905060008090505b868160ff161015611d17576000808260ff168152602001908152602001600020600401548383815181101515611a0657fe5b906020019060200201818152505060608383815181101515611a2457fe5b90602001906020020151604051908082528060200260200182016040528015611a5c5781602001602082028038833980820191505090505b50905060608484815181101515611a6f57fe5b90602001906020020151604051908082528060200260200182016040528015611aac57816020015b6060815260200190600190039081611a975790505b50905060608585815181101515611abf57fe5b90602001906020020151604051908082528060200260200182016040528015611af75781602001602082028038833980820191505090505b50905060008090505b8686815181101515611b0e57fe5b906020019060200201518160ff161015611caa576000808660ff16815260200190815260200160002060010160008260ff16815260200190815260200160002054848260ff16815181101515611b6057fe5b90602001906020020181815250506000808660ff16815260200190815260200160002060020160008260ff1681526020019081526020016000208054600181600116156101000203166002900480601f016020809104026020016040519081016040528092919081815260200182805460018160011615610100020316600290048015611c2e5780601f10611c0357610100808354040283529160200191611c2e565b820191906000526020600020905b815481529060010190602001808311611c1157829003601f168201915b5050505050838260ff16815181101515611c4457fe5b906020019060200201819052506000808660ff16815260200190815260200160002060030160008260ff16815260200190815260200160002054828260ff16815181101515611c8f57fe5b90602001906020020181815250508080600101915050611b00565b50828986815181101515611cba57fe5b90602001906020020181905250818886815181101515611cd657fe5b90602001906020020181905250808786815181101515611cf257fe5b90602001906020020181905250848060010195505050505080806001019150506119d4565b50848484849950995099509950505050505050612af4565b60006001600460028803815481101515611d4557fe5b906000526020600020015403600160035403039050606081604051908082528060200260200182016040528015611d9057816020015b6060815260200190600190039081611d7b5790505b509050606082604051908082528060200260200182016040528015611dc957816020015b6060815260200190600190039081611db45790505b509050606083604051908082528060200260200182016040528015611e0257816020015b6060815260200190600190039081611ded5790505b509050606084604051908082528060200260200182016040528015611e365781602001602082028038833980820191505090505b509050600080905060006001600460028e03815481101515611e5457fe5b90600052602060002001540390505b60016003540381101561219c57600080828152602001908152602001600020600401548383815181101515611e9457fe5b906020019060200201818152505060608383815181101515611eb257fe5b90602001906020020151604051908082528060200260200182016040528015611eea5781602001602082028038833980820191505090505b50905060608484815181101515611efd57fe5b90602001906020020151604051908082528060200260200182016040528015611f3a57816020015b6060815260200190600190039081611f255790505b50905060608585815181101515611f4d57fe5b90602001906020020151604051908082528060200260200182016040528015611f855781602001602082028038833980820191505090505b50905060008090505b8686815181101515611f9c57fe5b906020019060200201518160ff16101561212f5760008086815260200190815260200160002060010160008260ff16815260200190815260200160002054848260ff16815181101515611feb57fe5b906020019060200201818152505060008086815260200190815260200160002060020160008260ff1681526020019081526020016000208054600181600116156101000203166002900480601f0160208091040260200160405190810160405280929190818152602001828054600181600116156101000203166002900480156120b65780601f1061208b576101008083540402835291602001916120b6565b820191906000526020600020905b81548152906001019060200180831161209957829003601f168201915b5050505050838260ff168151811015156120cc57fe5b9060200190602002018190525060008086815260200190815260200160002060030160008260ff16815260200190815260200160002054828260ff1681518110151561211457fe5b90602001906020020181815250508080600101915050611f8e565b5082898681518110151561213f57fe5b9060200190602002018190525081888681518110151561215b57fe5b9060200190602002018190525080878681518110151561217757fe5b9060200190602002018190525084806001019550505050508080600101915050611e63565b50848484849950995099509950505050505050612af4565b600260009054906101000a900460ff1660ff16851015612af357600185141561264057600060016004600188038154811015156121ed57fe5b906000526020600020015403905060608160405190808252806020026020018201604052801561223157816020015b606081526020019060019003908161221c5790505b50905060608260405190808252806020026020018201604052801561226a57816020015b60608152602001906001900390816122555790505b5090506060836040519080825280602002602001820160405280156122a357816020015b606081526020019060019003908161228e5790505b5090506060846040519080825280602002602001820160405280156122d75781602001602082028038833980820191505090505b509050600080905060008090505b868160ff161015612628576000808260ff16815260200190815260200160002060040154838381518110151561231757fe5b90602001906020020181815250506060838381518110151561233557fe5b9060200190602002015160405190808252806020026020018201604052801561236d5781602001602082028038833980820191505090505b5090506060848481518110151561238057fe5b906020019060200201516040519080825280602002602001820160405280156123bd57816020015b60608152602001906001900390816123a85790505b509050606085858151811015156123d057fe5b906020019060200201516040519080825280602002602001820160405280156124085781602001602082028038833980820191505090505b50905060008090505b868681518110151561241f57fe5b906020019060200201518160ff1610156125bb576000808660ff16815260200190815260200160002060010160008260ff16815260200190815260200160002054848260ff1681518110151561247157fe5b90602001906020020181815250506000808660ff16815260200190815260200160002060020160008260ff1681526020019081526020016000208054600181600116156101000203166002900480601f01602080910402602001604051908101604052809291908181526020018280546001816001161561010002031660029004801561253f5780601f106125145761010080835404028352916020019161253f565b820191906000526020600020905b81548152906001019060200180831161252257829003601f168201915b5050505050838260ff1681518110151561255557fe5b906020019060200201819052506000808660ff16815260200190815260200160002060030160008260ff16815260200190815260200160002054828260ff168151811015156125a057fe5b90602001906020020181815250508080600101915050612411565b508289868151811015156125cb57fe5b906020019060200201819052508188868151811015156125e757fe5b9060200190602002018190525080878681518110151561260357fe5b90602001906020020181905250848060010195505050505080806001019150506122e5565b50848484849950995099509950505050505050612af4565b600060046002870381548110151561265457fe5b906000526020600020015460046001880381548110151561267157fe5b90600052602060002001540390506060816040519080825280602002602001820160405280156126b557816020015b60608152602001906001900390816126a05790505b5090506060826040519080825280602002602001820160405280156126ee57816020015b60608152602001906001900390816126d95790505b50905060608360405190808252806020026020018201604052801561272757816020015b60608152602001906001900390816127125790505b50905060608460405190808252806020026020018201604052801561275b5781602001602082028038833980820191505090505b509050600080905060006001600460028e0381548110151561277957fe5b90600052602060002001540390505b6001600460018e0381548110151561279c57fe5b906000526020600020015403811015612adb576000808281526020019081526020016000206004015483838151811015156127d357fe5b9060200190602002018181525050606083838151811015156127f157fe5b906020019060200201516040519080825280602002602001820160405280156128295781602001602082028038833980820191505090505b5090506060848481518110151561283c57fe5b9060200190602002015160405190808252806020026020018201604052801561287957816020015b60608152602001906001900390816128645790505b5090506060858581518110151561288c57fe5b906020019060200201516040519080825280602002602001820160405280156128c45781602001602082028038833980820191505090505b50905060008090505b86868151811015156128db57fe5b906020019060200201518160ff161015612a6e5760008086815260200190815260200160002060010160008260ff16815260200190815260200160002054848260ff1681518110151561292a57fe5b906020019060200201818152505060008086815260200190815260200160002060020160008260ff1681526020019081526020016000208054600181600116156101000203166002900480601f0160208091040260200160405190810160405280929190818152602001828054600181600116156101000203166002900480156129f55780601f106129ca576101008083540402835291602001916129f5565b820191906000526020600020905b8154815290600101906020018083116129d857829003601f168201915b5050505050838260ff16815181101515612a0b57fe5b9060200190602002018190525060008086815260200190815260200160002060030160008260ff16815260200190815260200160002054828260ff16815181101515612a5357fe5b906020019060200201818152505080806001019150506128cd565b50828986815181101515612a7e57fe5b90602001906020020181905250818886815181101515612a9a57fe5b90602001906020020181905250808786815181101515612ab657fe5b9060200190602002018190525084806001019550505050508080600101915050612788565b50848484849950995099509950505050505050612af4565b5b9193509193565b600660009054906101000a900473ffffffffffffffffffffffffffffffffffffffff1673ffffffffffffffffffffffffffffffffffffffff1662deb5d6336040518263ffffffff167c0100000000000000000000000000000000000000000000000000000000028152600401612b719190614d37565b602060405180830381600087803b158015612b8b57600080fd5b505af1158015612b9f573d6000803e3d6000fd5b505050506040513d601f19601f82011682018060405250612bc39190810190614556565b1515612c04576040517f08c379a0000000000000000000000000000000000000000000000000000000008152600401612bfb90614ff7565b60405180910390fd5b60018054111515612c4a576040517f08c379a0000000000000000000000000000000000000000000000000000000008152600401612c4190614ed7565b60405180910390fd5b60046003549080600181540180825580915050906001820390600052602060002001600090919290919091505550600180819055506002600081819054906101000a900460ff168092919060010191906101000a81548160ff021916908360ff16021790555050565b6060806060600260009054906101000a900460ff1660ff16604051908082528060200260200182016040528015612cf95781602001602082028038833980820191505090505b5090506060600260009054906101000a900460ff1660ff16604051908082528060200260200182016040528015612d3f5781602001602082028038833980820191505090505b509050600080905060008090505b600260009054906101000a900460ff1660ff16811015612dcc57600181018483815181101515612d7957fe5b906020019060200201818152505060056000828152602001908152602001600020548383815181101515612da957fe5b906020019060200201818152505081806001019250508080600101915050612d4d565b508282945094505050509091565b600660009054906101000a900473ffffffffffffffffffffffffffffffffffffffff1673ffffffffffffffffffffffffffffffffffffffff1662deb5d6336040518263ffffffff167c0100000000000000000000000000000000000000000000000000000000028152600401612e509190614d37565b602060405180830381600087803b158015612e6a57600080fd5b505af1158015612e7e573d6000803e3d6000fd5b505050506040513d601f19601f82011682018060405250612ea29190810190614556565b1515612ee3576040517f08c379a0000000000000000000000000000000000000000000000000000000008152600401612eda90614ff7565b60405180910390fd5b600260009054906101000a900460ff1660ff1681141515612f39576040517f08c379a0000000000000000000000000000000000000000000000000000000008152600401612f3090614fb7565b60405180910390fd5b60015482101515612f7f576040517f08c379a0000000000000000000000000000000000000000000000000000000008152600401612f7690614fd7565b60405180910390fd5b6000806000600160035403815260200190815260200160002090506000612fa68385611262565b9050600260009054906101000a900460ff1682600a0160006101000a81548160ff021916908360ff16021790555042826000018190555086826005019080519060200190612ff592919061404a565b5060015482600b0181905550600082600901819055506001546000806001840381526020019081526020016000206009018190555088518a51141515613070576040517f08c379a000000000000000000000000000000000000000000000000000000000815260040161306790614f97565b60405180910390fd5b87518a511415156130b6576040517f08c379a00000000000000000000000000000000000000000000000000000000081526004016130ad90614f97565b60405180910390fd5b875189511415156130fc576040517f08c379a00000000000000000000000000000000000000000000000000000000081526004016130f390614f97565b60405180910390fd5b84518651141515613142576040517f08c379a000000000000000000000000000000000000000000000000000000000815260040161313990614f17565b60405180910390fd5b60008090505b8a518160ff1610156132d65760008b8260ff1681518110151561316757fe5b90602001906020020151141515156131b4576040517f08c379a00000000000000000000000000000000000000000000000000000000081526004016131ab90614ef7565b60405180910390fd5b8a8160ff168151811015156131c557fe5b906020019060200201518360010160008360ff16815260200190815260200160002081905550898160ff168151811015156131fc57fe5b906020019060200201518360020160008360ff168152602001908152602001600020908051906020019061323192919061404a565b506000898260ff1681518110151561324557fe5b9060200190602002015114151515613292576040517f08c379a000000000000000000000000000000000000000000000000000000000815260040161328990614eb7565b60405180910390fd5b888160ff168151811015156132a357fe5b906020019060200201518360030160008360ff168152602001908152602001600020819055508080600101915050613148565b5060008090505b86518160ff1610156133d457868160ff168151811015156132fa57fe5b906020019060200201518360060160008360ff168152602001908152602001600020908051906020019061332f92919061404a565b506000868260ff1681518110151561334357fe5b9060200190602002015114151515613390576040517f08c379a000000000000000000000000000000000000000000000000000000000815260040161338790614f57565b60405180910390fd5b858160ff168151811015156133a157fe5b906020019060200201518360070160008360ff1681526020019081526020016000208190555080806001019150506132dd565b50895182600401819055508551826008018190555060016000815480929190600101919050555060036000815480929190600101919050555050505050505050505050565b6000806000808414151515613463576040517f08c379a000000000000000000000000000000000000000000000000000000000815260040161345a90614e97565b60405180910390fd5b600080600090505b600260009054906101000a900460ff1660ff168110156134eb5785600560008381526020019081526020016000205414156134de576001600260009054906101000a900460ff160360ff168110156134c657600191506134cb565b600091505b60018101868394509450945050506134ee565b808060010191505061346b565b50505b9193909250565b606080606080600260009054906101000a900460ff1660ff16851415613a6e5760018514156137ab57600060016003540390506060816040519080825280602002602001820160405280156135595781602001602082028038833980820191505090505b50905060608260405190808252806020026020018201604052801561359257816020015b606081526020019060019003908161357d5790505b5090506060836040519080825280602002602001820160405280156135c65781602001602082028038833980820191505090505b5090506060846040519080825280602002602001820160405280156135fa5781602001602082028038833980820191505090505b509050600080905060008090505b868160ff161015613793576000808260ff16815260200190815260200160002060090154848381518110151561363a57fe5b90602001906020020181815250506000808260ff168152602001908152602001600020600b0154838381518110151561366f57fe5b90602001906020020181815250506000808260ff1681526020019081526020016000206000015486838151811015156136a457fe5b90602001906020020181815250506000808260ff1681526020019081526020016000206005018054600181600116156101000203166002900480601f01602080910402602001604051908101604052809291908181526020018280546001816001161561010002031660029004801561375e5780601f106137335761010080835404028352916020019161375e565b820191906000526020600020905b81548152906001019060200180831161374157829003601f168201915b5050505050858381518110151561377157fe5b9060200190602002018190525081806001019250508080600101915050613608565b5084848484995099509950995050505050505061402a565b600060016004600288038154811015156137c157fe5b9060005260206000200154036001600354030390506060816040519080825280602002602001820160405280156138075781602001602082028038833980820191505090505b50905060608260405190808252806020026020018201604052801561384057816020015b606081526020019060019003908161382b5790505b5090506060836040519080825280602002602001820160405280156138745781602001602082028038833980820191505090505b5090506060846040519080825280602002602001820160405280156138a85781602001602082028038833980820191505090505b509050600080905060006001600460028e038154811015156138c657fe5b90600052602060002001540390505b600160035403811015613a565760008082815260200190815260200160002060000154868381518110151561390657fe5b90602001906020020181815250506000808281526020019081526020016000206005018054600181600116156101000203166002900480601f0160208091040260200160405190810160405280929190818152602001828054600181600116156101000203166002900480156139bd5780601f10613992576101008083540402835291602001916139bd565b820191906000526020600020905b8154815290600101906020018083116139a057829003601f168201915b505050505085838151811015156139d057fe5b90602001906020020181905250600080828152602001908152602001600020600901548483815181101515613a0157fe5b9060200190602002018181525050600080828152602001908152602001600020600b01548383815181101515613a3357fe5b9060200190602002018181525050818060010192505080806001019150506138d5565b5084848484995099509950995050505050505061402a565b600260009054906101000a900460ff1660ff16851015614029576001851415613d385760006001600460018803815481101515613aa757fe5b9060005260206000200154039050606081604051908082528060200260200182016040528015613ae65781602001602082028038833980820191505090505b509050606082604051908082528060200260200182016040528015613b1f57816020015b6060815260200190600190039081613b0a5790505b509050606083604051908082528060200260200182016040528015613b535781602001602082028038833980820191505090505b509050606084604051908082528060200260200182016040528015613b875781602001602082028038833980820191505090505b509050600080905060008090505b868160ff161015613d20576000808260ff168152602001908152602001600020600001548683815181101515613bc757fe5b90602001906020020181815250506000808260ff1681526020019081526020016000206005018054600181600116156101000203166002900480601f016020809104026020016040519081016040528092919081815260200182805460018160011615610100020316600290048015613c815780601f10613c5657610100808354040283529160200191613c81565b820191906000526020600020905b815481529060010190602001808311613c6457829003601f168201915b50505050508583815181101515613c9457fe5b906020019060200201819052506000808260ff168152602001908152602001600020600901548483815181101515613cc857fe5b90602001906020020181815250506000808260ff168152602001908152602001600020600b01548383815181101515613cfd57fe5b906020019060200201818152505081806001019250508080600101915050613b95565b5084848484995099509950995050505050505061402a565b6000600460028703815481101515613d4c57fe5b9060005260206000200154600460018803815481101515613d6957fe5b9060005260206000200154039050606081604051908082528060200260200182016040528015613da85781602001602082028038833980820191505090505b509050606082604051908082528060200260200182016040528015613de157816020015b6060815260200190600190039081613dcc5790505b509050606083604051908082528060200260200182016040528015613e155781602001602082028038833980820191505090505b509050606084604051908082528060200260200182016040528015613e495781602001602082028038833980820191505090505b509050600080905060006001600460028e03815481101515613e6757fe5b90600052602060002001540390505b6001600460018e03815481101515613e8a57fe5b90600052602060002001540381101561401157600080828152602001908152602001600020600001548683815181101515613ec157fe5b90602001906020020181815250506000808281526020019081526020016000206005018054600181600116156101000203166002900480601f016020809104026020016040519081016040528092919081815260200182805460018160011615610100020316600290048015613f785780601f10613f4d57610100808354040283529160200191613f78565b820191906000526020600020905b815481529060010190602001808311613f5b57829003601f168201915b50505050508583815181101515613f8b57fe5b90602001906020020181905250600080828152602001908152602001600020600901548483815181101515613fbc57fe5b9060200190602002018181525050600080828152602001908152602001600020600b01548383815181101515613fee57fe5b906020019060200201818152505081806001019250508080600101915050613e76565b5084848484995099509950995050505050505061402a565b5b9193509193565b3373ffffffffffffffffffffffffffffffffffffffff16ff5b828054600181600116156101000203166002900490600052602060002090601f016020900481019282601f1061408b57805160ff19168380011785556140b9565b828001600101855582156140b9579182015b828111156140b857825182559160200191906001019061409d565b5b5090506140c691906140ca565b5090565b6140ec91905b808211156140e85760008160009055506001016140d0565b5090565b90565b60006140fb823561525d565b905092915050565b600082601f830112151561411657600080fd5b813561412961412482615096565b615069565b9150818183526020840193506020810190508360005b8381101561416f57813586016141558882614212565b84526020840193506020830192505060018101905061413f565b5050505092915050565b600082601f830112151561418c57600080fd5b813561419f61419a826150be565b615069565b915081818352602084019350602081019050838560208402820111156141c457600080fd5b60005b838110156141f457816141da88826142be565b8452602084019350602083019250506001810190506141c7565b5050505092915050565b600061420a825161526f565b905092915050565b600082601f830112151561422557600080fd5b8135614238614233826150e6565b615069565b9150808252602083016020830185838301111561425457600080fd5b61425f8382846152bb565b50505092915050565b600082601f830112151561427b57600080fd5b813561428e61428982615112565b615069565b915080825260208301602083018583830111156142aa57600080fd5b6142b58382846152bb565b50505092915050565b60006142ca823561527b565b905092915050565b6000602082840312156142e457600080fd5b60006142f2848285016140ef565b91505092915050565b60008060008060008060c0878903121561431457600080fd5b600087013567ffffffffffffffff81111561432e57600080fd5b61433a89828a01614179565b965050602087013567ffffffffffffffff81111561435757600080fd5b61436389828a01614103565b955050604087013567ffffffffffffffff81111561438057600080fd5b61438c89828a01614179565b945050606087013567ffffffffffffffff8111156143a957600080fd5b6143b589828a01614268565b935050608087013567ffffffffffffffff8111156143d257600080fd5b6143de89828a01614103565b92505060a087013567ffffffffffffffff8111156143fb57600080fd5b61440789828a01614179565b9150509295509295509295565b600080600080600080600080610100898b03121561443157600080fd5b600089013567ffffffffffffffff81111561444b57600080fd5b6144578b828c01614179565b985050602089013567ffffffffffffffff81111561447457600080fd5b6144808b828c01614103565b975050604089013567ffffffffffffffff81111561449d57600080fd5b6144a98b828c01614179565b965050606089013567ffffffffffffffff8111156144c657600080fd5b6144d28b828c01614268565b955050608089013567ffffffffffffffff8111156144ef57600080fd5b6144fb8b828c01614103565b94505060a089013567ffffffffffffffff81111561451857600080fd5b6145248b828c01614179565b93505060c06145358b828c016142be565b92505060e06145468b828c016142be565b9150509295985092959890939650565b60006020828403121561456857600080fd5b6000614576848285016141fe565b91505092915050565b60006020828403121561459157600080fd5b600061459f848285016142be565b91505092915050565b600080604083850312156145bb57600080fd5b60006145c9858286016142be565b92505060206145da858286016142be565b9150509250929050565b6145ed81615285565b82525050565b60006145fe8261518c565b808452602084019350836020820285016146178561513e565b60005b8481101561465057838303885261463283835161473d565b925061463d826151d9565b915060208801975060018101905061461a565b508196508694505050505092915050565b600061466c82615197565b808452602084019350836020820285016146858561514b565b60005b848110156146be5783830388526146a0838351614806565b92506146ab826151e6565b9150602088019750600181019050614688565b508196508694505050505092915050565b60006146da826151ad565b808452602084019350836020820285016146f385615165565b60005b8481101561472c57838303885261470e838351614870565b925061471982615200565b91506020880197506001810190506146f6565b508196508694505050505092915050565b6000614748826151a2565b8084526020840193508360208202850161476185615158565b60005b8481101561479a57838303885261477c838351614870565b9250614787826151f3565b9150602088019750600181019050614764565b508196508694505050505092915050565b60006147b6826151c3565b8084526020840193506147c88361517f565b60005b828110156147fa576147de868351614d28565b6147e78261521a565b91506020860195506001810190506147cb565b50849250505092915050565b6000614811826151b8565b80845260208401935061482383615172565b60005b8281101561485557614839868351614d28565b6148428261520d565b9150602086019550600181019050614826565b50849250505092915050565b61486a81615227565b82525050565b600061487b826151ce565b80845261488f8160208601602086016152ca565b614898816152fd565b602085010191505092915050565b6000602782527f4e6f6e203f20706f73736962696c6520696e73657269726520756e612064617460208301527f61206e756c6c61000000000000000000000000000000000000000000000000006040830152606082019050919050565b6000603982527f4e6f6e203f20706f73736962696c6520696e73657269726520756e206e756d6560208301527f726f206469206f7265206469206c61766f726f206e756c6c65000000000000006040830152606082019050919050565b6000603082527f4e6f6e20736f6e6f20737461746920696e73657269746920726967686920696e60208301527f2071756573746f2067696f726e616c65000000000000000000000000000000006040830152606082019050919050565b6000603282527f4e6f6e203f20706f73736962696c6520696e73657269726520756e206e756d6560208301527f726f206469206f7065726169206e756c6c6900000000000000000000000000006040830152606082019050919050565b6000604482527f4e6f6e203f20737461746f20696e73657269746f20756e6f2073746573736f2060208301527f6e756d65726f2064692076616c6f726920706572206c652061747472657a7a6160408301527f74757265000000000000000000000000000000000000000000000000000000006060830152608082019050919050565b6000602082527f4c27696e646972697a7a6f207061737361746f206e6f6e203f2076616c69646f6020830152604082019050919050565b6000603882527f4e6f6e203f20706f73736962696c6520696e73657269726520756e206e756d6560208301527f726f2064692061747472657a7a6174757265206e756c6c6f00000000000000006040830152606082019050919050565b6000603982527f4e6f6e203f20706f73736962696c6520696e73657269726520756e206e756d6560208301527f726f206469206f7265206469206c61766f726f206e756c6c6f000000000000006040830152606082019050919050565b6000604182527f4e6f6e203f20737461746f20696e73657269746f20756e6f2073746573736f2060208301527f6e756d65726f2064692076616c6f72692070657220696c20706572736f6e616c60408301527f65000000000000000000000000000000000000000000000000000000000000006060830152608082019050919050565b6000602c82527f496c2067696f726e616c6520696e73657269746f206e6f6e20efbfbd2071756560208301527f6c6c6f20636f7272656e746500000000000000000000000000000000000000006040830152606082019050919050565b6000603b82527f496c206e756d65726f206469207269676f20696e73657269746f206e6f6e20ef60208301527fbfbd20616e636f726120737461746f206573706c6963697461746f00000000006040830152606082019050919050565b6000603b82527f536f6c6f20696c204469726574746f726520646569204c61766f72692070753f60208301527f207574696c697a7a617265207175657374612066756e7a696f6e6500000000006040830152606082019050919050565b614d3181615253565b82525050565b6000602082019050614d4c60008301846145e4565b92915050565b60006060820190508181036000830152614d6c81866145f3565b90508181036020830152614d808185614661565b90508181036040830152614d9481846147ab565b9050949350505050565b60006080820190508181036000830152614db88187614661565b90508181036020830152614dcc81866145f3565b90508181036040830152614de08185614661565b90508181036060830152614df481846147ab565b905095945050505050565b60006080820190508181036000830152614e1981876147ab565b90508181036020830152614e2d81866146cf565b90508181036040830152614e4181856147ab565b90508181036060830152614e5581846147ab565b905095945050505050565b60006040820190508181036000830152614e7a81856147ab565b90508181036020830152614e8e81846147ab565b90509392505050565b60006020820190508181036000830152614eb0816148a6565b9050919050565b60006020820190508181036000830152614ed081614903565b9050919050565b60006020820190508181036000830152614ef081614960565b9050919050565b60006020820190508181036000830152614f10816149bd565b9050919050565b60006020820190508181036000830152614f3081614a1a565b9050919050565b60006020820190508181036000830152614f5081614a9d565b9050919050565b60006020820190508181036000830152614f7081614ad4565b9050919050565b60006020820190508181036000830152614f9081614b31565b9050919050565b60006020820190508181036000830152614fb081614b8e565b9050919050565b60006020820190508181036000830152614fd081614c11565b9050919050565b60006020820190508181036000830152614ff081614c6e565b9050919050565b6000602082019050818103600083015261501081614ccb565b9050919050565b600060208201905061502c6000830184614d28565b92915050565b60006060820190506150476000830186614d28565b6150546020830185614d28565b6150616040830184614861565b949350505050565b6000604051905081810181811067ffffffffffffffff8211171561508c57600080fd5b8060405250919050565b600067ffffffffffffffff8211156150ad57600080fd5b602082029050602081019050919050565b600067ffffffffffffffff8211156150d557600080fd5b602082029050602081019050919050565b600067ffffffffffffffff8211156150fd57600080fd5b601f19601f8301169050602081019050919050565b600067ffffffffffffffff82111561512957600080fd5b601f19601f8301169050602081019050919050565b6000602082019050919050565b6000602082019050919050565b6000602082019050919050565b6000602082019050919050565b6000602082019050919050565b6000602082019050919050565b600081519050919050565b600081519050919050565b600081519050919050565b600081519050919050565b600081519050919050565b600081519050919050565b600081519050919050565b6000602082019050919050565b6000602082019050919050565b6000602082019050919050565b6000602082019050919050565b6000602082019050919050565b6000602082019050919050565b60008115159050919050565b600073ffffffffffffffffffffffffffffffffffffffff82169050919050565b6000819050919050565b600061526882615233565b9050919050565b60008115159050919050565b6000819050919050565b600061529082615297565b9050919050565b60006152a2826152a9565b9050919050565b60006152b482615233565b9050919050565b82818337600083830152505050565b60005b838110156152e85780820151818401526020810190506152cd565b838111156152f7576000848401525b50505050565b6000601f19601f830116905091905056fea265627a7a7230582025b32d63481a96193c856e2d6679f65e5afe83a761e39fb2af4fb2a4da630ad26c6578706572696d656e74616cf50037",
  "source": "pragma solidity ^0.5.0;\npragma experimental ABIEncoderV2;\n\nimport \"./Misure.sol\";\n\ncontract Giornale {\n\n    struct GiornaleDeiLavori {\n        uint data_giornale;\n        mapping (uint => uint) quantita_personale;\n        mapping (uint => string) qualita_personale;\n        mapping (uint => uint) ore_presenza_personale;\n        uint quanto_personale; // serve a contenere il numero di personale inserito per ogni rigo\n        string descrizione_giornale;\n        mapping (uint => string) attrezzature_utilizzate;\n        mapping (uint => uint) quantita_attrezzatura;\n        uint quante_attrezzature; // serve per contenere il numero di attrezzature inserite per ogni rigo\n        uint sovrascritto; // indica il numero del rigo del giornale che sovrascrive questo rigo di giornale\n        uint8 giornale; // indica il numero del giornale\n        uint numero_giornale; // indica il rigo di quel giornale\n    }\n    \n    mapping (uint => GiornaleDeiLavori) private giornali;\n    uint private numero_rigo = 1;\n    uint8 private giornale = 1; \n    uint private numero_totale_giornali = 1; // in realt? ? il numero totale di righi di tutti i giornali\n    uint[] private righi_max; // serve per contenere il numero massimo di righi che si ha per ogni numero di giornale\n    \n    mapping(uint => uint) private data;\n\n\n    // a partire dal numero di giornale e dal rigo del giornale, restituisce il rigo complessivo rispetto a tutti i giornali\n    function getRigoGiornale(uint _giornale, uint _rigo) public returns(uint) {\n        for (uint i = 0; i < (numero_totale_giornali - 1); i++) {\n            if (giornali[i].giornale == _giornale && giornali[i].numero_giornale == _rigo) {\n                return (i + 1);\n            }\n        }\n    }\n\n\n    // a partire da una certa data, restituisce il numero di giornale e se ? terminato o meno\n    // ovvero se il DL ha utilizzato la funzione finishGiornale\n    function getGiornaleData (uint _data) public returns(uint, uint , bool) {\n        require (_data != 0, \"Non ? possibile inserire una data nulla\");\n        bool term;\n        for (uint i = 0; i < giornale; i++) {\n            if (data[i] == _data) {\n                if (i < (giornale - 1)) {\n                    term = true;\n                }\n                else {\n                    term = false;\n                }\n                return (i+1, _data, term);\n            }\n        }\n    }\n    \n    // se non viene passata una data, si restituisce la lista dei giornali con la data \n    function getGiornaleData() public returns(uint[] memory, uint[] memory) {\n        \n        uint[] memory gio = new uint[](giornale);\n        uint[] memory date = new uint[](giornale);\n        \n        uint cont = 0;\n        \n        for (uint i = 0; i < giornale; i++) {\n            gio[cont] = i+1;\n            date[cont] = data[i];\n            cont++;\n        }\n        return(gio, date);\n    }\n    \n\n    // serve per incrementare il numero di giornale, cio? quando si conclude l immissione di dati in quella giornata\n    // si invrementa il numero del giornale e si riporta a uno il numero di righi di quel giornale\n    // quindi il prossimo rigo che verr? inserito sar? il rigo numero 1 di un nuovo giornale\n    function finishGiornale () public onlyDirettoreLavori{ \n        // controlla che sia stato inserito almeno un rigo per quel giornale prima di poterlo terminare\n        require (numero_rigo > 1, \"Non sono stati inseriti righi in questo giornale\");\n        righi_max.push(numero_totale_giornali); // setta il numero di righi max per quel giornale\n        numero_rigo = 1;\n        giornale++;\n    }\n    \n\n    // PUO ESSERE FATTA SOLO PRIMA CHE IL DL ABBIA TERMINATO QUEL GIORNALE, CIOE SIA STATA CHIAMATA LA FUNZIONE finishGiornale    \n    // serve per modificare il rigo di un GiornaleDeiLavori\n    // il numero del nuovo rigo sar? inserito nel campo sovrascritto del vecchio rigo\n    function updateGiornale (uint[] memory _quantita, string[] memory _qualita, uint[] memory _ore,\n    string memory _descrizione, string[] memory _attrezzature, uint[] memory _quantita_attr, uint _numero,\n    uint _numero_documento) public onlyDirettoreLavori { \n        // si richiede che il giornale inserito sia quello corrente\n        require(_numero_documento == giornale, \"Il giornale inserito non  quello corrente\");\n        // si richiede che il rigo inserito sia stato gi inserito\n        require(_numero < numero_rigo, \"Il numero di rigo inserito non  ancora stato esplicitato\");\n        \n        // non puo essere fatto l update giornale se il DL ha gia concluso quel giornale con il finishGiornale\n        // quindi viene fatto il controllo che il numero di quel giornale corrisponde al numero attuale del giornale\n        GiornaleDeiLavori storage g = giornali[numero_totale_giornali - 1];\n        uint rigo = getRigoGiornale(_numero_documento, _numero);\n        \n        g.giornale = giornale;\n        g.data_giornale = now;\n        g.descrizione_giornale = _descrizione;\n        g.numero_giornale = numero_rigo;\n        g.sovrascritto = 0;\n        giornali[rigo - 1].sovrascritto = numero_rigo; // setta il rigo che viene sovrascritto con il rigo che lo sovrascrive\n        \n        // controlla che la quantita_personale inserita, la qualita_personale e le ore_presenza_personale siano uguali\n        // in modo che non possano essere inseriti dati in piu o in meno di quelli richiesti\n        // ad esempio non si possono inserire delle ore per un personale insesistente\n        require(_quantita.length == _qualita.length, \"Non ? stato inserito uno stesso numero di valori per il personale\");\n        require(_quantita.length == _ore.length, \"Non ? stato inserito uno stesso numero di valori per il personale\");\n        require(_qualita.length == _ore.length, \"Non ? stato inserito uno stesso numero di valori per il personale\");\n        \n        // stesso discorso per le attrezzature_utilizzate e la quantita_attrezzatura\n        require(_attrezzature.length == _quantita_attr.length, \"Non ? stato inserito uno stesso numero di valori per le attrezzature\");\n        \n        // sono necessari cicli for per inserire all interno del mapping\n        // ho fatto 2 cicli for perche la lunghezza dei vari array potrebbe essere diversa\n        // per il discorso dei require sopra, alcuni assegnamenti possono essere fatti in un ciclo unico\n        for (uint8 i = 0; i < _quantita.length; i++) {\n            require(_quantita[i] != 0, \"Non ? possibile inserire un numero di operai nulli\");\n            g.quantita_personale[i] = _quantita[i];\n            g.qualita_personale[i] = _qualita[i];\n            require(_ore[i] != 0, \"Non ? possibile inserire un numero di ore di lavoro nulle\");\n            g.ore_presenza_personale[i] = _ore[i];\n        }\n        for (uint8 i = 0; i < _attrezzature.length; i++) {\n            g.attrezzature_utilizzate[i] = _attrezzature[i];\n            require(_quantita_attr[i] != 0, \"Non ? possibile inserire un numero di attrezzature nullo\");\n            g.quantita_attrezzatura[i] = _quantita_attr[i];\n        }\n        g.quanto_personale = _quantita.length;\n        g.quante_attrezzature = _attrezzature.length;\n        numero_rigo++;\n        numero_totale_giornali++;\n    }\n\n    \n    // serve al DL per inserire il giornale\n    function insertGiornale(uint[] memory _quantita, string[] memory _qualita, uint[] memory _ore,\n    string memory _descrizione, string[] memory _attrezzature, uint[] memory _quantita_attr) public onlyDirettoreLavori { \n        GiornaleDeiLavori storage g = giornali[numero_totale_giornali - 1];\n        g.data_giornale = now;\n        g.descrizione_giornale = _descrizione;\n        g.sovrascritto = 0; \n        g.numero_giornale = numero_rigo;\n        g.giornale = giornale; // setta il numero del giornale che si sta scrivendo\n        \n        // controlla che la quantita_personale inserita, la qualita_personale e le ore_presenza_personale siano uguali\n        // in modo che non possano essere inseriti dati in piu o in meno di quelli richiesti\n        // ad esempio non si possono inserire delle ore per un personale insesistente\n        require(_quantita.length == _qualita.length, \"Non ? stato inserito uno stesso numero di valori per il personale\");\n        require(_quantita.length == _ore.length, \"Non ? stato inserito uno stesso numero di valori per il personale\");\n        require(_qualita.length == _ore.length, \"Non ? stato inserito uno stesso numero di valori per il personale\");\n        \n        // stesso discorso per le attrezzature_utilizzate e la quantita_attrezzatura\n        require(_attrezzature.length == _quantita_attr.length, \"Non ? stato inserito uno stesso numero di valori per le attrezzature\");\n        \n        // sono necessari cicli for per inserire all interno del mapping\n        // ho fatto 2 cicli for perche la lunghezza dei vari array potrebbe essere diversa\n        // per il discorso dei require sopra, alcuni assegnamenti possono essere fatti in un ciclo unico\n        for (uint8 i = 0; i < _quantita.length; i++) {\n            require(_quantita[i] != 0, \"Non ? possibile inserire un numero di operai nulli\");\n            g.quantita_personale[i] = _quantita[i]; \n            g.qualita_personale[i] = _qualita[i]; \n            require(_ore[i] != 0, \"Non ? possibile inserire un numero di ore di lavoro nullo\");\n            g.ore_presenza_personale[i] = _ore[i];     \n        }\n        for (uint8 i = 0; i < _attrezzature.length; i++) {\n            g.attrezzature_utilizzate[i] = _attrezzature[i];\n            require(_quantita_attr[i] != 0, \"Non ? possibile inserire un numero di attrezzature nullo\");\n            g.quantita_attrezzatura[i] = _quantita_attr[i];   \n        }\n        g.quanto_personale = _quantita.length;\n        g.quante_attrezzature = _attrezzature.length;\n        numero_rigo++;\n        numero_totale_giornali++;\n        \n        // se la data per quel giornale ? a 0 significa che ancora non ? stato scritto nulla per quel giornale, quindi viene instanziata\n        if (data[giornale - 1] == 0) {\n            data[giornale - 1] = now;\n        }\n    }\n    \n    \n    function get1(uint _giornale) public returns(uint[][] memory, string[][] memory, uint[][] memory, uint[] memory) {\n        if (_giornale == giornale) {\n            if (_giornale == 1) {\n                uint lunghezza = (numero_totale_giornali - 1);\n                \n                uint[][] memory quantita_perso = new uint[][](lunghezza);\n                string[][] memory qualita_perso = new string[][](lunghezza);\n                uint[][] memory ore = new uint[][](lunghezza);\n                uint[] memory quanto = new uint[](lunghezza); \n                \n                uint cont = 0;\n                \n                for (uint8 j = 0; j < lunghezza; j++) {\n                    quanto[cont] = giornali[j].quanto_personale;\n                    \n                    \n                    uint[] memory temp1 = new uint[](quanto[cont]);\n                    string[] memory temp2 = new string[](quanto[cont]);\n                    uint[] memory temp3 = new uint[](quanto[cont]);\n                    \n                    for (uint8 k = 0; k < quanto[cont]; k++) {\n                        temp1[k] = giornali[j].quantita_personale[k];\n                        temp2[k] = giornali[j].qualita_personale[k];\n                        temp3[k] = giornali[j].ore_presenza_personale[k];\n                    }\n                    \n                    quantita_perso[cont] = temp1;\n                    qualita_perso[cont] = temp2;\n                    ore[cont] = temp3;\n                    \n                    cont++;\n                }\n                return (quantita_perso, qualita_perso, ore, quanto);\n            }\n            else {\n                uint lunghezza = ((numero_totale_giornali - 1) - (righi_max[_giornale - 2] - 1));\n                \n                uint[][] memory quantita_perso = new uint[][](lunghezza);\n                string[][] memory qualita_perso = new string[][](lunghezza);\n                uint[][] memory ore = new uint[][](lunghezza);\n                uint[] memory quanto = new uint[](lunghezza); \n                \n                uint cont = 0;\n                \n                for (uint j = (righi_max[_giornale - 2] - 1); j < (numero_totale_giornali - 1); j++) {\n                    quanto[cont] = giornali[j].quanto_personale;\n                    \n                    uint[] memory temp1 = new uint[](quanto[cont]);\n                    string[] memory temp2 = new string[](quanto[cont]);\n                    uint[] memory temp3 = new uint[](quanto[cont]);\n                    \n                    for (uint8 k = 0; k < quanto[cont]; k++) {\n                        temp1[k] = giornali[j].quantita_personale[k];\n                        temp2[k] = giornali[j].qualita_personale[k];\n                        temp3[k] = giornali[j].ore_presenza_personale[k];\n                    }\n                    \n                    quantita_perso[cont] = temp1;\n                    qualita_perso[cont] = temp2;\n                    ore[cont] = temp3;\n                    \n                    cont++;\n                }  \n                return (quantita_perso, qualita_perso, ore, quanto);\n            }\n        }\n        else if (_giornale < giornale) {\n            if (_giornale == 1) {\n                uint lunghezza = righi_max[_giornale - 1] - 1;\n                \n                uint[][] memory quantita_perso = new uint[][](lunghezza);\n                string[][] memory qualita_perso = new string[][](lunghezza);\n                uint[][] memory ore = new uint[][](lunghezza);\n                uint[] memory quanto = new uint[](lunghezza); \n                \n                uint cont = 0;\n                \n                for (uint8 j = 0; j < lunghezza; j++) {\n                    quanto[cont] = giornali[j].quanto_personale;\n                    \n                    uint[] memory temp1 = new uint[](quanto[cont]);\n                    string[] memory temp2 = new string[](quanto[cont]);\n                    uint[] memory temp3 = new uint[](quanto[cont]);\n                    \n                    for (uint8 k = 0; k < quanto[cont]; k++) {\n                        temp1[k] = giornali[j].quantita_personale[k];\n                        temp2[k] = giornali[j].qualita_personale[k];\n                        temp3[k] = giornali[j].ore_presenza_personale[k];\n                    }\n                    \n                    quantita_perso[cont] = temp1;\n                    qualita_perso[cont] = temp2;\n                    ore[cont] = temp3;\n                    \n                    cont++;\n                }\n                return (quantita_perso, qualita_perso, ore, quanto);\n            }\n            else {\n                uint lunghezza = righi_max[_giornale - 1] - righi_max[_giornale - 2];\n                \n                uint[][] memory quantita_perso = new uint[][](lunghezza);\n                string[][] memory qualita_perso = new string[][](lunghezza);\n                uint[][] memory ore = new uint[][](lunghezza);\n                uint[] memory quanto = new uint[](lunghezza); \n                \n                uint cont = 0;\n                \n                for (uint j = (righi_max[_giornale - 2] - 1); j < (righi_max[_giornale - 1] - 1); j++) {\n                    quanto[cont] = giornali[j].quanto_personale;\n                    \n                    uint[] memory temp1 = new uint[](quanto[cont]);\n                    string[] memory temp2 = new string[](quanto[cont]);\n                    uint[] memory temp3 = new uint[](quanto[cont]);\n                    \n                    for (uint8 k = 0; k < quanto[cont]; k++) {\n                        temp1[k] = giornali[j].quantita_personale[k];\n                        temp2[k] = giornali[j].qualita_personale[k];\n                        temp3[k] = giornali[j].ore_presenza_personale[k];\n                    }\n                    \n                    quantita_perso[cont] = temp1;\n                    qualita_perso[cont] = temp2;\n                    ore[cont] = temp3;\n                    \n                    cont++;\n                }\n                return (quantita_perso, qualita_perso, ore, quanto);\n            }\n        }\n    }\n    \n    \n    function get2(uint _giornale) public returns(string[][] memory, uint[][] memory, uint[] memory) {\n        if (_giornale == giornale) {\n            if (_giornale == 1) {\n                uint lunghezza = (numero_totale_giornali - 1);\n                \n                string[][] memory attrezz = new string[][](lunghezza);\n                uint[][] memory quantita_att = new uint[][](lunghezza);\n                uint[] memory quante = new uint[](lunghezza);\n                \n                uint cont = 0;\n                \n                for (uint8 j = 0; j < lunghezza; j++) {\n                    quante[cont] = giornali[j].quante_attrezzature;\n                    \n                    string[] memory temp1 = new string[](quante[cont]);\n                    uint[] memory temp2 = new uint[](quante[cont]);\n                    \n                    for (uint8 k = 0; k < quante[cont]; k++) {\n                        temp1[k] = giornali[j].attrezzature_utilizzate[k];\n                        temp2[k] = giornali[j].quantita_attrezzatura[k];\n                    }\n                    \n                    attrezz[cont] = temp1;\n                    quantita_att[cont] = temp2;\n                    \n                    cont++;\n                }\n                return (attrezz, quantita_att, quante);\n            }\n            else {\n                uint lunghezza = ((numero_totale_giornali - 1) - (righi_max[_giornale - 2] - 1));\n                \n                string[][] memory attrezz = new string[][](lunghezza);\n                uint[][] memory quantita_att = new uint[][](lunghezza);\n                uint[] memory quante = new uint[](lunghezza);\n                \n                uint cont = 0;\n                \n                for (uint j = (righi_max[_giornale - 2] - 1); j < (numero_totale_giornali - 1); j++) {\n                    quante[cont] = giornali[j].quante_attrezzature;\n                    \n                    string[] memory temp1 = new string[](quante[cont]);\n                    uint[] memory temp2 = new uint[](quante[cont]);\n                    \n                    for (uint8 k = 0; k < quante[cont]; k++) {\n                        temp1[k] = giornali[j].attrezzature_utilizzate[k];\n                        temp2[k] = giornali[j].quantita_attrezzatura[k];\n                    }\n                    \n                    attrezz[cont] = temp1;\n                    quantita_att[cont] = temp2;\n                    \n                    cont++;\n                }\n                return (attrezz, quantita_att, quante);\n            }\n        }\n        else if (_giornale < giornale) {\n            if (_giornale == 1) {\n                uint lunghezza = righi_max[_giornale - 1] - 1;\n                \n                string[][] memory attrezz = new string[][](lunghezza);\n                uint[][] memory quantita_att = new uint[][](lunghezza);\n                uint[] memory quante = new uint[](lunghezza);\n                \n                uint cont = 0;\n                \n                for (uint8 j = 0; j < lunghezza; j++) {\n                    quante[cont] = giornali[j].quante_attrezzature;\n                    \n                    string[] memory temp1 = new string[](quante[cont]);\n                    uint[] memory temp2 = new uint[](quante[cont]);\n                    \n                    for (uint8 k = 0; k < quante[cont]; k++) {\n                        temp1[k] = giornali[j].attrezzature_utilizzate[k];\n                        temp2[k] = giornali[j].quantita_attrezzatura[k];\n                    }\n                    \n                    attrezz[cont] = temp1;\n                    quantita_att[cont] = temp2;\n                    \n                    cont++;\n                }\n                return (attrezz, quantita_att, quante);\n            }\n            else {\n                uint lunghezza = righi_max[_giornale - 1] - righi_max[_giornale - 2];\n                \n                string[][] memory attrezz = new string[][](lunghezza);\n                uint[][] memory quantita_att = new uint[][](lunghezza);\n                uint[] memory quante = new uint[](lunghezza);\n                \n                uint cont = 0;\n                \n                for (uint j = (righi_max[_giornale - 2] - 1); j < (righi_max[_giornale - 1] - 1); j++) {\n                    quante[cont] = giornali[j].quante_attrezzature;\n                    \n                    string[] memory temp1 = new string[](quante[cont]);\n                    uint[] memory temp2 = new uint[](quante[cont]);\n                    \n                    for (uint8 k = 0; k < quante[cont]; k++) {\n                        temp1[k] = giornali[j].attrezzature_utilizzate[k];\n                        temp2[k] = giornali[j].quantita_attrezzatura[k];\n                    }\n                    \n                    attrezz[cont] = temp1;\n                    quantita_att[cont] = temp2;\n                    \n                    cont++;\n                }\n                return (attrezz, quantita_att, quante);\n            }\n        }\n    }\n    \n    \n    function get3(uint _giornale) public returns(uint[] memory, string[] memory, uint[] memory, uint[] memory) {\n        if (_giornale == giornale) {\n            if (_giornale == 1) {\n                uint lunghezza = (numero_totale_giornali - 1);\n                \n                uint[] memory date = new uint[](lunghezza);\n                string[] memory descriz = new string[](lunghezza);\n                uint[] memory sovra = new uint[](lunghezza);\n                uint[] memory rigo = new uint[](lunghezza);\n                \n                uint cont = 0;\n                \n                for (uint8 j = 0; j < lunghezza; j++) {\n                    sovra[cont] = giornali[j].sovrascritto;\n                    rigo[cont] = giornali[j].numero_giornale;\n                    date[cont] = giornali[j].data_giornale;\n                    descriz[cont] = giornali[j].descrizione_giornale;\n                    \n                    \n                    cont++;\n                }\n                return (date, descriz, sovra, rigo);\n            }\n            else {\n                uint lunghezza = ((numero_totale_giornali - 1) - (righi_max[_giornale - 2] - 1));\n                \n                uint[] memory date = new uint[](lunghezza);\n                string[] memory descriz = new string[](lunghezza);\n                uint[] memory sovra = new uint[](lunghezza);\n                uint[] memory rigo = new uint[](lunghezza);\n                \n                uint cont = 0;\n                \n                for (uint j = (righi_max[_giornale - 2] - 1); j < (numero_totale_giornali - 1); j++) {\n                    date[cont] = giornali[j].data_giornale;\n                    descriz[cont] = giornali[j].descrizione_giornale;\n                    sovra[cont] = giornali[j].sovrascritto;\n                    rigo[cont] = giornali[j].numero_giornale;\n                    \n                    cont++;\n                }\n                return (date, descriz, sovra, rigo);\n            }\n        }\n        else if (_giornale < giornale) {\n            if (_giornale == 1) {\n                uint lunghezza = righi_max[_giornale - 1] - 1;\n                \n                uint[] memory date = new uint[](lunghezza);\n                string[] memory descriz = new string[](lunghezza);\n                uint[] memory sovra = new uint[](lunghezza);\n                uint[] memory rigo = new uint[](lunghezza);\n                \n                uint cont = 0;\n                \n                for (uint8 j = 0; j < lunghezza; j++) {\n                    date[cont] = giornali[j].data_giornale;\n                    descriz[cont] = giornali[j].descrizione_giornale;\n                    sovra[cont] = giornali[j].sovrascritto;\n                    rigo[cont] = giornali[j].numero_giornale;\n                    \n                    cont++;\n                }\n                return (date, descriz, sovra, rigo);\n            }\n            else {\n                uint lunghezza = righi_max[_giornale - 1] - righi_max[_giornale - 2];\n                \n                uint[] memory date = new uint[](lunghezza);\n                string[] memory descriz = new string[](lunghezza);\n                uint[] memory sovra = new uint[](lunghezza);\n                uint[] memory rigo = new uint[](lunghezza);\n                \n                uint cont = 0;\n                \n                for (uint j = (righi_max[_giornale - 2] - 1); j < (righi_max[_giornale - 1] - 1); j++) {\n                    date[cont] = giornali[j].data_giornale;\n                    descriz[cont] = giornali[j].descrizione_giornale;\n                    sovra[cont] = giornali[j].sovrascritto;\n                    rigo[cont] = giornali[j].numero_giornale;\n                    \n                    cont++;\n                }\n                return (date, descriz, sovra, rigo);\n            }\n        }\n    }\n    \n    \n    Misure m;\n    address private indirizzoMisure;\n    \n    function setIndirizzoMisure (address _indirizzo) public {\n        require(_indirizzo != address(0), \"L'indirizzo passato non ? valido\");\n        indirizzoMisure = _indirizzo;\n        m = Misure(indirizzoMisure);\n    }\n    \n    \n    modifier onlyDirettoreLavori {\n        // solo il Direttore dei Lavori pu? utilizzare questa funzione\n        require(\n            m.enableDL(msg.sender), \"Solo il Direttore dei Lavori pu? utilizzare questa funzione\"\n        );\n        _; //indica dove deve essere posta la funzione chiamata\n    } \n    \n    function killGiornale() public {\n        selfdestruct(msg.sender);\n    }\n}\n",
  "sourcePath": "/Users/roby/Desktop/ServerIds/truffle/contracts/Giornale.sol",
  "compiler": {
    "name": "solc",
    "version": "0.5.0+commit.1d4f565a.Emscripten.clang"
  },
  "schemaVersion": "3.0.8",
  "updatedAt": "2019-09-06T09:37:53.677Z",
  "devdoc": {
    "methods": {}
  },
  "userdoc": {
    "methods": {}
  }
}