{
  "contractName": "Libretto",
  "abi": [
    {
      "constant": false,
      "inputs": [
        {
          "name": "_libretto",
          "type": "uint256"
        }
      ],
      "name": "getRighiMaxLibretto",
      "outputs": [
        {
          "name": "",
          "type": "uint256"
        }
      ],
      "payable": false,
      "stateMutability": "nonpayable",
      "type": "function",
      "signature": "0xd64b201c"
    },
    {
      "constant": false,
      "inputs": [],
      "name": "getLibretto",
      "outputs": [
        {
          "name": "",
          "type": "uint256"
        }
      ],
      "payable": false,
      "stateMutability": "nonpayable",
      "type": "function",
      "signature": "0x555292f1"
    },
    {
      "constant": false,
      "inputs": [
        {
          "name": "_data",
          "type": "uint256"
        }
      ],
      "name": "getLibrettoData",
      "outputs": [
        {
          "name": "",
          "type": "uint256"
        },
        {
          "name": "",
          "type": "uint256"
        },
        {
          "name": "",
          "type": "bool"
        }
      ],
      "payable": false,
      "stateMutability": "nonpayable",
      "type": "function",
      "signature": "0xbb0224f3"
    },
    {
      "constant": false,
      "inputs": [],
      "name": "getLibrettoData",
      "outputs": [
        {
          "name": "",
          "type": "uint256[]"
        },
        {
          "name": "",
          "type": "uint256[]"
        }
      ],
      "payable": false,
      "stateMutability": "nonpayable",
      "type": "function",
      "signature": "0xc254a753"
    },
    {
      "constant": false,
      "inputs": [
        {
          "name": "_libretto",
          "type": "uint256"
        },
        {
          "name": "_rigo",
          "type": "uint256"
        }
      ],
      "name": "getRigoLibretto",
      "outputs": [
        {
          "name": "",
          "type": "uint256"
        }
      ],
      "payable": false,
      "stateMutability": "nonpayable",
      "type": "function",
      "signature": "0x431e50a4"
    },
    {
      "constant": false,
      "inputs": [],
      "name": "finishLibretto",
      "outputs": [],
      "payable": false,
      "stateMutability": "nonpayable",
      "type": "function",
      "signature": "0x2d2dbd27"
    },
    {
      "constant": false,
      "inputs": [
        {
          "name": "_libretto",
          "type": "uint256"
        },
        {
          "name": "_rigo",
          "type": "uint256"
        }
      ],
      "name": "findCodice",
      "outputs": [
        {
          "name": "",
          "type": "string"
        }
      ],
      "payable": false,
      "stateMutability": "nonpayable",
      "type": "function",
      "signature": "0x7d98d774"
    },
    {
      "constant": false,
      "inputs": [
        {
          "name": "_codice",
          "type": "string"
        },
        {
          "name": "_libretto",
          "type": "uint256"
        }
      ],
      "name": "checkSameCodice",
      "outputs": [
        {
          "name": "",
          "type": "bool"
        }
      ],
      "payable": false,
      "stateMutability": "nonpayable",
      "type": "function",
      "signature": "0x42829355"
    },
    {
      "constant": false,
      "inputs": [
        {
          "name": "_codice",
          "type": "string"
        },
        {
          "name": "_percentuale",
          "type": "uint256"
        }
      ],
      "name": "checkMaggiorePercentuale",
      "outputs": [
        {
          "name": "",
          "type": "bool"
        }
      ],
      "payable": false,
      "stateMutability": "nonpayable",
      "type": "function",
      "signature": "0x6ded850e"
    },
    {
      "constant": false,
      "inputs": [
        {
          "name": "_codice",
          "type": "string"
        },
        {
          "name": "_descrizione",
          "type": "string"
        },
        {
          "name": "_percentuale",
          "type": "uint256"
        },
        {
          "name": "_allegato",
          "type": "string[]"
        }
      ],
      "name": "addLibretto",
      "outputs": [],
      "payable": false,
      "stateMutability": "nonpayable",
      "type": "function",
      "signature": "0xfbf63fb5"
    },
    {
      "constant": false,
      "inputs": [
        {
          "name": "_numero",
          "type": "uint256"
        },
        {
          "name": "_libretto",
          "type": "uint256"
        },
        {
          "name": "_codice",
          "type": "string"
        },
        {
          "name": "_descrizione",
          "type": "string"
        },
        {
          "name": "_percentuale",
          "type": "uint256"
        },
        {
          "name": "_allegato",
          "type": "string[]"
        }
      ],
      "name": "updateLibretto",
      "outputs": [],
      "payable": false,
      "stateMutability": "nonpayable",
      "type": "function",
      "signature": "0x8301bb82"
    },
    {
      "constant": false,
      "inputs": [
        {
          "name": "_libretto",
          "type": "uint256"
        }
      ],
      "name": "checkLibrettoOk",
      "outputs": [
        {
          "name": "",
          "type": "bool"
        }
      ],
      "payable": false,
      "stateMutability": "nonpayable",
      "type": "function",
      "signature": "0x5fe10b00"
    },
    {
      "constant": false,
      "inputs": [
        {
          "name": "_rigo_libretto",
          "type": "uint256"
        },
        {
          "name": "_libretto",
          "type": "uint256"
        }
      ],
      "name": "insertFirmaDittaLibretto",
      "outputs": [],
      "payable": false,
      "stateMutability": "nonpayable",
      "type": "function",
      "signature": "0xea5479db"
    },
    {
      "constant": false,
      "inputs": [
        {
          "name": "_rigo_libretto",
          "type": "uint256"
        },
        {
          "name": "_libretto",
          "type": "uint256"
        }
      ],
      "name": "insertFirmaRiservaDittaLibretto",
      "outputs": [],
      "payable": false,
      "stateMutability": "nonpayable",
      "type": "function",
      "signature": "0x689f1036"
    },
    {
      "constant": false,
      "inputs": [
        {
          "name": "_libretto",
          "type": "uint256"
        }
      ],
      "name": "findRighiLibretto",
      "outputs": [
        {
          "name": "",
          "type": "uint256[]"
        }
      ],
      "payable": false,
      "stateMutability": "nonpayable",
      "type": "function",
      "signature": "0x0e824f41"
    },
    {
      "constant": false,
      "inputs": [
        {
          "name": "_rigo",
          "type": "uint256"
        }
      ],
      "name": "checkSovrascritto",
      "outputs": [
        {
          "name": "",
          "type": "bool"
        }
      ],
      "payable": false,
      "stateMutability": "nonpayable",
      "type": "function",
      "signature": "0x0d4c9fdd"
    },
    {
      "constant": false,
      "inputs": [
        {
          "name": "_libretto",
          "type": "uint256"
        }
      ],
      "name": "getLibretti1",
      "outputs": [
        {
          "name": "",
          "type": "uint256[]"
        },
        {
          "name": "",
          "type": "string[]"
        },
        {
          "name": "",
          "type": "uint256[]"
        },
        {
          "name": "",
          "type": "uint256[]"
        }
      ],
      "payable": false,
      "stateMutability": "nonpayable",
      "type": "function",
      "signature": "0xc8f9d2c8"
    },
    {
      "constant": false,
      "inputs": [
        {
          "name": "_libretto",
          "type": "uint256"
        }
      ],
      "name": "getLibretti2",
      "outputs": [
        {
          "name": "",
          "type": "string[]"
        },
        {
          "name": "",
          "type": "uint256[]"
        },
        {
          "name": "",
          "type": "string[][]"
        },
        {
          "name": "",
          "type": "uint256[]"
        }
      ],
      "payable": false,
      "stateMutability": "nonpayable",
      "type": "function",
      "signature": "0x910b68b6"
    },
    {
      "constant": false,
      "inputs": [
        {
          "name": "_indirizzo",
          "type": "address"
        }
      ],
      "name": "setIndirizzoFirme",
      "outputs": [],
      "payable": false,
      "stateMutability": "nonpayable",
      "type": "function",
      "signature": "0xd111bfb4"
    },
    {
      "constant": false,
      "inputs": [
        {
          "name": "_indirizzo",
          "type": "address"
        }
      ],
      "name": "setIndirizzoRiserve",
      "outputs": [],
      "payable": false,
      "stateMutability": "nonpayable",
      "type": "function",
      "signature": "0x6fff351c"
    },
    {
      "constant": false,
      "inputs": [
        {
          "name": "_indirizzo",
          "type": "address"
        }
      ],
      "name": "setIndirizzoMisure",
      "outputs": [],
      "payable": false,
      "stateMutability": "nonpayable",
      "type": "function",
      "signature": "0x14481ad6"
    },
    {
      "constant": false,
      "inputs": [],
      "name": "killLibretto",
      "outputs": [],
      "payable": false,
      "stateMutability": "nonpayable",
      "type": "function",
      "signature": "0xc1343a36"
    }
  ],
  "bytecode": "0x6080604052600180556001600255600160035534801561001e57600080fd5b50615c8f806200002f6000396000f3fe608060405260043610610128576000357c0100000000000000000000000000000000000000000000000000000000900463ffffffff1680630d4c9fdd1461012d5780630e824f411461016a57806314481ad6146101a75780632d2dbd27146101d057806342829355146101e7578063431e50a414610224578063555292f1146102615780635fe10b001461028c578063689f1036146102c95780636ded850e146102f25780636fff351c1461032f5780637d98d774146103585780638301bb8214610395578063910b68b6146103be578063bb0224f3146103fe578063c1343a361461043d578063c254a75314610454578063c8f9d2c814610480578063d111bfb4146104c0578063d64b201c146104e9578063ea5479db14610526578063fbf63fb51461054f575b600080fd5b34801561013957600080fd5b50610154600480360361014f9190810190614c8a565b610578565b6040516101619190615707565b60405180910390f35b34801561017657600080fd5b50610191600480360361018c9190810190614c8a565b6105aa565b60405161019e919061564d565b60405180910390f35b3480156101b357600080fd5b506101ce60048036036101c991908101906149fb565b6107b2565b005b3480156101dc57600080fd5b506101e56108cb565b005b3480156101f357600080fd5b5061020e60048036036102099190810190614c36565b610a80565b60405161021b9190615707565b60405180910390f35b34801561023057600080fd5b5061024b60048036036102469190810190614cdc565b610cc6565b6040516102589190615974565b60405180910390f35b34801561026d57600080fd5b50610276610d36565b6040516102839190615974565b60405180910390f35b34801561029857600080fd5b506102b360048036036102ae9190810190614c8a565b610d40565b6040516102c09190615707565b60405180910390f35b3480156102d557600080fd5b506102f060048036036102eb9190810190614cdc565b610eb9565b005b3480156102fe57600080fd5b5061031960048036036103149190810190614c36565b611234565b6040516103269190615707565b60405180910390f35b34801561033b57600080fd5b50610356600480360361035191908101906149fb565b611320565b005b34801561036457600080fd5b5061037f600480360361037a9190810190614cdc565b611439565b60405161038c9190615722565b60405180910390f35b3480156103a157600080fd5b506103bc60048036036103b79190810190614d18565b611503565b005b3480156103ca57600080fd5b506103e560048036036103e09190810190614c8a565b611a42565b6040516103f594939291906155ec565b60405180910390f35b34801561040a57600080fd5b5061042560048036036104209190810190614c8a565b612ab6565b604051610434939291906159b8565b60405180910390f35b34801561044957600080fd5b50610452612b72565b005b34801561046057600080fd5b50610469612b8b565b6040516104779291906156d0565b60405180910390f35b34801561048c57600080fd5b506104a760048036036104a29190810190614c8a565b612c82565b6040516104b7949392919061566f565b60405180910390f35b3480156104cc57600080fd5b506104e760048036036104e291908101906149fb565b61379e565b005b3480156104f557600080fd5b50610510600480360361050b9190810190614c8a565b6138b7565b60405161051d9190615974565b60405180910390f35b34801561053257600080fd5b5061054d60048036036105489190810190614cdc565b6138dd565b005b34801561055b57600080fd5b5061057660048036036105719190810190614ae4565b613f41565b005b6000806000808481526020019081526020016000206006015414156105a057600190506105a5565b600090505b919050565b6060600182141561068b57600060016004600185038154811015156105cb57fe5b906000526020600020015403905060608160405190808252806020026020018201604052801561060a5781602001602082028038833980820191505090505b509050600080905060008090505b838160ff16101561067f5761062f8160ff16610578565b15610672576000808260ff16815260200190815260200160002060020154838381518110151561065b57fe5b906020019060200201818152505081806001019250505b8080600101915050610618565b508193505050506107ad565b600060046002840381548110151561069f57fe5b90600052602060002001546004600185038154811015156106bc57fe5b90600052602060002001540390506060816040519080825280602002602001820160405280156106fb5781602001602082028038833980820191505090505b50905060008090506000600160046002880381548110151561071957fe5b90600052602060002001540390505b600160046001880381548110151561073c57fe5b9060005260206000200154038110156107a55761075881610578565b156107985760008082815260200190815260200160002060020154838381518110151561078157fe5b906020019060200201818152505081806001019250505b8080600101915050610728565b508193505050505b919050565b600073ffffffffffffffffffffffffffffffffffffffff168173ffffffffffffffffffffffffffffffffffffffff1614151515610824576040517f08c379a000000000000000000000000000000000000000000000000000000000815260040161081b90615814565b60405180910390fd5b80600b60006101000a81548173ffffffffffffffffffffffffffffffffffffffff021916908373ffffffffffffffffffffffffffffffffffffffff160217905550600b60009054906101000a900473ffffffffffffffffffffffffffffffffffffffff16600a60006101000a81548173ffffffffffffffffffffffffffffffffffffffff021916908373ffffffffffffffffffffffffffffffffffffffff16021790555050565b600a60009054906101000a900473ffffffffffffffffffffffffffffffffffffffff1673ffffffffffffffffffffffffffffffffffffffff1662deb5d6336040518263ffffffff167c010000000000000000000000000000000000000000000000000000000002815260040161094191906155d1565b602060405180830381600087803b15801561095b57600080fd5b505af115801561096f573d6000803e3d6000fd5b505050506040513d601f19601f820116820180604052506109939190810190614abb565b15156109d4576040517f08c379a00000000000000000000000000000000000000000000000000000000081526004016109cb90615954565b60405180910390fd5b60018054111515610a1a576040517f08c379a0000000000000000000000000000000000000000000000000000000008152600401610a1190615914565b60405180910390fd5b42600560006001600254038152602001908152602001600020819055506004600354908060018154018082558091505090600182039060005260206000200160009091929091909150555060026000815480929190600101919050555060018081905550565b60006001821415610b88576000600160035403905060008090505b818160ff161015610b7d57610b606000808360ff1681526020019081526020016000206001018054600181600116156101000203166002900480601f016020809104026020016040519081016040528092919081815260200182805460018160011615610100020316600290048015610b555780601f10610b2a57610100808354040283529160200191610b55565b820191906000526020600020905b815481529060010190602001808311610b3857829003601f168201915b505050505086614601565b15610b7057600092505050610cc0565b8080600101915050610a9b565b506001915050610cc0565b60006001600460028503815481101515610b9e57fe5b90600052602060002001540360016003540303905060006001600460028603815481101515610bc957fe5b90600052602060002001540390505b600160035403811015610cb957610c9c6000808381526020019081526020016000206001018054600181600116156101000203166002900480601f016020809104026020016040519081016040528092919081815260200182805460018160011615610100020316600290048015610c915780601f10610c6657610100808354040283529160200191610c91565b820191906000526020600020905b815481529060010190602001808311610c7457829003601f168201915b505050505086614601565b15610cac57600092505050610cc0565b8080600101915050610bd8565b5060019150505b92915050565b600080600090505b600354811015610d2e578360008083815260200190815260200160002060070154148015610d1057508260008083815260200190815260200160002060020154145b15610d215760018101915050610d30565b8080600101915050610cce565b505b92915050565b6000600254905090565b60006060806060600860009054906101000a900473ffffffffffffffffffffffffffffffffffffffff1673ffffffffffffffffffffffffffffffffffffffff16633a8d476b866040518263ffffffff167c0100000000000000000000000000000000000000000000000000000000028152600401610dbe9190615974565b600060405180830381600087803b158015610dd857600080fd5b505af1158015610dec573d6000803e3d6000fd5b505050506040513d6000823e3d601f19601f82011682018060405250610e159190810190614a24565b92509250925060008090505b8351811015610eab578381815181101515610e3857fe5b906020019060200201511515610e55576000945050505050610eb4565b8281815181101515610e6357fe5b9060200190602002015115610e9e578181815181101515610e8057fe5b906020019060200201511515610e9d576000945050505050610eb4565b5b8080600101915050610e21565b50600193505050505b919050565b600a60009054906101000a900473ffffffffffffffffffffffffffffffffffffffff1673ffffffffffffffffffffffffffffffffffffffff16638204933c336040518263ffffffff167c0100000000000000000000000000000000000000000000000000000000028152600401610f3091906155d1565b602060405180830381600087803b158015610f4a57600080fd5b505af1158015610f5e573d6000803e3d6000fd5b505050506040513d601f19601f82011682018060405250610f829190810190614abb565b1515610fc3576040517f08c379a0000000000000000000000000000000000000000000000000000000008152600401610fba90615934565b60405180910390fd5b80600254111515611009576040517f08c379a0000000000000000000000000000000000000000000000000000000008152600401611000906158d4565b60405180910390fd5b60006110158284610cc6565b9050600080600060018403815260200190815260200160002060060154141515611074576040517f08c379a000000000000000000000000000000000000000000000000000000000815260040161106b90615874565b60405180910390fd5b600660009054906101000a900473ffffffffffffffffffffffffffffffffffffffff1673ffffffffffffffffffffffffffffffffffffffff1663eb80494383856040518363ffffffff167c01000000000000000000000000000000000000000000000000000000000281526004016110ed92919061598f565b602060405180830381600087803b15801561110757600080fd5b505af115801561111b573d6000803e3d6000fd5b505050506040513d601f19601f8201168201806040525061113f9190810190614abb565b151515611181576040517f08c379a000000000000000000000000000000000000000000000000000000000815260040161117890615854565b60405180910390fd5b600660009054906101000a900473ffffffffffffffffffffffffffffffffffffffff1673ffffffffffffffffffffffffffffffffffffffff1663d223f520838560016040518463ffffffff167c01000000000000000000000000000000000000000000000000000000000281526004016111fd939291906159b8565b600060405180830381600087803b15801561121757600080fd5b505af115801561122b573d6000803e3d6000fd5b50505050505050565b600080600a60009054906101000a900473ffffffffffffffffffffffffffffffffffffffff1673ffffffffffffffffffffffffffffffffffffffff1663c71fccb8856040518263ffffffff167c01000000000000000000000000000000000000000000000000000000000281526004016112ae9190615722565b602060405180830381600087803b1580156112c857600080fd5b505af11580156112dc573d6000803e3d6000fd5b505050506040513d601f19601f820116820180604052506113009190810190614cb3565b90508281101561131457600191505061131a565b60009150505b92915050565b600073ffffffffffffffffffffffffffffffffffffffff168173ffffffffffffffffffffffffffffffffffffffff1614151515611392576040517f08c379a000000000000000000000000000000000000000000000000000000000815260040161138990615814565b60405180910390fd5b80600960006101000a81548173ffffffffffffffffffffffffffffffffffffffff021916908373ffffffffffffffffffffffffffffffffffffffff160217905550600960009054906101000a900473ffffffffffffffffffffffffffffffffffffffff16600860006101000a81548173ffffffffffffffffffffffffffffffffffffffff021916908373ffffffffffffffffffffffffffffffffffffffff16021790555050565b606060006114478484610cc6565b90506000806001830381526020019081526020016000206001018054600181600116156101000203166002900480601f0160208091040260200160405190810160405280929190818152602001828054600181600116156101000203166002900480156114f55780601f106114ca576101008083540402835291602001916114f5565b820191906000526020600020905b8154815290600101906020018083116114d857829003601f168201915b505050505091505092915050565b600a60009054906101000a900473ffffffffffffffffffffffffffffffffffffffff1673ffffffffffffffffffffffffffffffffffffffff1662deb5d6336040518263ffffffff167c010000000000000000000000000000000000000000000000000000000002815260040161157991906155d1565b602060405180830381600087803b15801561159357600080fd5b505af11580156115a7573d6000803e3d6000fd5b505050506040513d601f19601f820116820180604052506115cb9190810190614abb565b151561160c576040517f08c379a000000000000000000000000000000000000000000000000000000000815260040161160390615954565b60405180910390fd5b600a60009054906101000a900473ffffffffffffffffffffffffffffffffffffffff1673ffffffffffffffffffffffffffffffffffffffff1663ad6b4f296040518163ffffffff167c0100000000000000000000000000000000000000000000000000000000028152600401602060405180830381600087803b15801561169257600080fd5b505af11580156116a6573d6000803e3d6000fd5b505050506040513d601f19601f820116820180604052506116ca9190810190614abb565b15151561170c576040517f08c379a0000000000000000000000000000000000000000000000000000000008152600401611703906157d4565b60405180910390fd5b60025485141515611752576040517f08c379a0000000000000000000000000000000000000000000000000000000008152600401611749906157f4565b60405180910390fd5b61175c8483611234565b151561179d576040517f08c379a0000000000000000000000000000000000000000000000000000000008152600401611794906157b4565b60405180910390fd5b600154861015156117e3576040517f08c379a00000000000000000000000000000000000000000000000000000000081526004016117da906158f4565b60405180910390fd5b60006117ef8688610cc6565b905085600080600160035403815260200190815260200160002060070181905550846000806001600354038152602001908152602001600020600101908051906020019061183e929190614709565b506001546000806001600354038152602001908152602001600020600201819055504260008060016003540381526020019081526020016000206000018190555083600080600160035403815260200190815260200160002060030190805190602001906118ad929190614709565b50600083141515156118f4576040517f08c379a00000000000000000000000000000000000000000000000000000000081526004016118eb906158b4565b60405180910390fd5b6064831115151561193a576040517f08c379a000000000000000000000000000000000000000000000000000000000815260040161193190615894565b60405180910390fd5b8260008060016003540381526020019081526020016000206004018190555060008090505b82518160ff1610156119d557828160ff1681518110151561197c57fe5b90602001906020020151600080600160035403815260200190815260200160002060050160008360ff16815260200190815260200160002090805190602001906119c7929190614709565b50808060010191505061195f565b5081516000806001600354038152602001908152602001600020600801819055506001546000806001840381526020019081526020016000206006018190555060016000815480929190600101919050555060036000815480929190600101919050555050505050505050565b606080606080600254851415612257576001851415611e3e5760006001600354039050606081604051908082528060200260200182016040528015611a9b57816020015b6060815260200190600190039081611a865790505b509050606082604051908082528060200260200182016040528015611acf5781602001602082028038833980820191505090505b509050606083604051908082528060200260200182016040528015611b0857816020015b6060815260200190600190039081611af35790505b5090506000809050606085604051908082528060200260200182016040528015611b415781602001602082028038833980820191505090505b50905060008090505b868160ff161015611e26576000808260ff168152602001908152602001600020600801548284815181101515611b7c57fe5b90602001906020020181815250506000808260ff1681526020019081526020016000206001018054600181600116156101000203166002900480601f016020809104026020016040519081016040528092919081815260200182805460018160011615610100020316600290048015611c365780601f10611c0b57610100808354040283529160200191611c36565b820191906000526020600020905b815481529060010190602001808311611c1957829003601f168201915b50505050508684815181101515611c4957fe5b906020019060200201819052506000808260ff168152602001908152602001600020600401548584815181101515611c7d57fe5b906020019060200201818152505060608284815181101515611c9b57fe5b90602001906020020151604051908082528060200260200182016040528015611cd857816020015b6060815260200190600190039081611cc35790505b50905060008090505b8385815181101515611cef57fe5b906020019060200201518160ff161015611df3576000808460ff16815260200190815260200160002060050160008260ff1681526020019081526020016000208054600181600116156101000203166002900480601f016020809104026020016040519081016040528092919081815260200182805460018160011615610100020316600290048015611dc35780601f10611d9857610100808354040283529160200191611dc3565b820191906000526020600020905b815481529060010190602001808311611da657829003601f168201915b5050505050828260ff16815181101515611dd957fe5b906020019060200201819052508080600101915050611ce1565b50808585815181101515611e0357fe5b906020019060200201819052508380600101945050508080600101915050611b4a565b50848484839950995099509950505050505050612aaf565b60006001600460028803815481101515611e5457fe5b906000526020600020015403600160035403039050606081604051908082528060200260200182016040528015611e9f57816020015b6060815260200190600190039081611e8a5790505b509050606082604051908082528060200260200182016040528015611ed35781602001602082028038833980820191505090505b509050606083604051908082528060200260200182016040528015611f0c57816020015b6060815260200190600190039081611ef75790505b5090506000809050606085604051908082528060200260200182016040528015611f455781602001602082028038833980820191505090505b50905060006001600460028e03815481101515611f5e57fe5b90600052602060002001540390505b60016003540381101561223f57600080828152602001908152602001600020600801548284815181101515611f9e57fe5b90602001906020020181815250506000808281526020019081526020016000206001018054600181600116156101000203166002900480601f0160208091040260200160405190810160405280929190818152602001828054600181600116156101000203166002900480156120555780601f1061202a57610100808354040283529160200191612055565b820191906000526020600020905b81548152906001019060200180831161203857829003601f168201915b5050505050868481518110151561206857fe5b9060200190602002018190525060008082815260200190815260200160002060040154858481518110151561209957fe5b9060200190602002018181525050606082848151811015156120b757fe5b906020019060200201516040519080825280602002602001820160405280156120f457816020015b60608152602001906001900390816120df5790505b50905060008090505b838581518110151561210b57fe5b906020019060200201518160ff16101561220c5760008084815260200190815260200160002060050160008260ff1681526020019081526020016000208054600181600116156101000203166002900480601f0160208091040260200160405190810160405280929190818152602001828054600181600116156101000203166002900480156121dc5780601f106121b1576101008083540402835291602001916121dc565b820191906000526020600020905b8154815290600101906020018083116121bf57829003601f168201915b5050505050828260ff168151811015156121f257fe5b9060200190602002018190525080806001019150506120fd565b5080858581518110151561221c57fe5b906020019060200201819052508380600101945050508080600101915050611f6d565b50848484839950995099509950505050505050612aaf565b600254851015612aae576001851415612667576000600160046001880381548110151561228057fe5b90600052602060002001540390506060816040519080825280602002602001820160405280156122c457816020015b60608152602001906001900390816122af5790505b5090506060826040519080825280602002602001820160405280156122f85781602001602082028038833980820191505090505b50905060608360405190808252806020026020018201604052801561233157816020015b606081526020019060019003908161231c5790505b509050600080905060608560405190808252806020026020018201604052801561236a5781602001602082028038833980820191505090505b50905060008090505b868160ff16101561264f576000808260ff1681526020019081526020016000206008015482848151811015156123a557fe5b90602001906020020181815250506000808260ff1681526020019081526020016000206001018054600181600116156101000203166002900480601f01602080910402602001604051908101604052809291908181526020018280546001816001161561010002031660029004801561245f5780601f106124345761010080835404028352916020019161245f565b820191906000526020600020905b81548152906001019060200180831161244257829003601f168201915b5050505050868481518110151561247257fe5b906020019060200201819052506000808260ff1681526020019081526020016000206004015485848151811015156124a657fe5b9060200190602002018181525050606082848151811015156124c457fe5b9060200190602002015160405190808252806020026020018201604052801561250157816020015b60608152602001906001900390816124ec5790505b50905060008090505b838581518110151561251857fe5b906020019060200201518160ff16101561261c576000808460ff16815260200190815260200160002060050160008260ff1681526020019081526020016000208054600181600116156101000203166002900480601f0160208091040260200160405190810160405280929190818152602001828054600181600116156101000203166002900480156125ec5780601f106125c1576101008083540402835291602001916125ec565b820191906000526020600020905b8154815290600101906020018083116125cf57829003601f168201915b5050505050828260ff1681518110151561260257fe5b90602001906020020181905250808060010191505061250a565b5080858581518110151561262c57fe5b906020019060200201819052508380600101945050508080600101915050612373565b50848484839950995099509950505050505050612aaf565b600060046002870381548110151561267b57fe5b906000526020600020015460046001880381548110151561269857fe5b90600052602060002001540390506060816040519080825280602002602001820160405280156126dc57816020015b60608152602001906001900390816126c75790505b5090506060826040519080825280602002602001820160405280156127105781602001602082028038833980820191505090505b50905060608360405190808252806020026020018201604052801561274957816020015b60608152602001906001900390816127345790505b50905060008090506060856040519080825280602002602001820160405280156127825781602001602082028038833980820191505090505b50905060006001600460028e0381548110151561279b57fe5b90600052602060002001540390505b6001600460018e038154811015156127be57fe5b906000526020600020015403811015612a96576000808281526020019081526020016000206008015482848151811015156127f557fe5b90602001906020020181815250506000808281526020019081526020016000206001018054600181600116156101000203166002900480601f0160208091040260200160405190810160405280929190818152602001828054600181600116156101000203166002900480156128ac5780601f10612881576101008083540402835291602001916128ac565b820191906000526020600020905b81548152906001019060200180831161288f57829003601f168201915b505050505086848151811015156128bf57fe5b906020019060200201819052506000808281526020019081526020016000206004015485848151811015156128f057fe5b90602001906020020181815250506060828481518110151561290e57fe5b9060200190602002015160405190808252806020026020018201604052801561294b57816020015b60608152602001906001900390816129365790505b50905060008090505b838581518110151561296257fe5b906020019060200201518160ff161015612a635760008084815260200190815260200160002060050160008260ff1681526020019081526020016000208054600181600116156101000203166002900480601f016020809104026020016040519081016040528092919081815260200182805460018160011615610100020316600290048015612a335780601f10612a0857610100808354040283529160200191612a33565b820191906000526020600020905b815481529060010190602001808311612a1657829003601f168201915b5050505050828260ff16815181101515612a4957fe5b906020019060200201819052508080600101915050612954565b50808585815181101515612a7357fe5b9060200190602002018190525083806001019450505080806001019150506127aa565b50848484839950995099509950505050505050612aaf565b5b9193509193565b6000806000808414151515612b00576040517f08c379a0000000000000000000000000000000000000000000000000000000008152600401612af790615774565b60405180910390fd5b600080600090505b600254811015612b68578560056000838152602001908152602001600020541415612b5b57600160025403811015612b435760019150612b48565b600091505b6001810186839450945094505050612b6b565b8080600101915050612b08565b50505b9193909250565b3373ffffffffffffffffffffffffffffffffffffffff16ff5b6060806060600254604051908082528060200260200182016040528015612bc15781602001602082028038833980820191505090505b5090506060600254604051908082528060200260200182016040528015612bf75781602001602082028038833980820191505090505b509050600080905060008090505b600254811015612c7457600181018483815181101515612c2157fe5b906020019060200201818152505060056000828152602001908152602001600020548383815181101515612c5157fe5b906020019060200201818152505081806001019250508080600101915050612c05565b508282945094505050509091565b6060806060806002548514156131eb576001851415612f285760006001600354039050606081604051908082528060200260200182016040528015612cd65781602001602082028038833980820191505090505b509050606082604051908082528060200260200182016040528015612d0f57816020015b6060815260200190600190039081612cfa5790505b509050606083604051908082528060200260200182016040528015612d435781602001602082028038833980820191505090505b509050606084604051908082528060200260200182016040528015612d775781602001602082028038833980820191505090505b509050600080905060008090505b868160ff161015612f10576000808260ff168152602001908152602001600020600601548483815181101515612db757fe5b90602001906020020181815250506000808260ff168152602001908152602001600020600201548383815181101515612dec57fe5b90602001906020020181815250506000808260ff168152602001908152602001600020600001548683815181101515612e2157fe5b90602001906020020181815250506000808260ff1681526020019081526020016000206003018054600181600116156101000203166002900480601f016020809104026020016040519081016040528092919081815260200182805460018160011615610100020316600290048015612edb5780601f10612eb057610100808354040283529160200191612edb565b820191906000526020600020905b815481529060010190602001808311612ebe57829003601f168201915b50505050508583815181101515612eee57fe5b9060200190602002018190525081806001019250508080600101915050612d85565b50848484849950995099509950505050505050613797565b60006001600460028803815481101515612f3e57fe5b906000526020600020015403600160035403039050606081604051908082528060200260200182016040528015612f845781602001602082028038833980820191505090505b509050606082604051908082528060200260200182016040528015612fbd57816020015b6060815260200190600190039081612fa85790505b509050606083604051908082528060200260200182016040528015612ff15781602001602082028038833980820191505090505b5090506060846040519080825280602002602001820160405280156130255781602001602082028038833980820191505090505b509050600080905060006001600460028e0381548110151561304357fe5b90600052602060002001540390505b6001600354038110156131d35760008082815260200190815260200160002060060154848381518110151561308357fe5b90602001906020020181815250506000808281526020019081526020016000206002015483838151811015156130b557fe5b90602001906020020181815250506000808281526020019081526020016000206000015486838151811015156130e757fe5b90602001906020020181815250506000808281526020019081526020016000206003018054600181600116156101000203166002900480601f01602080910402602001604051908101604052809291908181526020018280546001816001161561010002031660029004801561319e5780601f106131735761010080835404028352916020019161319e565b820191906000526020600020905b81548152906001019060200180831161318157829003601f168201915b505050505085838151811015156131b157fe5b9060200190602002018190525081806001019250508080600101915050613052565b50848484849950995099509950505050505050613797565b6002548510156137965760018514156134a5576000600160046001880381548110151561321457fe5b90600052602060002001540390506060816040519080825280602002602001820160405280156132535781602001602082028038833980820191505090505b50905060608260405190808252806020026020018201604052801561328c57816020015b60608152602001906001900390816132775790505b5090506060836040519080825280602002602001820160405280156132c05781602001602082028038833980820191505090505b5090506060846040519080825280602002602001820160405280156132f45781602001602082028038833980820191505090505b509050600080905060008090505b868160ff16101561348d576000808260ff16815260200190815260200160002060060154848381518110151561333457fe5b90602001906020020181815250506000808260ff16815260200190815260200160002060020154838381518110151561336957fe5b90602001906020020181815250506000808260ff16815260200190815260200160002060000154868381518110151561339e57fe5b90602001906020020181815250506000808260ff1681526020019081526020016000206003018054600181600116156101000203166002900480601f0160208091040260200160405190810160405280929190818152602001828054600181600116156101000203166002900480156134585780601f1061342d57610100808354040283529160200191613458565b820191906000526020600020905b81548152906001019060200180831161343b57829003601f168201915b5050505050858381518110151561346b57fe5b9060200190602002018190525081806001019250508080600101915050613302565b50848484849950995099509950505050505050613797565b60006004600287038154811015156134b957fe5b90600052602060002001546004600188038154811015156134d657fe5b90600052602060002001540390506060816040519080825280602002602001820160405280156135155781602001602082028038833980820191505090505b50905060608260405190808252806020026020018201604052801561354e57816020015b60608152602001906001900390816135395790505b5090506060836040519080825280602002602001820160405280156135825781602001602082028038833980820191505090505b5090506060846040519080825280602002602001820160405280156135b65781602001602082028038833980820191505090505b509050600080905060006001600460028e038154811015156135d457fe5b90600052602060002001540390505b6001600460018e038154811015156135f757fe5b90600052602060002001540381101561377e5760008082815260200190815260200160002060060154848381518110151561362e57fe5b906020019060200201818152505060008082815260200190815260200160002060020154838381518110151561366057fe5b906020019060200201818152505060008082815260200190815260200160002060000154868381518110151561369257fe5b90602001906020020181815250506000808281526020019081526020016000206003018054600181600116156101000203166002900480601f0160208091040260200160405190810160405280929190818152602001828054600181600116156101000203166002900480156137495780601f1061371e57610100808354040283529160200191613749565b820191906000526020600020905b81548152906001019060200180831161372c57829003601f168201915b5050505050858381518110151561375c57fe5b90602001906020020181905250818060010192505080806001019150506135e3565b50848484849950995099509950505050505050613797565b5b9193509193565b600073ffffffffffffffffffffffffffffffffffffffff168173ffffffffffffffffffffffffffffffffffffffff1614151515613810576040517f08c379a000000000000000000000000000000000000000000000000000000000815260040161380790615814565b60405180910390fd5b80600760006101000a81548173ffffffffffffffffffffffffffffffffffffffff021916908373ffffffffffffffffffffffffffffffffffffffff160217905550600760009054906101000a900473ffffffffffffffffffffffffffffffffffffffff16600660006101000a81548173ffffffffffffffffffffffffffffffffffffffff021916908373ffffffffffffffffffffffffffffffffffffffff16021790555050565b60006004600183038154811015156138cb57fe5b90600052602060002001549050919050565b600a60009054906101000a900473ffffffffffffffffffffffffffffffffffffffff1673ffffffffffffffffffffffffffffffffffffffff16638204933c336040518263ffffffff167c010000000000000000000000000000000000000000000000000000000002815260040161395491906155d1565b602060405180830381600087803b15801561396e57600080fd5b505af1158015613982573d6000803e3d6000fd5b505050506040513d601f19601f820116820180604052506139a69190810190614abb565b15156139e7576040517f08c379a00000000000000000000000000000000000000000000000000000000081526004016139de90615934565b60405180910390fd5b80600254111515613a2d576040517f08c379a0000000000000000000000000000000000000000000000000000000008152600401613a24906158d4565b60405180910390fd5b6000613a398284610cc6565b9050600080600060018403815260200190815260200160002060060154141515613a98576040517f08c379a0000000000000000000000000000000000000000000000000000000008152600401613a8f90615874565b60405180910390fd5b600660009054906101000a900473ffffffffffffffffffffffffffffffffffffffff1673ffffffffffffffffffffffffffffffffffffffff1663eb80494383856040518363ffffffff167c0100000000000000000000000000000000000000000000000000000000028152600401613b1192919061598f565b602060405180830381600087803b158015613b2b57600080fd5b505af1158015613b3f573d6000803e3d6000fd5b505050506040513d601f19601f82011682018060405250613b639190810190614abb565b151515613ba5576040517f08c379a0000000000000000000000000000000000000000000000000000000008152600401613b9c90615854565b60405180910390fd5b600660009054906101000a900473ffffffffffffffffffffffffffffffffffffffff1673ffffffffffffffffffffffffffffffffffffffff166366c4a46483856040518363ffffffff167c0100000000000000000000000000000000000000000000000000000000028152600401613c1e92919061598f565b600060405180830381600087803b158015613c3857600080fd5b505af1158015613c4c573d6000803e3d6000fd5b505050506060613c5c8385611439565b9050600a60009054906101000a900473ffffffffffffffffffffffffffffffffffffffff1673ffffffffffffffffffffffffffffffffffffffff166335079ea782600080600187038152602001908152602001600020600401546040518363ffffffff167c0100000000000000000000000000000000000000000000000000000000028152600401613cef929190615744565b600060405180830381600087803b158015613d0957600080fd5b505af1158015613d1d573d6000803e3d6000fd5b50505050600a60009054906101000a900473ffffffffffffffffffffffffffffffffffffffff1673ffffffffffffffffffffffffffffffffffffffff16632a1658fa826040518263ffffffff167c0100000000000000000000000000000000000000000000000000000000028152600401613d989190615722565b600060405180830381600087803b158015613db257600080fd5b505af1158015613dc6573d6000803e3d6000fd5b50505050613dd383610d40565b15613f3b57600a60009054906101000a900473ffffffffffffffffffffffffffffffffffffffff1673ffffffffffffffffffffffffffffffffffffffff1663f6070aa06040518163ffffffff167c0100000000000000000000000000000000000000000000000000000000028152600401602060405180830381600087803b158015613e5e57600080fd5b505af1158015613e72573d6000803e3d6000fd5b505050506040513d601f19601f82011682018060405250613e969190810190614abb565b15613f3a57600a60009054906101000a900473ffffffffffffffffffffffffffffffffffffffff1673ffffffffffffffffffffffffffffffffffffffff16633d1be3dd6040518163ffffffff167c0100000000000000000000000000000000000000000000000000000000028152600401600060405180830381600087803b158015613f2157600080fd5b505af1158015613f35573d6000803e3d6000fd5b505050505b5b50505050565b600a60009054906101000a900473ffffffffffffffffffffffffffffffffffffffff1673ffffffffffffffffffffffffffffffffffffffff1662deb5d6336040518263ffffffff167c0100000000000000000000000000000000000000000000000000000000028152600401613fb791906155d1565b602060405180830381600087803b158015613fd157600080fd5b505af1158015613fe5573d6000803e3d6000fd5b505050506040513d601f19601f820116820180604052506140099190810190614abb565b151561404a576040517f08c379a000000000000000000000000000000000000000000000000000000000815260040161404190615954565b60405180910390fd5b600a60009054906101000a900473ffffffffffffffffffffffffffffffffffffffff1673ffffffffffffffffffffffffffffffffffffffff1663ad6b4f296040518163ffffffff167c0100000000000000000000000000000000000000000000000000000000028152600401602060405180830381600087803b1580156140d057600080fd5b505af11580156140e4573d6000803e3d6000fd5b505050506040513d601f19601f820116820180604052506141089190810190614abb565b15151561414a576040517f08c379a0000000000000000000000000000000000000000000000000000000008152600401614141906157d4565b60405180910390fd5b61415684600254610a80565b1515614197576040517f08c379a000000000000000000000000000000000000000000000000000000000815260040161418e90615834565b60405180910390fd5b6141a18483611234565b15156141e2576040517f08c379a00000000000000000000000000000000000000000000000000000000081526004016141d9906157b4565b60405180910390fd5b60008090505b600a60009054906101000a900473ffffffffffffffffffffffffffffffffffffffff1673ffffffffffffffffffffffffffffffffffffffff166397ba63f86040518163ffffffff167c0100000000000000000000000000000000000000000000000000000000028152600401602060405180830381600087803b15801561426e57600080fd5b505af1158015614282573d6000803e3d6000fd5b505050506040513d601f19601f820116820180604052506142a69190810190614cb3565b8110156145fa576060806000806000600a60009054906101000a900473ffffffffffffffffffffffffffffffffffffffff1673ffffffffffffffffffffffffffffffffffffffff1663a0d5cf95876040518263ffffffff167c010000000000000000000000000000000000000000000000000000000002815260040161432c9190615974565b600060405180830381600087803b15801561434657600080fd5b505af115801561435a573d6000803e3d6000fd5b505050506040513d6000823e3d601f19601f820116820180604052506143839190810190614b8f565b94509450945094509450614397858b614601565b156145e85789600080600160035403815260200190815260200160002060010190805190602001906143ca929190614709565b5060025460008060016003540381526020019081526020016000206007018190555060015460008060016003540381526020019081526020016000206002018190555042600080600160035403815260200190815260200160002060000181905550886000806001600354038152602001908152602001600020600301908051906020019061445a929190614709565b50600080600060016003540381526020019081526020016000206006018190555060008090505b87518160ff1610156144f757878160ff1681518110151561449e57fe5b90602001906020020151600080600160035403815260200190815260200160002060050160008360ff16815260200190815260200160002090805190602001906144e9929190614709565b508080600101915050614481565b5086516000806001600354038152602001908152602001600020600801819055506000881415151561455e576040517f08c379a0000000000000000000000000000000000000000000000000000000008152600401614555906158b4565b60405180910390fd5b606488111515156145a4576040517f08c379a000000000000000000000000000000000000000000000000000000000815260040161459b90615794565b60405180910390fd5b876000806001600354038152602001908152602001600020600401819055506001600081548092919060010191905055506003600081548092919060010191905055505b505050505080806001019150506141e8565b5050505050565b6000815183511415156146175760009050614703565b816040516020018082805190602001908083835b602083101515614650578051825260208201915060208101905060208303925061462b565b6001836020036101000a03801982511681845116808217855250505050505090500191505060405160208183030381529060405280519060200120836040516020018082805190602001908083835b6020831015156146c4578051825260208201915060208101905060208303925061469f565b6001836020036101000a038019825116818451168082178552505050505050905001915050604051602081830303815290604052805190602001201490505b92915050565b828054600181600116156101000203166002900490600052602060002090601f016020900481019282601f1061474a57805160ff1916838001178555614778565b82800160010185558215614778579182015b8281111561477757825182559160200191906001019061475c565b5b5090506147859190614789565b5090565b6147ab91905b808211156147a757600081600090555060010161478f565b5090565b90565b60006147ba8235615ba4565b905092915050565b600082601f83011215156147d557600080fd5b81516147e86147e382615a1c565b6159ef565b9150818183526020840193506020810190508385602084028201111561480d57600080fd5b60005b8381101561483d578161482388826148bd565b845260208401935060208301925050600181019050614810565b5050505092915050565b600082601f830112151561485a57600080fd5b813561486d61486882615a44565b6159ef565b9150818183526020840193506020810190508360005b838110156148b3578135860161489988826148d1565b845260208401935060208301925050600181019050614883565b5050505092915050565b60006148c98251615bb6565b905092915050565b600082601f83011215156148e457600080fd5b81356148f76148f282615a6c565b6159ef565b9150808252602083016020830185838301111561491357600080fd5b61491e838284615c02565b50505092915050565b600082601f830112151561493a57600080fd5b813561494d61494882615a98565b6159ef565b9150808252602083016020830185838301111561496957600080fd5b614974838284615c02565b50505092915050565b600082601f830112151561499057600080fd5b81516149a361499e82615a98565b6159ef565b915080825260208301602083018583830111156149bf57600080fd5b6149ca838284615c11565b50505092915050565b60006149df8235615bc2565b905092915050565b60006149f38251615bc2565b905092915050565b600060208284031215614a0d57600080fd5b6000614a1b848285016147ae565b91505092915050565b600080600060608486031215614a3957600080fd5b600084015167ffffffffffffffff811115614a5357600080fd5b614a5f868287016147c2565b935050602084015167ffffffffffffffff811115614a7c57600080fd5b614a88868287016147c2565b925050604084015167ffffffffffffffff811115614aa557600080fd5b614ab1868287016147c2565b9150509250925092565b600060208284031215614acd57600080fd5b6000614adb848285016148bd565b91505092915050565b60008060008060808587031215614afa57600080fd5b600085013567ffffffffffffffff811115614b1457600080fd5b614b2087828801614927565b945050602085013567ffffffffffffffff811115614b3d57600080fd5b614b4987828801614927565b9350506040614b5a878288016149d3565b925050606085013567ffffffffffffffff811115614b7757600080fd5b614b8387828801614847565b91505092959194509250565b600080600080600060a08688031215614ba757600080fd5b600086015167ffffffffffffffff811115614bc157600080fd5b614bcd8882890161497d565b955050602086015167ffffffffffffffff811115614bea57600080fd5b614bf68882890161497d565b9450506040614c07888289016149e7565b9350506060614c18888289016149e7565b9250506080614c29888289016149e7565b9150509295509295909350565b60008060408385031215614c4957600080fd5b600083013567ffffffffffffffff811115614c6357600080fd5b614c6f85828601614927565b9250506020614c80858286016149d3565b9150509250929050565b600060208284031215614c9c57600080fd5b6000614caa848285016149d3565b91505092915050565b600060208284031215614cc557600080fd5b6000614cd3848285016149e7565b91505092915050565b60008060408385031215614cef57600080fd5b6000614cfd858286016149d3565b9250506020614d0e858286016149d3565b9150509250929050565b60008060008060008060c08789031215614d3157600080fd5b6000614d3f89828a016149d3565b9650506020614d5089828a016149d3565b955050604087013567ffffffffffffffff811115614d6d57600080fd5b614d7989828a01614927565b945050606087013567ffffffffffffffff811115614d9657600080fd5b614da289828a01614927565b9350506080614db389828a016149d3565b92505060a087013567ffffffffffffffff811115614dd057600080fd5b614ddc89828a01614847565b9150509295509295509295565b614df281615bcc565b82525050565b6000614e0382615af8565b80845260208401935083602082028501614e1c85615ac4565b60005b84811015614e55578383038852614e37838351614ed4565b9250614e4282615b3a565b9150602088019750600181019050614e1f565b508196508694505050505092915050565b6000614e7182615b0e565b80845260208401935083602082028501614e8a85615ade565b60005b84811015614ec3578383038852614ea5838351614fe2565b9250614eb082615b54565b9150602088019750600181019050614e8d565b508196508694505050505092915050565b6000614edf82615b03565b80845260208401935083602082028501614ef885615ad1565b60005b84811015614f31578383038852614f13838351614fe2565b9250614f1e82615b47565b9150602088019750600181019050614efb565b508196508694505050505092915050565b6000614f4d82615b19565b808452602084019350614f5f83615aeb565b60005b82811015614f9157614f758683516155c2565b614f7e82615b61565b9150602086019550600181019050614f62565b50849250505092915050565b614fa681615b6e565b82525050565b6000614fb782615b2f565b808452614fcb816020860160208601615c11565b614fd481615c44565b602085010191505092915050565b6000614fed82615b24565b808452615001816020860160208601615c11565b61500a81615c44565b602085010191505092915050565b6000602782527f4e6f6e203f20706f73736962696c6520696e73657269726520756e612064617460208301527f61206e756c6c61000000000000000000000000000000000000000000000000006040830152606082019050919050565b6000603f82527f4e6f6e203f20706f73736962696c6520696e73657269726520756e612076616c60208301527f6f72652070657263656e7475616c65207375706572696f7265206120313030006040830152606082019050919050565b6000604382527f4e6f6e207075c3b22065737365726520696e73657269746120756e612070657260208301527f63656e7475616c6520696e666572696f72652061207175656c6c61206174747560408301527f616c6500000000000000000000000000000000000000000000000000000000006060830152608082019050919050565b6000603782527f5475747465206c65206c61766f72617a696f6e692068616e6e6f20756e61207060208301527f657263656e7475616c65207061726920616c20313030250000000000000000006040830152606082019050919050565b6000602b82527f496c206c6962726574746f20696e73657269746f20c3a8206769c3a02073746160208301527f746f20636f6e636c75736f0000000000000000000000000000000000000000006040830152606082019050919050565b6000602082527f4c27696e646972697a7a6f207061737361746f206e6f6e203f2076616c69646f6020830152604082019050919050565b6000603f82527f45272067696120737461746f20696e73657269746120756e612073746573736160208301527f206c61766f72617a696f6e6520696e2071756573746f206c6962726574746f006040830152606082019050919050565b6000601f82527f496c207269676f20efbfbd206769efbfbd20737461746f206669726d61746f006020830152604082019050919050565b6000602e82527f4e6f6e20efbfbd20706f73736962696c65206669726d61726520756e2072696760208301527f6f20736f7672617363726974746f0000000000000000000000000000000000006040830152606082019050919050565b6000603d82527f4e6f6e203f20706f737362696c6520696e73657269726520756e2076616c6f7260208301527f652070657263656e7475616c65207375706572696f72652061203130300000006040830152606082019050919050565b6000603482527f4e6f6e203f20706f73736962696c6520696e73657269726520756e2076616c6f60208301527f72652070657263656e7475616c65206e756c6c6f0000000000000000000000006040830152606082019050919050565b6000602882527f496c206c6962726574746f206e6f6e203f20616e636f726120737461746f207460208301527f65726d696e61746f0000000000000000000000000000000000000000000000006040830152606082019050919050565b6000604082527f496c207269676f206368652073746169206d6f6469666963616e646f206e6f6e60208301527f20c3a820737461746f20696e73657269746f20696e20707265636564656e7a616040830152606082019050919050565b6000603882527f4e6f6e20c3a820737461746f20616e636f726120696e73657269746f20756e2060208301527f7269676f207065722071756573746f206c6962726574746f00000000000000006040830152606082019050919050565b6000603982527f536f6c6f206c6120646974746120617070616c746174726963652070753f207560208301527f74696c697a7a617265207175657374612066756e7a696f6e65000000000000006040830152606082019050919050565b6000603b82527f536f6c6f20696c204469726574746f726520646569204c61766f72692070753f60208301527f207574696c697a7a617265207175657374612066756e7a696f6e6500000000006040830152606082019050919050565b6155cb81615b9a565b82525050565b60006020820190506155e66000830184614de9565b92915050565b600060808201905081810360008301526156068187614e66565b9050818103602083015261561a8186614f42565b9050818103604083015261562e8185614df8565b905081810360608301526156428184614f42565b905095945050505050565b600060208201905081810360008301526156678184614f42565b905092915050565b600060808201905081810360008301526156898187614f42565b9050818103602083015261569d8186614e66565b905081810360408301526156b18185614f42565b905081810360608301526156c58184614f42565b905095945050505050565b600060408201905081810360008301526156ea8185614f42565b905081810360208301526156fe8184614f42565b90509392505050565b600060208201905061571c6000830184614f9d565b92915050565b6000602082019050818103600083015261573c8184614fac565b905092915050565b6000604082019050818103600083015261575e8185614fac565b905061576d60208301846155c2565b9392505050565b6000602082019050818103600083015261578d81615018565b9050919050565b600060208201905081810360008301526157ad81615075565b9050919050565b600060208201905081810360008301526157cd816150d2565b9050919050565b600060208201905081810360008301526157ed81615155565b9050919050565b6000602082019050818103600083015261580d816151b2565b9050919050565b6000602082019050818103600083015261582d8161520f565b9050919050565b6000602082019050818103600083015261584d81615246565b9050919050565b6000602082019050818103600083015261586d816152a3565b9050919050565b6000602082019050818103600083015261588d816152da565b9050919050565b600060208201905081810360008301526158ad81615337565b9050919050565b600060208201905081810360008301526158cd81615394565b9050919050565b600060208201905081810360008301526158ed816153f1565b9050919050565b6000602082019050818103600083015261590d8161544e565b9050919050565b6000602082019050818103600083015261592d816154ab565b9050919050565b6000602082019050818103600083015261594d81615508565b9050919050565b6000602082019050818103600083015261596d81615565565b9050919050565b600060208201905061598960008301846155c2565b92915050565b60006040820190506159a460008301856155c2565b6159b160208301846155c2565b9392505050565b60006060820190506159cd60008301866155c2565b6159da60208301856155c2565b6159e76040830184614f9d565b949350505050565b6000604051905081810181811067ffffffffffffffff82111715615a1257600080fd5b8060405250919050565b600067ffffffffffffffff821115615a3357600080fd5b602082029050602081019050919050565b600067ffffffffffffffff821115615a5b57600080fd5b602082029050602081019050919050565b600067ffffffffffffffff821115615a8357600080fd5b601f19601f8301169050602081019050919050565b600067ffffffffffffffff821115615aaf57600080fd5b601f19601f8301169050602081019050919050565b6000602082019050919050565b6000602082019050919050565b6000602082019050919050565b6000602082019050919050565b600081519050919050565b600081519050919050565b600081519050919050565b600081519050919050565b600081519050919050565b600081519050919050565b6000602082019050919050565b6000602082019050919050565b6000602082019050919050565b6000602082019050919050565b60008115159050919050565b600073ffffffffffffffffffffffffffffffffffffffff82169050919050565b6000819050919050565b6000615baf82615b7a565b9050919050565b60008115159050919050565b6000819050919050565b6000615bd782615bde565b9050919050565b6000615be982615bf0565b9050919050565b6000615bfb82615b7a565b9050919050565b82818337600083830152505050565b60005b83811015615c2f578082015181840152602081019050615c14565b83811115615c3e576000848401525b50505050565b6000601f19601f830116905091905056fea265627a7a723058203f9b54dd032badd407c4c8e575d4136b93ca83953b74d250a432a37ea581e5306c6578706572696d656e74616cf50037",
  "source": "pragma solidity ^0.5.0;\r\npragma experimental ABIEncoderV2;\r\n\r\nimport \"./Misure.sol\";\r\nimport \"./Firme.sol\";\r\nimport \"./StringUtils.sol\";\r\nimport \"./Riserve.sol\";\r\n\r\n\r\ncontract Libretto {\r\n\r\n    struct LibrettoDelleMisure {\r\n        uint data_libretto;\r\n        string codice_lavoro;\r\n        uint numero_libretto; // indica il numero di rigo del libretto\r\n        string descrizione_libretto;\r\n        uint percentuale_avanzamento; // indica la percentuale di un lavoro, va da 0 a 100%\r\n        mapping (uint => string) allegato; // stringa corrisponde all hash in cui si trovano uno o piu allegati\r\n        uint sovrascritto; // indica il numero del libretto che sovrascrive questo rigo di libretto\r\n        uint libretto; // indica di quale libretto si tratta\r\n        uint quanti_allegati; // serve per contenere il numero di allegati inseriti per ogni rigo\r\n    }\r\n    \r\n    \r\n    mapping (uint => LibrettoDelleMisure) private libretti;\r\n    uint private numero_libretti = 1;\r\n    uint private libretto = 1; // indica il numero di libretto inserito, ovviamente il primo libretto ? il numero 1\r\n    uint private numero_totale_libretti = 1; // indica il numero totale di righi di tutti i libretti\r\n    uint[] private righi_max_libretto;\r\n    \r\n    \r\n    mapping(uint => uint) private data;\r\n\r\n    function getRighiMaxLibretto(uint _libretto) public returns(uint) {\r\n        return righi_max_libretto[_libretto - 1];\r\n    }\r\n    \r\n    // restituisce il numero di libretto corrente\r\n    function getLibretto() public returns(uint) {\r\n        return libretto;\r\n    }\r\n    \r\n    // a partire da una certa data, restituisce il numero di libretto e se ? terminato o meno\r\n    // ovvero se il DL ha utilizzato la funzione finishLibretto\r\n    function getLibrettoData (uint _data) public returns(uint, uint , bool) {\r\n        require(_data != 0, \"Non ? possibile inserire una data nulla\");\r\n        bool term;\r\n        for (uint i = 0; i < libretto; i++) {\r\n            if (data[i] == _data) {\r\n                if (i < (libretto - 1)) {\r\n                    term = true;\r\n                }\r\n                else {\r\n                    term = false;\r\n                }\r\n                return (i+1, _data, term);\r\n            }\r\n        }\r\n    }\r\n    \r\n    // se non viene passata una data, si restituisce la lista dei giornali con la data \r\n    function getLibrettoData() public returns(uint[] memory, uint[] memory) {\r\n        uint[] memory lib = new uint[](libretto);\r\n        uint[] memory date = new uint[](libretto);\r\n        \r\n        uint cont = 0;\r\n        \r\n        for (uint i = 0; i < libretto; i++) {\r\n            lib[cont] = i+1;\r\n            date[cont] = data[i];\r\n            cont++;\r\n        }\r\n        return(lib, date);\r\n    }\r\n    \r\n    \r\n    // a partire dal numero di libretto e dal rigo del libretto, restituisce il rigo complessivo rispetto a tutti i libretti\r\n    function getRigoLibretto(uint _libretto, uint _rigo) public returns(uint) {\r\n        for (uint i = 0; i < numero_totale_libretti; i++) { //########FORSE numero_totale_libretti - 1 ##################\r\n            if (libretti[i].libretto == _libretto && libretti[i].numero_libretto == _rigo) {\r\n                return (i + 1);\r\n            }\r\n        }\r\n    }\r\n    \r\n    // serve al DL per confermare l intenzione di finire di scrivere in quel libretto\r\n    // quindi il contatore che indica il numero del libretto viene incrementato\r\n    // quando viene cambiato il libretto, il numero dei righi del libretto viene riportato a zero, dato che si cambia libretto\r\n    function finishLibretto () public onlyDirettoreLavori {\r\n        // si richiede l inserimento di almento un rigo nel libretto\r\n        require (numero_libretti > 1, \"Non  stato ancora inserito un rigo per questo libretto\");\r\n        data[libretto - 1] = now;\r\n        righi_max_libretto.push(numero_totale_libretti); // setta il numero di righi max per quel libretto\r\n        libretto++;\r\n        numero_libretti = 1;\r\n    }\r\n    \r\n    \r\n    // a partire dal numero di rigo nel libretto e dal numero del libretto delle misure restituisce il codice del lavoro salvato in quel rigo\r\n    // in questa funzione non serve la funzione getRigoLibretto per la conversione da numero libretto e rigo del libretto al rigo generale\r\n    function findCodice (uint _libretto, uint _rigo) public returns (string memory) {\r\n        uint rigo = getRigoLibretto(_libretto, _rigo);\r\n        return (libretti[rigo - 1].codice_lavoro);\r\n    }\r\n    \r\n    \r\n    \r\n    // controlla che non sia inserito uno stesso lavoro all'interno di righi di uno stesso libretto\r\n    function checkSameCodice(string memory _codice, uint _libretto) public returns(bool) {\r\n        if (_libretto == 1) {\r\n            uint lunghezza = (numero_totale_libretti - 1);\r\n            \r\n            for (uint8 j = 0; j < lunghezza; j++) {\r\n                if (StringUtils.compareStrings(libretti[j].codice_lavoro, _codice)) {\r\n                    return false;\r\n                }\r\n            }\r\n            return true;\r\n        }\r\n        else {\r\n            uint lunghezza = ((numero_totale_libretti - 1) - (righi_max_libretto[_libretto - 2] - 1));\r\n            \r\n            for (uint j = (righi_max_libretto[_libretto - 2] - 1); j < (numero_totale_libretti - 1); j++) {\r\n                if (StringUtils.compareStrings(libretti[j].codice_lavoro, _codice)) {\r\n                    return false;\r\n                }\r\n            }\r\n            return true;\r\n        }\r\n    }\r\n    \r\n    \r\n    // controlla che si vada ad inserire una percentuale maggiore rispetto alla percentuale attuale\r\n    function checkMaggiorePercentuale(string memory _codice, uint _percentuale) public returns(bool) {\r\n        uint perc = m.getPercentuale(_codice);\r\n        if (perc < _percentuale) {\r\n            return true;\r\n        }\r\n        else {\r\n            return false;\r\n        }\r\n    }\r\n    \r\n    function addLibretto (string memory _codice, string memory _descrizione, uint _percentuale, string[] memory _allegato) public onlyDirettoreLavori {\r\n        // per poter aggiungere un nuovo libretto, si richiede che le percentuali dei lavori non siano tutte al 100%\r\n        // si richiede quindi che la variabile che controlla non sia settata a true\r\n        require(!m.getPercentuali(), \"Tutte le lavorazioni hanno una percentuale pari al 100%\");\r\n        \r\n        // si controlla che non venga inserito un lavoro con un codice gi inserito in un rigo di questo libretto\r\n        require (checkSameCodice(_codice, libretto), \"E' gia stato inserita una stessa lavorazione in questo libretto\");\r\n        \r\n        // si controlla che non venga inserita una lavorazione con una percentuale inferiore alla percentuale attuale di quel lavoro\r\n        require(checkMaggiorePercentuale(_codice, _percentuale), \"Non pu essere inserita una percentuale inferiore a quella attuale\");\r\n        \r\n        // con m.numero_lavori() richiamo la variabile numero_lavori del constratto Misure.sol \r\n        // come fosse una funzione che mi restituisce il valore di numero_lavori\r\n        for (uint i = 0; i < m.getNumeroLavori(); i++) { \r\n            \r\n            // va a leggere i valori del lavoro i-esimo e salva in una quintupla i valori di\r\n            // codice del lavoro, nome del lavoro, percentuale di completamento, percentuale completata e costo totale\r\n            (string memory codice_lavoro, string memory n, uint y, uint z, uint k) = m.readLavori(i);\r\n            \r\n            // controlla se il codice del lavoro passato come paramentro alla funzione corrisponde ad un lavoro inserito\r\n            // se si, va ad inserire i dati all interno del libretto\r\n            // inoltre va a modificare la percentuale di completaento di quel lavoro\r\n            // al termine restituisce true\r\n            // se invece il lavro i-esimo non corrisponde al paramentro passato, va a ricercare in modo ricorsivo \r\n            // un lavoro con quel nome\r\n            // restituisce false se non si ? trovato un lavoro con quel nome\r\n            if (StringUtils.compareStrings(codice_lavoro, _codice)) {\r\n                libretti[numero_totale_libretti - 1].codice_lavoro = _codice;\r\n                libretti[numero_totale_libretti - 1].libretto = libretto;\r\n                libretti[numero_totale_libretti - 1].numero_libretto = numero_libretti;\r\n                libretti[numero_totale_libretti - 1].data_libretto = now;\r\n                libretti[numero_totale_libretti - 1].descrizione_libretto = _descrizione;\r\n                libretti[numero_totale_libretti - 1].sovrascritto = 0; \r\n                \r\n                for (uint8 i = 0; i < _allegato.length; i++) {\r\n                    libretti[numero_totale_libretti - 1].allegato[i] = _allegato[i];\r\n                }\r\n                \r\n                libretti[numero_totale_libretti - 1].quanti_allegati = _allegato.length;\r\n                require(_percentuale != 0, \"Non ? possibile inserire un valore percentuale nullo\");\r\n                require(_percentuale <= 100, \"Non ? possibile inserire una valore percentuale superiore a 100\");\r\n                libretti[numero_totale_libretti - 1].percentuale_avanzamento = _percentuale; \r\n                numero_libretti++;\r\n                numero_totale_libretti++;\r\n            }\r\n        }\r\n    }\r\n    \r\n    \r\n    // PERMETTE SOLAMENTE DI MODIFICARE IL LIBRETTO PRIMA CHE IL DL ABBIA DECRETATO LA SUA FINE CON LA FUNZIONE finishLibretto\r\n    // lo si fa controllando che il numero del libretto sia coerente con il numero di libretto corrente\r\n    // permette al DL di modificare il libretto dei giornali in caso di errore\r\n    // per questo motivo il libretto contiene un campo sovrascritto in cui si adr? a riportare il rigo che ha sovrasctitto quel rigo\r\n    function updateLibretto (uint _numero, uint _libretto, string memory _codice, string memory _descrizione, uint _percentuale,\r\n    string[] memory _allegato) public onlyDirettoreLavori {\r\n        // per poter aggiungere un nuovo libretto, si richiede che le percentuali dei lavori non siano tutte al 100%\r\n        // si richiede quindi che la variabile che controlla non sia settata a true\r\n        require(!m.getPercentuali(), \"Tutte le lavorazioni hanno una percentuale pari al 100%\");\r\n        \r\n        //  richiesto che sia modificato solamente un rigo del libretto corrente\r\n        require (_libretto == libretto, \"Il libretto inserito  gi stato concluso\");\r\n        \r\n        // si controlla che non venga inserita una lavorazione con una percentuale inferiore alla percentuale attuale di quel lavoro\r\n        require(checkMaggiorePercentuale(_codice, _percentuale), \"Non pu essere inserita una percentuale inferiore a quella attuale\");\r\n        \r\n        //  richiesta la modifica solamente di un rigo gi inserito\r\n        require(_numero < numero_libretti, \"Il rigo che stai modificando non  stato inserito in precedenza\");\r\n        uint rigo = getRigoLibretto(_libretto, _numero);\r\n        libretti[numero_totale_libretti - 1].libretto = _libretto;\r\n        libretti[numero_totale_libretti - 1].codice_lavoro = _codice;\r\n        libretti[numero_totale_libretti - 1].numero_libretto = numero_libretti;\r\n        libretti[numero_totale_libretti - 1].data_libretto = now;\r\n        libretti[numero_totale_libretti - 1].descrizione_libretto = _descrizione;\r\n        require(_percentuale != 0, \"Non ? possibile inserire un valore percentuale nullo\");\r\n        require(_percentuale <= 100, \"Non ? possbile inserire un valore percentuale superiore a 100\");\r\n        libretti[numero_totale_libretti - 1].percentuale_avanzamento = _percentuale; \r\n        \r\n        for (uint8 i = 0; i < _allegato.length; i++) {\r\n            libretti[numero_totale_libretti - 1].allegato[i] = _allegato[i];\r\n        }\r\n        libretti[numero_totale_libretti - 1].quanti_allegati = _allegato.length;\r\n        libretti[rigo - 1].sovrascritto = numero_libretti;\r\n        numero_libretti++;\r\n        numero_totale_libretti++;\r\n    }\r\n    \r\n\r\n    \r\n    function checkLibrettoOk(uint _libretto) public returns(bool) {\r\n        (bool[] memory fir, bool[] memory firis, bool[] memory ris) = i.getRiserve1(_libretto);\r\n        for (uint i = 0; i < fir.length; i++) {\r\n            // fir contiene le firme o le firme con riserva, quindi dev essere per forza a true\r\n            // in caso contrario si restituisce false\r\n            if (!fir[i]) {\r\n                return false;\r\n            }\r\n            // se invece la firma c  si deve andare a controllare se sia una firma con riserva o una normale firma\r\n            else {\r\n                // se la firma  con riserva\r\n                if (firis[i]) {\r\n                    // e non  stata esplicitata la riserva, si restituisce false\r\n                    if (!ris[i]) {\r\n                        return false;\r\n                    }\r\n                }\r\n            }\r\n        } \r\n        return true;\r\n    }\r\n    \r\n    \r\n    \r\n    \r\n    // serve alla ditta per firmare il libretto senza riserva\r\n    // una volta che la ditta firma il libretto, vuol dire che tutto cio che c ? scritto ? stato confermato, quindi si pu? fare l update del valore\r\n    // _libretto e _rigo_libretto indicano il numero del libretto e il rigo di quel libretto su cui la ditta vuole inserire la firma\r\n    function insertFirmaDittaLibretto (uint _rigo_libretto, uint _libretto) public onlyDittaAppaltatrice {\r\n        require(libretto > _libretto, \"Il libretto non ? ancora stato terminato\"); // richiede che il libretto sia gia stato concluso\r\n        uint rigo = getRigoLibretto(_libretto, _rigo_libretto);\r\n        \r\n        // si inserisce la firma solo ai righi che non sono sovrascritti da altri, cio? quelli che hanno il campo sovrascr non inizializzato\r\n        require (libretti[rigo - 1].sovrascritto == 0, \"Non  possibile firmare un rigo sovrascritto\");\r\n        \r\n        // si richiede che il rigo non sia gi stato firmato\r\n        require(!a.checkFirma(_libretto, _rigo_libretto), \"Il rigo  gi stato firmato\");\r\n        \r\n        // si utilizza la setFirme normale, non quella con il polimorfismo per inserire anche una riserva\r\n        a.setFirme(_libretto, _rigo_libretto);\r\n        string memory codice = findCodice(_libretto, _rigo_libretto);\r\n        m.setPercentualeLavoro(codice, libretti[rigo - 1].percentuale_avanzamento); \r\n        m.updateValore(codice);\r\n        \r\n        // se sono state inserite tutte le firme a tutti i righi con evenutali riserve, allora il libretto  completo\r\n        if (checkLibrettoOk(_libretto)) {\r\n            // si va quindi a controllare che le percentuali di tutti i lavori siano al 100%, in modo da terminare il constratto\r\n            // se tutte sono al 100%\r\n            if (m.checkPercentuali()) {\r\n                // si chiama questa funzione che setta uan variabile a true per indicare che tutte le percentuali sono complete\r\n                m.setPercentuali();\r\n            }\r\n        }\r\n    }\r\n    \r\n    \r\n    // serve alla ditta per inserire la firma con riserva al libretto \r\n    function insertFirmaRiservaDittaLibretto (uint _rigo_libretto, uint _libretto) public onlyDittaAppaltatrice {\r\n        require(libretto > _libretto, \"Il libretto non ? ancora stato terminato\"); // richiede che il libretto sia gia stato concluso\r\n        uint rigo = getRigoLibretto(_libretto, _rigo_libretto);\r\n        \r\n        // si inserisce la firma solo ai righi che non sono sovrascritti da altri, cio? quelli che hanno il campo sovrascr non inizializzato\r\n        require (libretti[rigo - 1].sovrascritto == 0, \"Non  possibile firmare un rigo sovrascritto\");\r\n        \r\n        // si richiede che il rigo non sia gi stato firmato\r\n        require(!a.checkFirma(_libretto, _rigo_libretto), \"Il rigo  gi stato firmato\");\r\n        \r\n        // viene sempre firmata la transazione, ma si mette il campo true per dire che la transazione ? firmata con riserva\r\n        a.setFirme(_libretto, _rigo_libretto, true); \r\n    }\r\n    \r\n    \r\n   \r\n    // restituisce tutti i righi di un libretto\r\n    function findRighiLibretto (uint _libretto) public returns (uint[] memory) {\r\n        if (_libretto == 1) {\r\n            uint lunghezza = righi_max_libretto[_libretto - 1] - 1;\r\n            \r\n            uint[] memory rigo = new uint[](lunghezza);\r\n            \r\n            uint cont = 0;\r\n            \r\n            for (uint8 j = 0; j < lunghezza; j++) {\r\n                if (checkSovrascritto(j)) {\r\n                    rigo[cont] = libretti[j].numero_libretto;\r\n                    cont++;\r\n                }\r\n            }\r\n            return (rigo);\r\n        }\r\n        else {\r\n            uint lunghezza = righi_max_libretto[_libretto - 1] - righi_max_libretto[_libretto - 2];\r\n            \r\n            uint[] memory rigo = new uint[](lunghezza);\r\n            \r\n            uint cont = 0;\r\n            \r\n            for (uint j = (righi_max_libretto[_libretto - 2] - 1); j < (righi_max_libretto[_libretto - 1] - 1); j++) {\r\n                if (checkSovrascritto(j)) {\r\n                    rigo[cont] = libretti[j].numero_libretto;\r\n                    cont++;\r\n                }\r\n            }\r\n            return (rigo);\r\n        }\r\n    }\r\n    \r\n    \r\n    function checkSovrascritto(uint _rigo) public returns(bool) {\r\n        if (libretti[_rigo].sovrascritto == 0) {\r\n            return true;\r\n        }\r\n        return false;\r\n    }\r\n    \r\n    // per il campo sovrascritti restituisce 0 se quel rigo non ? sovrascritto, mentre il numero del rigo che lo sovrascrive nel caso sia sovrascritto\r\n    function getLibretti1(uint _libretto) public returns(uint[] memory, string[] memory, uint[] memory, uint[] memory) {\r\n        if (_libretto == libretto) {\r\n            if (_libretto == 1) {\r\n                uint lunghezza = (numero_totale_libretti - 1);\r\n                \r\n                uint[] memory date = new uint[](lunghezza);\r\n                string[] memory descriz = new string[](lunghezza);\r\n                uint[] memory sovra = new uint[](lunghezza);\r\n                uint[] memory rigo = new uint[](lunghezza);\r\n                \r\n                uint cont = 0;\r\n                \r\n                for (uint8 j = 0; j < lunghezza; j++) {\r\n                    sovra[cont] = libretti[j].sovrascritto;\r\n                    rigo[cont] = libretti[j].numero_libretto;\r\n                    date[cont] = libretti[j].data_libretto;\r\n                    descriz[cont] = libretti[j].descrizione_libretto;\r\n                    \r\n                    cont++;\r\n                }\r\n                return (date, descriz, sovra, rigo);\r\n            }\r\n            else {\r\n                uint lunghezza = ((numero_totale_libretti - 1) - (righi_max_libretto[_libretto - 2] - 1));\r\n                \r\n                uint[] memory date = new uint[](lunghezza);\r\n                string[] memory descriz = new string[](lunghezza);\r\n                uint[] memory sovra = new uint[](lunghezza);\r\n                uint[] memory rigo = new uint[](lunghezza);\r\n                \r\n                \r\n                uint cont = 0;\r\n                \r\n                for (uint j = (righi_max_libretto[_libretto - 2] - 1); j < (numero_totale_libretti - 1); j++) {\r\n                    sovra[cont] = libretti[j].sovrascritto;\r\n                    rigo[cont] = libretti[j].numero_libretto;\r\n                    date[cont] = libretti[j].data_libretto;\r\n                    descriz[cont] = libretti[j].descrizione_libretto;\r\n                    \r\n                    cont++;\r\n                }\r\n                return (date, descriz, sovra, rigo);\r\n            }\r\n        }\r\n        else if (_libretto < libretto) {\r\n            if (_libretto == 1) {\r\n                uint lunghezza = righi_max_libretto[_libretto - 1] - 1;\r\n                \r\n                uint[] memory date = new uint[](lunghezza);\r\n                string[] memory descriz = new string[](lunghezza);\r\n                uint[] memory sovra = new uint[](lunghezza);\r\n                uint[] memory rigo = new uint[](lunghezza);\r\n                \r\n                uint cont = 0;\r\n                \r\n                for (uint8 j = 0; j < lunghezza; j++) {\r\n                    sovra[cont] = libretti[j].sovrascritto;\r\n                    rigo[cont] = libretti[j].numero_libretto;\r\n                    date[cont] = libretti[j].data_libretto;\r\n                    descriz[cont] = libretti[j].descrizione_libretto;\r\n                    \r\n                    cont++;\r\n                }\r\n                return (date, descriz, sovra, rigo);\r\n            }\r\n            else {\r\n                uint lunghezza = righi_max_libretto[_libretto - 1] - righi_max_libretto[_libretto - 2];\r\n                \r\n                uint[] memory date = new uint[](lunghezza);\r\n                string[] memory descriz = new string[](lunghezza);\r\n                uint[] memory sovra = new uint[](lunghezza);\r\n                uint[] memory rigo = new uint[](lunghezza);\r\n                \r\n                uint cont = 0;\r\n                \r\n                for (uint j = (righi_max_libretto[_libretto - 2] - 1); j < (righi_max_libretto[_libretto - 1] - 1); j++) {\r\n                    sovra[cont] = libretti[j].sovrascritto;\r\n                    rigo[cont] = libretti[j].numero_libretto;\r\n                    date[cont] = libretti[j].data_libretto;\r\n                    descriz[cont] = libretti[j].descrizione_libretto;\r\n                    \r\n                    cont++;\r\n                }\r\n                return (date, descriz, sovra, rigo);\r\n            }\r\n        }\r\n    }\r\n    \r\n    \r\n    function getLibretti2(uint _libretto) public returns(string[] memory, uint[] memory, string[][] memory, uint[] memory) {\r\n        if (_libretto == libretto) {\r\n            if (_libretto == 1) {\r\n                uint lunghezza = (numero_totale_libretti - 1);\r\n                \r\n                string[] memory cod = new string[](lunghezza);\r\n                uint[] memory perc = new uint[](lunghezza);\r\n                string[][] memory all = new string[][](lunghezza);\r\n                \r\n                uint cont = 0;\r\n        \r\n                uint[] memory quanti = new uint[](lunghezza); \r\n                \r\n                for (uint8 j = 0; j < lunghezza; j++) {\r\n                    quanti[cont] = libretti[j].quanti_allegati;\r\n                    \r\n                    cod[cont] = libretti[j].codice_lavoro;\r\n                    perc[cont] = libretti[j].percentuale_avanzamento;\r\n                    \r\n                    string[] memory temp1 = new string[](quanti[cont]);\r\n                \r\n                    for (uint8 k = 0; k < quanti[cont]; k++) {\r\n                        temp1[k] = libretti[j].allegato[k];\r\n                    }\r\n                        \r\n                    all[cont] = temp1;\r\n                    \r\n                    cont++;\r\n                }\r\n                return (cod, perc, all, quanti);\r\n            }\r\n            else {\r\n                uint lunghezza = ((numero_totale_libretti - 1) - (righi_max_libretto[_libretto - 2] - 1));\r\n                \r\n                string[] memory cod = new string[](lunghezza);\r\n                uint[] memory perc = new uint[](lunghezza);\r\n                string[][] memory all = new string[][](lunghezza);\r\n                \r\n                uint cont = 0;\r\n                \r\n                uint[] memory quanti = new uint[](lunghezza); \r\n                \r\n                for (uint j = (righi_max_libretto[_libretto - 2] - 1); j < (numero_totale_libretti - 1); j++) {\r\n                    quanti[cont] = libretti[j].quanti_allegati;\r\n                    \r\n                    cod[cont] = libretti[j].codice_lavoro;\r\n                    perc[cont] = libretti[j].percentuale_avanzamento;\r\n                    \r\n                    string[] memory temp1 = new string[](quanti[cont]);\r\n                \r\n                    for (uint8 k = 0; k < quanti[cont]; k++) {\r\n                        temp1[k] = libretti[j].allegato[k];\r\n                    }\r\n                        \r\n                    all[cont] = temp1;\r\n                    \r\n                    cont++;\r\n                }\r\n                return (cod, perc, all, quanti);\r\n            }\r\n        }\r\n        else if (_libretto < libretto) {\r\n            if (_libretto == 1) {\r\n                uint lunghezza = righi_max_libretto[_libretto - 1] - 1;\r\n                \r\n                string[] memory cod = new string[](lunghezza);\r\n                uint[] memory perc = new uint[](lunghezza);\r\n                string[][] memory all = new string[][](lunghezza);\r\n                \r\n                uint cont = 0;\r\n                \r\n                uint[] memory quanti = new uint[](lunghezza); \r\n                \r\n                for (uint8 j = 0; j < lunghezza; j++) {\r\n                    quanti[cont] = libretti[j].quanti_allegati;\r\n                    \r\n                    cod[cont] = libretti[j].codice_lavoro;\r\n                    perc[cont] = libretti[j].percentuale_avanzamento;\r\n                    \r\n                    string[] memory temp1 = new string[](quanti[cont]);\r\n                \r\n                    for (uint8 k = 0; k < quanti[cont]; k++) {\r\n                        temp1[k] = libretti[j].allegato[k];\r\n                    }\r\n                        \r\n                    all[cont] = temp1;\r\n                    \r\n                    cont++;\r\n                }\r\n                return (cod, perc, all, quanti);\r\n            }\r\n            else {\r\n                uint lunghezza = righi_max_libretto[_libretto - 1] - righi_max_libretto[_libretto - 2];\r\n                \r\n                string[] memory cod = new string[](lunghezza);\r\n                uint[] memory perc = new uint[](lunghezza);\r\n                string[][] memory all = new string[][](lunghezza);\r\n                \r\n                uint cont = 0;\r\n                \r\n                uint[] memory quanti = new uint[](lunghezza); \r\n                \r\n                for (uint j = (righi_max_libretto[_libretto - 2] - 1); j < (righi_max_libretto[_libretto - 1] - 1); j++) {\r\n                    quanti[cont] = libretti[j].quanti_allegati;\r\n                    \r\n                    cod[cont] = libretti[j].codice_lavoro;\r\n                    perc[cont] = libretti[j].percentuale_avanzamento;\r\n                    \r\n                    string[] memory temp1 = new string[](quanti[cont]);\r\n                \r\n                    for (uint8 k = 0; k < quanti[cont]; k++) {\r\n                        temp1[k] = libretti[j].allegato[k];\r\n                    }\r\n                        \r\n                    all[cont] = temp1;\r\n                    \r\n                    cont++;\r\n                }\r\n                return (cod, perc, all, quanti);\r\n            }\r\n        }\r\n    }\r\n    \r\n    Firme a;\r\n    address private indirizzoFirme;\r\n    \r\n    function setIndirizzoFirme (address _indirizzo) public {\r\n        require(_indirizzo != address(0), \"L'indirizzo passato non ? valido\");\r\n        indirizzoFirme = _indirizzo;\r\n        a = Firme(indirizzoFirme);\r\n    }\r\n    \r\n    Riserve i;\r\n    address private indirizzoRiserve;\r\n    \r\n    function setIndirizzoRiserve (address _indirizzo) public {\r\n        require(_indirizzo != address(0), \"L'indirizzo passato non ? valido\");\r\n        indirizzoRiserve = _indirizzo;\r\n        i = Riserve(indirizzoRiserve);\r\n    }\r\n    \r\n    Misure m;\r\n    address private indirizzoMisure;\r\n    \r\n    function setIndirizzoMisure (address _indirizzo) public {\r\n        require(_indirizzo != address(0), \"L'indirizzo passato non ? valido\");\r\n        indirizzoMisure = _indirizzo;\r\n        m = Misure(indirizzoMisure);\r\n    }\r\n    \r\n    \r\n    modifier onlyDirettoreLavori {\r\n        // solo il Direttore dei Lavori pu? utilizzare questa funzione\r\n        require(\r\n            m.enableDL(msg.sender), \"Solo il Direttore dei Lavori pu? utilizzare questa funzione\"\r\n        );\r\n        _; //indica dove deve essere posta la funzione chiamata\r\n    } \r\n    \r\n    modifier onlyRup {\r\n        // solo il rup pu? utilizzare questa funzione\r\n        require(\r\n            m.enableRUP(msg.sender), \"Solo il RUP pu? utilizzare questa funzione\"\r\n        );\r\n        _; //indica dove deve essere posta la funzione chiamata\r\n    }  \r\n    \r\n    modifier onlyDittaAppaltatrice {\r\n        // solo la ditta appaltatrice pu? utilizzare questa funzione\r\n        require(\r\n            m.enableDitta(msg.sender), \"Solo la ditta appaltatrice pu? utilizzare questa funzione\"\r\n        );\r\n        _; //indica dove deve essere posta la funzione chiamata\r\n    }  \r\n    \r\n    function killLibretto() public {\r\n        selfdestruct(msg.sender);\r\n    }\r\n}\r\n",
  "sourcePath": "/Users/roby/Desktop/ServerIds/truffle/contracts/Libretto.sol",
  "compiler": {
    "name": "solc",
    "version": "0.5.0+commit.1d4f565a.Emscripten.clang"
  },
  "schemaVersion": "3.0.8",
  "updatedAt": "2019-09-06T09:37:53.813Z",
  "devdoc": {
    "methods": {}
  },
  "userdoc": {
    "methods": {}
  }
}