{
  "contractName": "Misure",
  "abi": [
    {
      "inputs": [],
      "payable": false,
      "stateMutability": "nonpayable",
      "type": "constructor",
      "signature": "constructor"
    },
    {
      "constant": false,
      "inputs": [
        {
          "name": "_codice",
          "type": "string"
        }
      ],
      "name": "getPercentuale",
      "outputs": [
        {
          "name": "",
          "type": "uint256"
        }
      ],
      "payable": false,
      "stateMutability": "nonpayable",
      "type": "function",
      "signature": "0xc71fccb8"
    },
    {
      "constant": false,
      "inputs": [],
      "name": "checkPercentuali",
      "outputs": [
        {
          "name": "",
          "type": "bool"
        }
      ],
      "payable": false,
      "stateMutability": "nonpayable",
      "type": "function",
      "signature": "0xf6070aa0"
    },
    {
      "constant": false,
      "inputs": [],
      "name": "setPercentuali",
      "outputs": [],
      "payable": false,
      "stateMutability": "nonpayable",
      "type": "function",
      "signature": "0x3d1be3dd"
    },
    {
      "constant": false,
      "inputs": [],
      "name": "getPercentuali",
      "outputs": [
        {
          "name": "",
          "type": "bool"
        }
      ],
      "payable": false,
      "stateMutability": "nonpayable",
      "type": "function",
      "signature": "0xad6b4f29"
    },
    {
      "constant": false,
      "inputs": [],
      "name": "getInserimenti",
      "outputs": [
        {
          "name": "",
          "type": "bool"
        }
      ],
      "payable": false,
      "stateMutability": "nonpayable",
      "type": "function",
      "signature": "0xc52290a6"
    },
    {
      "constant": false,
      "inputs": [],
      "name": "finishInserimenti",
      "outputs": [],
      "payable": false,
      "stateMutability": "nonpayable",
      "type": "function",
      "signature": "0x6ad5e8a6"
    },
    {
      "constant": false,
      "inputs": [],
      "name": "getNumeroLavori",
      "outputs": [
        {
          "name": "",
          "type": "uint256"
        }
      ],
      "payable": false,
      "stateMutability": "nonpayable",
      "type": "function",
      "signature": "0x97ba63f8"
    },
    {
      "constant": false,
      "inputs": [],
      "name": "getLavori",
      "outputs": [
        {
          "name": "",
          "type": "string[]"
        },
        {
          "name": "",
          "type": "string[]"
        },
        {
          "name": "",
          "type": "uint256[]"
        }
      ],
      "payable": false,
      "stateMutability": "nonpayable",
      "type": "function",
      "signature": "0x3552b78a"
    },
    {
      "constant": false,
      "inputs": [],
      "name": "setSuperata",
      "outputs": [],
      "payable": false,
      "stateMutability": "nonpayable",
      "type": "function",
      "signature": "0x26442d49"
    },
    {
      "constant": false,
      "inputs": [],
      "name": "getSuperata",
      "outputs": [
        {
          "name": "",
          "type": "bool"
        }
      ],
      "payable": false,
      "stateMutability": "nonpayable",
      "type": "function",
      "signature": "0x88865dd2"
    },
    {
      "constant": false,
      "inputs": [],
      "name": "setNonSuperata",
      "outputs": [],
      "payable": false,
      "stateMutability": "nonpayable",
      "type": "function",
      "signature": "0x893371c0"
    },
    {
      "constant": false,
      "inputs": [],
      "name": "getNumeroAcconto",
      "outputs": [
        {
          "name": "",
          "type": "uint256"
        }
      ],
      "payable": false,
      "stateMutability": "nonpayable",
      "type": "function",
      "signature": "0xb02b5ac3"
    },
    {
      "constant": false,
      "inputs": [],
      "name": "updateNumeroAcconto",
      "outputs": [
        {
          "name": "",
          "type": "uint256"
        }
      ],
      "payable": false,
      "stateMutability": "nonpayable",
      "type": "function",
      "signature": "0xeb858b40"
    },
    {
      "constant": false,
      "inputs": [],
      "name": "getSoglia",
      "outputs": [
        {
          "name": "",
          "type": "uint256"
        }
      ],
      "payable": false,
      "stateMutability": "nonpayable",
      "type": "function",
      "signature": "0x8c172259"
    },
    {
      "constant": false,
      "inputs": [
        {
          "name": "_soglia",
          "type": "uint256"
        }
      ],
      "name": "updateSoglia",
      "outputs": [],
      "payable": false,
      "stateMutability": "nonpayable",
      "type": "function",
      "signature": "0xd0a4bc76"
    },
    {
      "constant": false,
      "inputs": [
        {
          "name": "_codice",
          "type": "string"
        },
        {
          "name": "_nome",
          "type": "string"
        },
        {
          "name": "_costo",
          "type": "uint256"
        }
      ],
      "name": "addLavoro",
      "outputs": [],
      "payable": false,
      "stateMutability": "nonpayable",
      "type": "function",
      "signature": "0x2f99b4fd"
    },
    {
      "constant": false,
      "inputs": [
        {
          "name": "_codice",
          "type": "string"
        }
      ],
      "name": "checkLavoroInserito",
      "outputs": [
        {
          "name": "",
          "type": "bool"
        }
      ],
      "payable": false,
      "stateMutability": "nonpayable",
      "type": "function",
      "signature": "0x44590f89"
    },
    {
      "constant": false,
      "inputs": [
        {
          "name": "_codice",
          "type": "string"
        },
        {
          "name": "_nome",
          "type": "string"
        },
        {
          "name": "_costo",
          "type": "uint256"
        }
      ],
      "name": "updateLavoro",
      "outputs": [],
      "payable": false,
      "stateMutability": "nonpayable",
      "type": "function",
      "signature": "0x1da3a3bb"
    },
    {
      "constant": false,
      "inputs": [
        {
          "name": "_codice",
          "type": "string"
        }
      ],
      "name": "findNomeLavoro",
      "outputs": [
        {
          "name": "",
          "type": "string"
        }
      ],
      "payable": false,
      "stateMutability": "nonpayable",
      "type": "function",
      "signature": "0xe37f1bd8"
    },
    {
      "constant": false,
      "inputs": [
        {
          "name": "_codice",
          "type": "string"
        }
      ],
      "name": "findNumeroLavoro",
      "outputs": [
        {
          "name": "",
          "type": "uint256"
        }
      ],
      "payable": false,
      "stateMutability": "nonpayable",
      "type": "function",
      "signature": "0xdb18d857"
    },
    {
      "constant": false,
      "inputs": [
        {
          "name": "_codice",
          "type": "string"
        }
      ],
      "name": "findCostoLavoro",
      "outputs": [
        {
          "name": "",
          "type": "uint256"
        }
      ],
      "payable": false,
      "stateMutability": "nonpayable",
      "type": "function",
      "signature": "0xb8017f18"
    },
    {
      "constant": false,
      "inputs": [
        {
          "name": "i",
          "type": "uint256"
        }
      ],
      "name": "readLavori",
      "outputs": [
        {
          "name": "",
          "type": "string"
        },
        {
          "name": "",
          "type": "string"
        },
        {
          "name": "",
          "type": "uint256"
        },
        {
          "name": "",
          "type": "uint256"
        },
        {
          "name": "",
          "type": "uint256"
        }
      ],
      "payable": false,
      "stateMutability": "nonpayable",
      "type": "function",
      "signature": "0xa0d5cf95"
    },
    {
      "constant": false,
      "inputs": [
        {
          "name": "_codice",
          "type": "string"
        },
        {
          "name": "_percentuale",
          "type": "uint256"
        }
      ],
      "name": "setPercentualeLavoro",
      "outputs": [],
      "payable": false,
      "stateMutability": "nonpayable",
      "type": "function",
      "signature": "0x35079ea7"
    },
    {
      "constant": false,
      "inputs": [],
      "name": "countCostoTotale",
      "outputs": [
        {
          "name": "",
          "type": "uint256"
        }
      ],
      "payable": false,
      "stateMutability": "nonpayable",
      "type": "function",
      "signature": "0x81370651"
    },
    {
      "constant": false,
      "inputs": [
        {
          "name": "_codice",
          "type": "string"
        }
      ],
      "name": "countPercentualeLavoro",
      "outputs": [
        {
          "name": "",
          "type": "uint256"
        }
      ],
      "payable": false,
      "stateMutability": "nonpayable",
      "type": "function",
      "signature": "0xe5789c34"
    },
    {
      "constant": false,
      "inputs": [
        {
          "name": "_codice",
          "type": "string"
        }
      ],
      "name": "countCostoRaggiunto",
      "outputs": [
        {
          "name": "",
          "type": "uint256"
        }
      ],
      "payable": false,
      "stateMutability": "nonpayable",
      "type": "function",
      "signature": "0x3d90d56f"
    },
    {
      "constant": false,
      "inputs": [
        {
          "name": "_codice",
          "type": "string"
        }
      ],
      "name": "countPercentualeRaggiunta",
      "outputs": [
        {
          "name": "",
          "type": "uint256"
        }
      ],
      "payable": false,
      "stateMutability": "nonpayable",
      "type": "function",
      "signature": "0x5c11597f"
    },
    {
      "constant": false,
      "inputs": [],
      "name": "getValoreTotale",
      "outputs": [
        {
          "name": "",
          "type": "uint256"
        },
        {
          "name": "",
          "type": "uint256"
        }
      ],
      "payable": false,
      "stateMutability": "nonpayable",
      "type": "function",
      "signature": "0x2d23f827"
    },
    {
      "constant": false,
      "inputs": [
        {
          "name": "_codice",
          "type": "string"
        }
      ],
      "name": "updateValore",
      "outputs": [],
      "payable": false,
      "stateMutability": "nonpayable",
      "type": "function",
      "signature": "0x2a1658fa"
    },
    {
      "constant": false,
      "inputs": [
        {
          "name": "_indirizzo",
          "type": "address"
        }
      ],
      "name": "enableDL",
      "outputs": [
        {
          "name": "",
          "type": "bool"
        }
      ],
      "payable": false,
      "stateMutability": "nonpayable",
      "type": "function",
      "signature": "0x00deb5d6"
    },
    {
      "constant": false,
      "inputs": [
        {
          "name": "_indirizzo",
          "type": "address"
        }
      ],
      "name": "enableRUP",
      "outputs": [
        {
          "name": "",
          "type": "bool"
        }
      ],
      "payable": false,
      "stateMutability": "nonpayable",
      "type": "function",
      "signature": "0xd601ad82"
    },
    {
      "constant": false,
      "inputs": [
        {
          "name": "_indirizzo",
          "type": "address"
        }
      ],
      "name": "enableDitta",
      "outputs": [
        {
          "name": "",
          "type": "bool"
        }
      ],
      "payable": false,
      "stateMutability": "nonpayable",
      "type": "function",
      "signature": "0x8204933c"
    },
    {
      "constant": false,
      "inputs": [],
      "name": "killMisure",
      "outputs": [],
      "payable": false,
      "stateMutability": "nonpayable",
      "type": "function",
      "signature": "0x9a17f534"
    }
  ],
  "bytecode": "0x608060405260006001556000600260006101000a81548160ff0219169083151502179055506000600260016101000a81548160ff0219169083151502179055506000600355600160045534801561005557600080fd5b5033600a60006101000a81548173ffffffffffffffffffffffffffffffffffffffff021916908373ffffffffffffffffffffffffffffffffffffffff16021790555073ca843569e3427144cead5e4d5999a3d0ccf92b8e600860006101000a81548173ffffffffffffffffffffffffffffffffffffffff021916908373ffffffffffffffffffffffffffffffffffffffff160217905550730fbdc686b912d7722dc86510934589e0aaf3b55a600960006101000a81548173ffffffffffffffffffffffffffffffffffffffff021916908373ffffffffffffffffffffffffffffffffffffffff1602179055506002600b6000600960009054906101000a900473ffffffffffffffffffffffffffffffffffffffff1673ffffffffffffffffffffffffffffffffffffffff1673ffffffffffffffffffffffffffffffffffffffff16815260200190815260200160002060006101000a81548160ff021916908360028111156101bf57fe5b02179055506001600b6000600860009054906101000a900473ffffffffffffffffffffffffffffffffffffffff1673ffffffffffffffffffffffffffffffffffffffff1673ffffffffffffffffffffffffffffffffffffffff16815260200190815260200160002060006101000a81548160ff0219169083600281111561024257fe5b02179055506000600b6000600a60009054906101000a900473ffffffffffffffffffffffffffffffffffffffff1673ffffffffffffffffffffffffffffffffffffffff1673ffffffffffffffffffffffffffffffffffffffff16815260200190815260200160002060006101000a81548160ff021916908360028111156102c557fe5b02179055506064600681905550600060078190555061297d806102e96000396000f3fe6080604052600436106101a0576000357c0100000000000000000000000000000000000000000000000000000000900463ffffffff168062deb5d6146101a55780631da3a3bb146101e257806326442d491461020b5780632a1658fa146102225780632d23f8271461024b5780632f99b4fd1461027757806335079ea7146102a05780633552b78a146102c95780633d1be3dd146102f65780633d90d56f1461030d57806344590f891461034a5780635c11597f146103875780636ad5e8a6146103c457806381370651146103db5780638204933c1461040657806388865dd214610443578063893371c01461046e5780638c1722591461048557806397ba63f8146104b05780639a17f534146104db578063a0d5cf95146104f2578063ad6b4f2914610533578063b02b5ac31461055e578063b8017f1814610589578063c52290a6146105c6578063c71fccb8146105f1578063d0a4bc761461062e578063d601ad8214610657578063db18d85714610694578063e37f1bd8146106d1578063e5789c341461070e578063eb858b401461074b578063f6070aa014610776575b600080fd5b3480156101b157600080fd5b506101cc60048036036101c79190810190612021565b6107a1565b6040516101d99190612623565b60405180910390f35b3480156101ee57600080fd5b506102096004803603610204919081019061208b565b610891565b005b34801561021757600080fd5b50610220610a34565b005b34801561022e57600080fd5b506102496004803603610244919081019061204a565b610a51565b005b34801561025757600080fd5b50610260610a8b565b60405161026e9291906127bc565b60405180910390f35b34801561028357600080fd5b5061029e6004803603610299919081019061208b565b610a9c565b005b3480156102ac57600080fd5b506102c760048036036102c2919081019061210a565b610d1a565b005b3480156102d557600080fd5b506102de610d46565b6040516102ed939291906125d7565b60405180910390f35b34801561030257600080fd5b5061030b610ff7565b005b34801561031957600080fd5b50610334600480360361032f919081019061204a565b611014565b60405161034191906127a1565b60405180910390f35b34801561035657600080fd5b50610371600480360361036c919081019061204a565b611069565b60405161037e9190612623565b60405180910390f35b34801561039357600080fd5b506103ae60048036036103a9919081019061204a565b611159565b6040516103bb91906127a1565b60405180910390f35b3480156103d057600080fd5b506103d96111a1565b005b3480156103e757600080fd5b506103f06112ee565b6040516103fd91906127a1565b60405180910390f35b34801561041257600080fd5b5061042d60048036036104289190810190612021565b611334565b60405161043a9190612623565b60405180910390f35b34801561044f57600080fd5b50610458611425565b6040516104659190612623565b60405180910390f35b34801561047a57600080fd5b5061048361143c565b005b34801561049157600080fd5b5061049a611459565b6040516104a791906127a1565b60405180910390f35b3480156104bc57600080fd5b506104c5611463565b6040516104d291906127a1565b60405180910390f35b3480156104e757600080fd5b506104f061146d565b005b3480156104fe57600080fd5b506105196004803603610514919081019061215e565b611486565b60405161052a959493929190612660565b60405180910390f35b34801561053f57600080fd5b50610548611645565b6040516105559190612623565b60405180910390f35b34801561056a57600080fd5b5061057361165c565b60405161058091906127a1565b60405180910390f35b34801561059557600080fd5b506105b060048036036105ab919081019061204a565b611666565b6040516105bd91906127a1565b60405180910390f35b3480156105d257600080fd5b506105db611766565b6040516105e89190612623565b60405180910390f35b3480156105fd57600080fd5b506106186004803603610613919081019061204a565b61177d565b60405161062591906127a1565b60405180910390f35b34801561063a57600080fd5b506106556004803603610650919081019061215e565b61187d565b005b34801561066357600080fd5b5061067e60048036036106799190810190612021565b611929565b60405161068b9190612623565b60405180910390f35b3480156106a057600080fd5b506106bb60048036036106b6919081019061204a565b611a1a565b6040516106c891906127a1565b60405180910390f35b3480156106dd57600080fd5b506106f860048036036106f3919081019061204a565b611b05565b604051610705919061263e565b60405180910390f35b34801561071a57600080fd5b506107356004803603610730919081019061204a565b611c9d565b60405161074291906127a1565b60405180910390f35b34801561075757600080fd5b50610760611ce9565b60405161076d91906127a1565b60405180910390f35b34801561078257600080fd5b5061078b611d00565b6040516107989190612623565b60405180910390f35b60008073ffffffffffffffffffffffffffffffffffffffff168273ffffffffffffffffffffffffffffffffffffffff1614151515610814576040517f08c379a000000000000000000000000000000000000000000000000000000000815260040161080b906126e1565b60405180910390fd5b60028081111561082057fe5b600b60008473ffffffffffffffffffffffffffffffffffffffff1673ffffffffffffffffffffffffffffffffffffffff16815260200190815260200160002060009054906101000a900460ff16600281111561087857fe5b1415610887576001905061088c565b600090505b919050565b60001515600260019054906101000a900460ff1615151415156108e9576040517f08c379a00000000000000000000000000000000000000000000000000000000081526004016108e090612781565b60405180910390fd5b6108f233611929565b1515610933576040517f08c379a000000000000000000000000000000000000000000000000000000000815260040161092a90612701565b60405180910390fd5b61093c83611069565b151561097d576040517f08c379a000000000000000000000000000000000000000000000000000000000815260040161097490612761565b60405180910390fd5b600061098884611a1a565b90508360008083815260200190815260200160002060000190805190602001906109b3929190611efe565b508260008083815260200190815260200160002060010190805190602001906109dd929190611efe565b50816000808381526020019081526020016000206004018190555060008060008381526020019081526020016000206002018190555060008060008381526020019081526020016000206003018190555050505050565b6001600560006101000a81548160ff021916908315150217905550565b6000610a5c82611d51565b90508060076000828254019250508190555080600660008282540392505081905550610a8782611db6565b5050565b600080600754600654915091509091565b60001515600260019054906101000a900460ff161515141515610af4576040517f08c379a0000000000000000000000000000000000000000000000000000000008152600401610aeb90612781565b60405180910390fd5b610afd33611929565b1515610b3e576040517f08c379a0000000000000000000000000000000000000000000000000000000008152600401610b3590612701565b60405180910390fd5b60008090505b600154811015610c5457610c056000808381526020019081526020016000206000018054600181600116156101000203166002900480601f016020809104026020016040519081016040528092919081815260200182805460018160011615610100020316600290048015610bfa5780601f10610bcf57610100808354040283529160200191610bfa565b820191906000526020600020905b815481529060010190602001808311610bdd57829003601f168201915b505050505085611df6565b151515610c47576040517f08c379a0000000000000000000000000000000000000000000000000000000008152600401610c3e90612721565b60405180910390fd5b8080600101915050610b44565b508260008060015481526020019081526020016000206000019080519060200190610c80929190611efe565b508160008060015481526020019081526020016000206001019080519060200190610cac929190611efe565b508060008060015481526020019081526020016000206004018190555060008060006001548152602001908152602001600020600201819055506000806000600154815260200190815260200160002060030181905550600160008154809291906001019190505550505050565b6000610d2583611a1a565b90508160008083815260200190815260200160002060020181905550505050565b606080606080600154604051908082528060200260200182016040528015610d8257816020015b6060815260200190600190039081610d6d5790505b5090506060600154604051908082528060200260200182016040528015610dbd57816020015b6060815260200190600190039081610da85790505b5090506060600154604051908082528060200260200182016040528015610df35781602001602082028038833980820191505090505b509050600080905060008090505b600154811015610fe4576000808281526020019081526020016000206000018054600181600116156101000203166002900480601f016020809104026020016040519081016040528092919081815260200182805460018160011615610100020316600290048015610eb45780601f10610e8957610100808354040283529160200191610eb4565b820191906000526020600020905b815481529060010190602001808311610e9757829003601f168201915b50505050508583815181101515610ec757fe5b906020019060200201819052506000808281526020019081526020016000206001018054600181600116156101000203166002900480601f016020809104026020016040519081016040528092919081815260200182805460018160011615610100020316600290048015610f7d5780601f10610f5257610100808354040283529160200191610f7d565b820191906000526020600020905b815481529060010190602001808311610f6057829003601f168201915b50505050508483815181101515610f9057fe5b90602001906020020181905250600080828152602001908152602001600020600401548383815181101515610fc157fe5b906020019060200201818152505081806001019250508080600101915050610e01565b5083838396509650965050505050909192565b6001600260006101000a81548160ff021916908315150217905550565b600080600061102284611a1a565b9050606460008083815260200190815260200160002060020154600080848152602001908152602001600020600401540281151561105c57fe5b0491508192505050919050565b600080600090505b60015481101561114e576111326000808381526020019081526020016000206000018054600181600116156101000203166002900480601f0160208091040260200160405190810160405280929190818152602001828054600181600116156101000203166002900480156111275780601f106110fc57610100808354040283529160200191611127565b820191906000526020600020905b81548152906001019060200180831161110a57829003601f168201915b505050505084611df6565b15611141576001915050611154565b8080600101915050611071565b50600090505b919050565b60008061116583611c9d565b9050600061117284611a1a565b9050606460008083815260200190815260200160002060020154830281151561119757fe5b0492505050919050565b60001515600260019054906101000a900460ff1615151415156111f9576040517f08c379a00000000000000000000000000000000000000000000000000000000081526004016111f090612781565b60405180910390fd5b61120233611929565b1515611243576040517f08c379a000000000000000000000000000000000000000000000000000000000815260040161123a90612701565b60405180910390fd5b600060015411151561128a576040517f08c379a0000000000000000000000000000000000000000000000000000000008152600401611281906126c1565b60405180910390fd5b60006003541115156112d1576040517f08c379a00000000000000000000000000000000000000000000000000000000081526004016112c890612741565b60405180910390fd5b6001600260016101000a81548160ff021916908315150217905550565b6000806000905060008090505b60015481101561132c57600080828152602001908152602001600020600401548201915080806001019150506112fb565b508091505090565b60008073ffffffffffffffffffffffffffffffffffffffff168273ffffffffffffffffffffffffffffffffffffffff16141515156113a7576040517f08c379a000000000000000000000000000000000000000000000000000000000815260040161139e906126e1565b60405180910390fd5b600160028111156113b457fe5b600b60008473ffffffffffffffffffffffffffffffffffffffff1673ffffffffffffffffffffffffffffffffffffffff16815260200190815260200160002060009054906101000a900460ff16600281111561140c57fe5b141561141b5760019050611420565b600090505b919050565b6000600560009054906101000a900460ff16905090565b6000600560006101000a81548160ff021916908315150217905550565b6000600354905090565b6000600154905090565b3373ffffffffffffffffffffffffffffffffffffffff16ff5b6060806000806000806000878152602001908152602001600020600001600080888152602001908152602001600020600101600080898152602001908152602001600020600201546000808a8152602001908152602001600020600301546000808b815260200190815260200160002060040154848054600181600116156101000203166002900480601f01602080910402602001604051908101604052809291908181526020018280546001816001161561010002031660029004801561158f5780601f106115645761010080835404028352916020019161158f565b820191906000526020600020905b81548152906001019060200180831161157257829003601f168201915b50505050509450838054600181600116156101000203166002900480601f01602080910402602001604051908101604052809291908181526020018280546001816001161561010002031660029004801561162b5780601f106116005761010080835404028352916020019161162b565b820191906000526020600020905b81548152906001019060200180831161160e57829003601f168201915b505050505093509450945094509450945091939590929450565b6000600260009054906101000a900460ff16905090565b6000600454905090565b600080600090505b60015481101561175f5761172f6000808381526020019081526020016000206000018054600181600116156101000203166002900480601f0160208091040260200160405190810160405280929190818152602001828054600181600116156101000203166002900480156117245780601f106116f957610100808354040283529160200191611724565b820191906000526020600020905b81548152906001019060200180831161170757829003601f168201915b505050505084611df6565b156117525760008082815260200190815260200160002060040154915050611761565b808060010191505061166e565b505b919050565b6000600260019054906101000a900460ff16905090565b600080600090505b600154811015611876576118466000808381526020019081526020016000206000018054600181600116156101000203166002900480601f01602080910402602001604051908101604052809291908181526020018280546001816001161561010002031660029004801561183b5780601f106118105761010080835404028352916020019161183b565b820191906000526020600020905b81548152906001019060200180831161181e57829003601f168201915b505050505084611df6565b156118695760008082815260200190815260200160002060020154915050611878565b8080600101915050611785565b505b919050565b60001515600260019054906101000a900460ff1615151415156118d5576040517f08c379a00000000000000000000000000000000000000000000000000000000081526004016118cc90612781565b60405180910390fd5b6118de33611929565b151561191f576040517f08c379a000000000000000000000000000000000000000000000000000000000815260040161191690612701565b60405180910390fd5b8060038190555050565b60008073ffffffffffffffffffffffffffffffffffffffff168273ffffffffffffffffffffffffffffffffffffffff161415151561199c576040517f08c379a0000000000000000000000000000000000000000000000000000000008152600401611993906126e1565b60405180910390fd5b600060028111156119a957fe5b600b60008473ffffffffffffffffffffffffffffffffffffffff1673ffffffffffffffffffffffffffffffffffffffff16815260200190815260200160002060009054906101000a900460ff166002811115611a0157fe5b1415611a105760019050611a15565b600090505b919050565b600080600090505b600154811015611afe57611ae36000808381526020019081526020016000206000018054600181600116156101000203166002900480601f016020809104026020016040519081016040528092919081815260200182805460018160011615610100020316600290048015611ad85780601f10611aad57610100808354040283529160200191611ad8565b820191906000526020600020905b815481529060010190602001808311611abb57829003601f168201915b505050505084611df6565b15611af15780915050611b00565b8080600101915050611a22565b505b919050565b606060008090505b600154811015611c9657611bce6000808381526020019081526020016000206000018054600181600116156101000203166002900480601f016020809104026020016040519081016040528092919081815260200182805460018160011615610100020316600290048015611bc35780601f10611b9857610100808354040283529160200191611bc3565b820191906000526020600020905b815481529060010190602001808311611ba657829003601f168201915b505050505084611df6565b15611c89576000808281526020019081526020016000206001018054600181600116156101000203166002900480601f016020809104026020016040519081016040528092919081815260200182805460018160011615610100020316600290048015611c7c5780601f10611c5157610100808354040283529160200191611c7c565b820191906000526020600020905b815481529060010190602001808311611c5f57829003601f168201915b5050505050915050611c98565b8080600101915050611b0d565b505b919050565b600080611ca86112ee565b9050600080611cb685611a1a565b90508260646000808481526020019081526020016000206004015402811515611cdb57fe5b049150819350505050919050565b600060046000815480929190600101919050555090565b600080600090505b600154811015611d4857606460008083815260200190815260200160002060020154141515611d3b576000915050611d4e565b8080600101915050611d08565b50600190505b90565b600080611d5d83611a1a565b90506000611d6a84611c9d565b9050600060646000808581526020019081526020016000206003015460008086815260200190815260200160002060020154038302811515611da857fe5b049050809350505050919050565b6000611dc182611a1a565b905060008082815260200190815260200160002060020154600080838152602001908152602001600020600301819055505050565b600081518351141515611e0c5760009050611ef8565b816040516020018082805190602001908083835b602083101515611e455780518252602082019150602081019050602083039250611e20565b6001836020036101000a03801982511681845116808217855250505050505090500191505060405160208183030381529060405280519060200120836040516020018082805190602001908083835b602083101515611eb95780518252602082019150602081019050602083039250611e94565b6001836020036101000a038019825116818451168082178552505050505050905001915050604051602081830303815290604052805190602001201490505b92915050565b828054600181600116156101000203166002900490600052602060002090601f016020900481019282601f10611f3f57805160ff1916838001178555611f6d565b82800160010185558215611f6d579182015b82811115611f6c578251825591602001919060010190611f51565b5b509050611f7a9190611f7e565b5090565b611fa091905b80821115611f9c576000816000905550600101611f84565b5090565b90565b6000611faf82356128d4565b905092915050565b600082601f8301121515611fca57600080fd5b8135611fdd611fd882612812565b6127e5565b91508082526020830160208301858383011115611ff957600080fd5b6120048382846128f0565b50505092915050565b600061201982356128e6565b905092915050565b60006020828403121561203357600080fd5b600061204184828501611fa3565b91505092915050565b60006020828403121561205c57600080fd5b600082013567ffffffffffffffff81111561207657600080fd5b61208284828501611fb7565b91505092915050565b6000806000606084860312156120a057600080fd5b600084013567ffffffffffffffff8111156120ba57600080fd5b6120c686828701611fb7565b935050602084013567ffffffffffffffff8111156120e357600080fd5b6120ef86828701611fb7565b92505060406121008682870161200d565b9150509250925092565b6000806040838503121561211d57600080fd5b600083013567ffffffffffffffff81111561213757600080fd5b61214385828601611fb7565b92505060206121548582860161200d565b9150509250929050565b60006020828403121561217057600080fd5b600061217e8482850161200d565b91505092915050565b600061219282612858565b808452602084019350836020820285016121ab8561283e565b60005b848110156121e45783830388526121c6838351612295565b92506121d182612884565b91506020880197506001810190506121ae565b508196508694505050505092915050565b600061220082612863565b8084526020840193506122128361284b565b60005b82811015612244576122288683516125c8565b61223182612891565b9150602086019550600181019050612215565b50849250505092915050565b6122598161289e565b82525050565b600061226a82612879565b80845261227e8160208601602086016128ff565b61228781612932565b602085010191505092915050565b60006122a08261286e565b8084526122b48160208601602086016128ff565b6122bd81612932565b602085010191505092915050565b6000604a82527f5369206465766520696e73657269726520616c6d656e6f20756e206c61766f7260208301527f6f207072696d6120646920706f746572207465726d696e61726520676c69206960408301527f6e736572696d656e7469000000000000000000000000000000000000000000006060830152608082019050919050565b6000602082527f4c27696e646972697a7a6f207061737361746f206e6f6e203f2076616c69646f6020830152604082019050919050565b6000602a82527f536f6c6f20696c205255502070753f207574696c697a7a61726520717565737460208301527f612066756e7a696f6e65000000000000000000000000000000000000000000006040830152606082019050919050565b6000604282527f496c20636f646963652064656c206c61766f726f20696e73657269746f203f2060208301527f737461746f2067693f20707265636564656e74656d656e746520696e7365726960408301527f746f0000000000000000000000000000000000000000000000000000000000006060830152608082019050919050565b6000604482527f5369206465766520696e73657269726520756e6120736f676c6961207072696d60208301527f6120646920706f746572207465726d696e61726520676c6920696e736572696d60408301527f656e7469000000000000000000000000000000000000000000000000000000006060830152608082019050919050565b6000603082527f496c20636f646963652064656c206c61766f726f206e6f6e203f20616e636f7260208301527f6120737461746f20696e73657269746f000000000000000000000000000000006040830152606082019050919050565b6000604782527f4e6f6e203f20706f73736962696c65207574696c697a7a61726520717565737460208301527f612066756e7a696f6e6520696e2071756573746120666173652064656c20636f60408301527f6e74726174746f000000000000000000000000000000000000000000000000006060830152608082019050919050565b6125d1816128ca565b82525050565b600060608201905081810360008301526125f18186612187565b905081810360208301526126058185612187565b9050818103604083015261261981846121f5565b9050949350505050565b60006020820190506126386000830184612250565b92915050565b60006020820190508181036000830152612658818461225f565b905092915050565b600060a082019050818103600083015261267a818861225f565b9050818103602083015261268e818761225f565b905061269d60408301866125c8565b6126aa60608301856125c8565b6126b760808301846125c8565b9695505050505050565b600060208201905081810360008301526126da816122cb565b9050919050565b600060208201905081810360008301526126fa8161234e565b9050919050565b6000602082019050818103600083015261271a81612385565b9050919050565b6000602082019050818103600083015261273a816123e2565b9050919050565b6000602082019050818103600083015261275a81612465565b9050919050565b6000602082019050818103600083015261277a816124e8565b9050919050565b6000602082019050818103600083015261279a81612545565b9050919050565b60006020820190506127b660008301846125c8565b92915050565b60006040820190506127d160008301856125c8565b6127de60208301846125c8565b9392505050565b6000604051905081810181811067ffffffffffffffff8211171561280857600080fd5b8060405250919050565b600067ffffffffffffffff82111561282957600080fd5b601f19601f8301169050602081019050919050565b6000602082019050919050565b6000602082019050919050565b600081519050919050565b600081519050919050565b600081519050919050565b600081519050919050565b6000602082019050919050565b6000602082019050919050565b60008115159050919050565b600073ffffffffffffffffffffffffffffffffffffffff82169050919050565b6000819050919050565b60006128df826128aa565b9050919050565b6000819050919050565b82818337600083830152505050565b60005b8381101561291d578082015181840152602081019050612902565b8381111561292c576000848401525b50505050565b6000601f19601f830116905091905056fea265627a7a723058208e1059e39f2f5e0680b7e334fc07a18fdcf1a0b740acaa98518bf54637a9af726c6578706572696d656e74616cf50037",
  "source": "pragma solidity ^0.5.0;\npragma experimental ABIEncoderV2;\n\nimport \"./StringUtils.sol\";\n\ncontract Misure {\n    \n    struct Lavoro {\n        string codice_lavoro; \n        string nome_lavoro;\n        uint percentuale_completamento; // rappresenta la percentuale di completamento per quel lavoro con un range 0 -> 100\n        uint percentuale_controllata; // rappresenta la percentuale che ? gia stata inserita nel calcolo del valore raggiunto\n        uint costo_totale; // rappresenta il costo del lavoro al 100% del completamento di quel lavoro\n    }\n    \n    mapping (uint => Lavoro) private lavori;\n    uint private numero_lavori = 0;\n    \n    \n    function getPercentuale(string memory _codice) public returns(uint) {\n        for (uint i = 0; i < numero_lavori; i++) {\n            if (StringUtils.compareStrings(lavori[i].codice_lavoro, _codice)) {\n                return lavori[i].percentuale_completamento;\n            }\n        }\n    }\n    \n    // controlla se tutte le percentuale_completamento sono al 100%, in tal caso restituisce true, altrimenti false\n    function checkPercentuali() public returns(bool) {\n        for (uint i = 0; i < numero_lavori; i++) {\n            if (lavori[i].percentuale_completamento != 100) {\n                return false;\n            }\n        }\n        return true;\n    }\n    \n    bool private percentuali_complete = false;\n    \n    function setPercentuali() public {\n        percentuali_complete = true;\n    }\n    \n    function getPercentuali() public returns(bool) {\n        return percentuali_complete;\n    }\n    \n    // serve per separare la fase di inserimento delle lavorazioni nel contratto dalla fase di gestione del contratto\n    modifier onlyFaseUno() {\n        require(inserimenti_terminati == false, \"Non ? possibile utilizzare questa funzione in questa fase del contratto\");\n        _; //indica dove deve essere posta la funzione chiamata\n    }\n\n    // serve per tener traccia di quando il RUP termina gli inserimenti della rata di acconto, quindi inizia il contratto\n    bool private inserimenti_terminati = false;\n    \n    // restituisce se gli insrimenti sono terminati o meno\n    function getInserimenti() public returns(bool) {\n        return inserimenti_terminati;\n    }\n    \n    // viene chiamata alla terminazione degli inserimenti della rata di acconto per poter settare la variabile a true\n    function finishInserimenti() public onlyFaseUno onlyRup {\n        require(numero_lavori > 0, \"Si deve inserire almeno un lavoro prima di poter terminare gli inserimenti\");\n        require(soglia > 0, \"Si deve inserire una soglia prima di poter terminare gli inserimenti\");\n        inserimenti_terminati = true;\n    }\n    \n\n\n    function getNumeroLavori() public returns(uint) {\n        return numero_lavori;\n    }\n    \n    function getLavori() public returns(string[] memory, string[] memory, uint[] memory) {\n        string[] memory code = new string[](numero_lavori);\n        string[] memory name = new string[](numero_lavori);\n        uint[] memory cos = new uint[](numero_lavori);\n        \n        uint cont = 0;\n        \n        for (uint i = 0; i < numero_lavori; i++) { \n            code[cont] = lavori[i].codice_lavoro;\n            name[cont] = lavori[i].nome_lavoro;\n            cos[cont] = lavori[i].costo_totale;\n            cont++;\n        }\n        \n        return(code, name, cos);\n    }\n    \n    \n    uint private soglia = 0;\n    uint private numero_acconto = 1;\n    \n    bool private soglia_superata;\n    \n    // setta a true che la soglia  stata superata con un certo registro\n    function setSuperata() public {\n        soglia_superata = true;\n    }\n    \n    function getSuperata() public returns(bool) {\n        return soglia_superata;\n    }\n    \n    function setNonSuperata() public {\n        soglia_superata = false;\n    }\n    \n    \n    function getNumeroAcconto () public returns(uint) {\n        return(numero_acconto);\n    }\n    \n    function updateNumeroAcconto() public returns(uint) {\n        numero_acconto++;\n    }\n    \n    function getSoglia() public returns(uint) {\n        return(soglia);\n    }\n    \n    function updateSoglia (uint _soglia) public onlyFaseUno onlyRup {\n        soglia = _soglia;\n    }\n    \n    function addLavoro (string memory _codice, string memory _nome, uint _costo) public onlyFaseUno onlyRup {\n        \n        for (uint i = 0; i < numero_lavori; i++) {\n            //controllo per impedire di inserire un lavoro precedentemente inserito\n            require(\n                !StringUtils.compareStrings(lavori[i].codice_lavoro, _codice), \"Il codice del lavoro inserito ? stato gi? precedentemente inserito\"\n            );\n        }\n        lavori[numero_lavori].codice_lavoro = _codice;\n        lavori[numero_lavori].nome_lavoro = _nome;\n        lavori[numero_lavori].costo_totale = _costo; \n        //suppongo che la percentuale di completamento sia 0 all'aggiunta di un lavoro\n        lavori[numero_lavori].percentuale_completamento = 0;\n        lavori[numero_lavori].percentuale_controllata = 0;\n        numero_lavori++;\n    }\n    \n    \n    // controlla che il codice passato sia stato gi? inserito\n    function checkLavoroInserito(string memory _codice) public returns(bool) {\n        for (uint i = 0; i < numero_lavori; i++) {\n            if (StringUtils.compareStrings(lavori[i].codice_lavoro, _codice)) {\n                return true;\n            }\n        }\n        return false;\n    }\n    \n    function updateLavoro (string memory _codice, string memory _nome, uint _costo) public onlyFaseUno onlyRup {\n        \n        //controllare che il codice inserito corrisponda ad uno di quelli gia inseriti\n        require(checkLavoroInserito(_codice), \"Il codice del lavoro non ? ancora stato inserito\");\n        \n        // poi a partire dal codice restituisce l'indice di inserimento per andare a sovrascriverlo\n        uint numero = findNumeroLavoro(_codice);\n        \n        lavori[numero].codice_lavoro = _codice;\n        lavori[numero].nome_lavoro = _nome;\n        lavori[numero].costo_totale = _costo; \n        //suppongo che la percentuale di completamento sia 0 all'aggiunta di un lavoro\n        lavori[numero].percentuale_completamento = 0;\n        lavori[numero].percentuale_controllata = 0;\n    }\n    \n    \n    //serve per ricavare il nome del lavoro partendo dal codice del lavoro\n    function findNomeLavoro (string memory _codice) public returns (string memory) {\n        for (uint i = 0; i < numero_lavori; i++) {\n            if (StringUtils.compareStrings(lavori[i].codice_lavoro, _codice)) {\n                return lavori[i].nome_lavoro;\n            }\n        }\n    } \n    \n    // serve per ricavare il numero del lavoro partendo dal codice del lavoro\n    function findNumeroLavoro (string memory _codice) public returns (uint) {\n        for (uint i = 0; i < numero_lavori; i++) {\n            if (StringUtils.compareStrings(lavori[i].codice_lavoro, _codice)) {\n                return i;\n            }\n        }\n    }\n    \n    \n    // serve per ricavare il costo del lavoro partendo dal codice del lavoro\n    function findCostoLavoro (string memory _codice) public returns (uint) {\n        for (uint i = 0; i < numero_lavori; i++) {\n            if (StringUtils.compareStrings(lavori[i].codice_lavoro, _codice)) {\n                return lavori[i].costo_totale;\n            }\n        }\n    }\n    \n    function readLavori (uint i) public returns (string memory, string memory, uint, uint, uint) {\n        return (lavori[i].codice_lavoro, lavori[i].nome_lavoro, lavori[i].percentuale_completamento, lavori[i].percentuale_controllata, lavori[i].costo_totale);\n    }\n    \n    // serve per settare la percentuale_completamento con la nuova percentuale\n    function setPercentualeLavoro(string memory _codice, uint _percentuale) public {\n        uint i = findNumeroLavoro(_codice);\n        lavori[i].percentuale_completamento = _percentuale; \n    }\n    \n    // setta la percentuale_controllata come la percentuale_completamento\n    function setUgualePercentuale(string memory _codice) private {\n        uint i = findNumeroLavoro(_codice);\n        lavori[i].percentuale_controllata = lavori[i].percentuale_completamento;\n    }\n    \n    // calcola l importo totale dei lavori andando a sommare il costo di ogni lavoro\n    function countCostoTotale () public returns(uint) { \n        uint somma = 0;\n        for (uint i = 0; i < numero_lavori; i++) {\n            somma += lavori[i].costo_totale;\n        }\n        return somma;\n    }\n    \n    // calcola la percentuale del singolo lavoro sul totale \n    function countPercentualeLavoro (string memory _codice) public returns(uint) {\n        uint costo = countCostoTotale();\n        uint percentuale;\n        uint i = findNumeroLavoro(_codice);\n        \n        return percentuale = ((lavori[i].costo_totale * 100) / costo); \n    }\n    \n    // calcola il costo raggiunto sul costo totale del singolo lavoro\n    function countCostoRaggiunto (string memory _codice) public returns(uint) { \n        uint costo_raggiunto;\n        uint i = findNumeroLavoro(_codice);\n        \n        return costo_raggiunto = ((lavori[i].costo_totale) * (lavori[i].percentuale_completamento)) / 100;\n    }\n    \n    \n    // calcola la percentuale raggiunta di quel lavoro sui lavori totali\n    function countPercentualeRaggiunta (string memory _codice) public returns(uint) {\n        uint percentuale_lavoro_i = countPercentualeLavoro(_codice);\n        uint i = findNumeroLavoro(_codice);\n        \n        return (percentuale_lavoro_i * lavori[i].percentuale_completamento) / 100; \n    }\n    \n    // calcola la percentuale raggiunta di quel lavoro sulla percentuale totale di tutti i lavori\n    // si prende la percentuale di avanzamento di un lavoro sottratta alla percentuale gia controllata, si moltiplica per la sua percentuale relativa al lavoro totale\n    // e si divide per 100, in questo modo si ottiene il nuovo valore d avanzamento\n    function countValore(string memory _codice) private returns (uint) { \n        uint i = findNumeroLavoro(_codice);\n        uint percentuale_lavoro_i = countPercentualeLavoro(_codice);\n        \n        uint valore = (percentuale_lavoro_i * (lavori[i].percentuale_completamento - lavori[i].percentuale_controllata)) / 100;\n        return valore;\n    }\n    \n    uint private totale_rimanente;\n    \n    uint private valore_raggiunto;\n    \n    function getValoreTotale() public returns (uint, uint) {\n        return(valore_raggiunto, totale_rimanente);\n    }\n    \n     // va a modificare il valore raggiunto e il totale con la nuova percentuale inserita\n    // va a chiamare la funz setUgualePercentuale per far corrispondere \n    // la percentuale di completamento con quella che ? gia stata inserita nel calcolo di valore_raggiunto\n    function updateValore(string memory _codice) public {\n        uint val = countValore(_codice);\n        valore_raggiunto += val;    \n        totale_rimanente -= val;\n        setUgualePercentuale(_codice);\n    }\n   \n   \n    enum ruoli {rup, ditta, direttore_lavori}\n    \n    address private ditta;\n    address private direttore_lavori;\n    address private rup;\n    \n    mapping(address => ruoli) private accounts;\n    \n    \n    function enableDL(address _indirizzo) public returns(bool) {\n        require(_indirizzo != address(0), \"L'indirizzo passato non ? valido\");\n        if (accounts[_indirizzo] == ruoli.direttore_lavori) {\n            return true;\n        }\n        else {\n            return false;\n        }\n    }\n    \n    function enableRUP(address _indirizzo) public returns(bool) {\n        require(_indirizzo != address(0), \"L'indirizzo passato non ? valido\");\n        if (accounts[_indirizzo] == ruoli.rup) {\n            return true;\n        }\n        else {\n            return false;\n        }\n    }\n    \n    function enableDitta(address _indirizzo) public returns(bool) {\n        require(_indirizzo != address(0), \"L'indirizzo passato non ? valido\");\n        if (accounts[_indirizzo] == ruoli.ditta) {\n            return true;\n        }\n        else {\n            return false;\n        }\n    }\n    \n    modifier onlyRup {\n        // solo il rup pu? utilizzare questa funzione\n        require(\n            enableRUP(msg.sender), \"Solo il RUP pu? utilizzare questa funzione\"\n        );\n        _; //indica dove deve essere posta la funzione chiamata\n    }\n    \n    constructor () public {\n        rup = msg.sender;\n       \n        //MODIFICA ACCOUNT DI DITTA E DIRETTORE IN BASE ALL ACCOUNT DEL NODO UTILIZZATO\n        ditta = 0xcA843569e3427144cEad5e4d5999a3D0cCF92B8e;\n        direttore_lavori = 0x0fBDc686b912d7722dc86510934589E0AAf3b55A;\n        \n        accounts[direttore_lavori] = ruoli.direttore_lavori; \n        accounts[ditta] = ruoli.ditta;\n        accounts[rup] = ruoli.rup;\n        \n        \n        totale_rimanente = 100;\n        valore_raggiunto = 0;\n    }    \n    \n    \n    function killMisure() public {\n        selfdestruct(msg.sender);\n    }\n    \n    \n}\n",
  "sourcePath": "/Users/roby/Desktop/ServerIds/truffle/contracts/Misure.sol",
  "compiler": {
    "name": "solc",
    "version": "0.5.0+commit.1d4f565a.Emscripten.clang"
  },
  "schemaVersion": "3.0.8",
  "updatedAt": "2019-09-06T09:37:54.014Z",
  "devdoc": {
    "methods": {}
  },
  "userdoc": {
    "methods": {}
  }
}