{
  "contractName": "Registro",
  "abi": [
    {
      "constant": false,
      "inputs": [],
      "name": "getRegistro",
      "outputs": [
        {
          "name": "",
          "type": "uint256"
        }
      ],
      "payable": false,
      "stateMutability": "nonpayable",
      "type": "function",
      "signature": "0x1de55c8a"
    },
    {
      "constant": false,
      "inputs": [
        {
          "name": "_data",
          "type": "uint256"
        }
      ],
      "name": "getRegistroData",
      "outputs": [
        {
          "name": "",
          "type": "uint256"
        },
        {
          "name": "",
          "type": "uint256"
        }
      ],
      "payable": false,
      "stateMutability": "nonpayable",
      "type": "function",
      "signature": "0x2fecd327"
    },
    {
      "constant": false,
      "inputs": [],
      "name": "getRegistroData",
      "outputs": [
        {
          "name": "",
          "type": "uint256[]"
        },
        {
          "name": "",
          "type": "uint256[]"
        }
      ],
      "payable": false,
      "stateMutability": "nonpayable",
      "type": "function",
      "signature": "0x705b8af2"
    },
    {
      "constant": false,
      "inputs": [],
      "name": "findRegistri",
      "outputs": [
        {
          "name": "",
          "type": "string[]"
        },
        {
          "name": "",
          "type": "uint256[]"
        },
        {
          "name": "",
          "type": "uint256[]"
        }
      ],
      "payable": false,
      "stateMutability": "nonpayable",
      "type": "function",
      "signature": "0x72927f42"
    },
    {
      "constant": false,
      "inputs": [
        {
          "name": "_registro",
          "type": "uint256"
        },
        {
          "name": "_rigo",
          "type": "uint256"
        }
      ],
      "name": "findContenuto",
      "outputs": [
        {
          "name": "",
          "type": "uint256"
        },
        {
          "name": "",
          "type": "uint256"
        },
        {
          "name": "",
          "type": "uint256"
        },
        {
          "name": "",
          "type": "uint256"
        }
      ],
      "payable": false,
      "stateMutability": "nonpayable",
      "type": "function",
      "signature": "0xe5530b11"
    },
    {
      "constant": false,
      "inputs": [],
      "name": "enableRegistroContabilita",
      "outputs": [],
      "payable": false,
      "stateMutability": "nonpayable",
      "type": "function",
      "signature": "0x90789e10"
    },
    {
      "constant": false,
      "inputs": [
        {
          "name": "_tot",
          "type": "uint256"
        }
      ],
      "name": "checkSuperata",
      "outputs": [
        {
          "name": "",
          "type": "bool"
        }
      ],
      "payable": false,
      "stateMutability": "nonpayable",
      "type": "function",
      "signature": "0xeda6da21"
    },
    {
      "constant": false,
      "inputs": [
        {
          "name": "_registro",
          "type": "uint256"
        }
      ],
      "name": "getRegistri1",
      "outputs": [
        {
          "name": "",
          "type": "uint256[]"
        },
        {
          "name": "",
          "type": "uint256[]"
        },
        {
          "name": "",
          "type": "uint256[]"
        },
        {
          "name": "",
          "type": "uint256[]"
        }
      ],
      "payable": false,
      "stateMutability": "nonpayable",
      "type": "function",
      "signature": "0x2ee04fd4"
    },
    {
      "constant": false,
      "inputs": [
        {
          "name": "_registro",
          "type": "uint256"
        }
      ],
      "name": "getRegistri2",
      "outputs": [
        {
          "name": "",
          "type": "uint256[]"
        },
        {
          "name": "",
          "type": "uint256[]"
        },
        {
          "name": "",
          "type": "uint256[]"
        },
        {
          "name": "",
          "type": "uint256[]"
        }
      ],
      "payable": false,
      "stateMutability": "nonpayable",
      "type": "function",
      "signature": "0x04b59bc0"
    },
    {
      "constant": false,
      "inputs": [
        {
          "name": "_registro",
          "type": "uint256"
        }
      ],
      "name": "getRegistri3",
      "outputs": [
        {
          "name": "",
          "type": "string[]"
        },
        {
          "name": "",
          "type": "string[]"
        }
      ],
      "payable": false,
      "stateMutability": "nonpayable",
      "type": "function",
      "signature": "0x33b564c1"
    },
    {
      "constant": false,
      "inputs": [
        {
          "name": "_indirizzo",
          "type": "address"
        }
      ],
      "name": "setIndirizzoLibretto",
      "outputs": [],
      "payable": false,
      "stateMutability": "nonpayable",
      "type": "function",
      "signature": "0xcb92b744"
    },
    {
      "constant": false,
      "inputs": [
        {
          "name": "_indirizzo",
          "type": "address"
        }
      ],
      "name": "setIndirizzoMisure",
      "outputs": [],
      "payable": false,
      "stateMutability": "nonpayable",
      "type": "function",
      "signature": "0x14481ad6"
    },
    {
      "constant": false,
      "inputs": [],
      "name": "killRegistro",
      "outputs": [],
      "payable": false,
      "stateMutability": "nonpayable",
      "type": "function",
      "signature": "0xfb8f72c4"
    }
  ],
  "bytecode": "0x608060405260018055600160035534801561001957600080fd5b50613a33806100296000396000f3fe6080604052600436106100c5576000357c0100000000000000000000000000000000000000000000000000000000900463ffffffff16806304b59bc0146100ca57806314481ad61461010a5780631de55c8a146101335780632ee04fd41461015e5780632fecd3271461019e57806333b564c1146101dc578063705b8af21461021a57806372927f421461024657806390789e1014610273578063cb92b7441461028a578063e5530b11146102b3578063eda6da21146102f3578063fb8f72c414610330575b600080fd5b3480156100d657600080fd5b506100f160048036036100ec919081019061323a565b610347565b6040516101019493929190613699565b60405180910390f35b34801561011657600080fd5b50610131600480360361012c91908101906130bf565b6107b7565b005b34801561013f57600080fd5b506101486108d0565b60405161015591906137b7565b60405180910390f35b34801561016a57600080fd5b506101856004803603610180919081019061323a565b6108da565b6040516101959493929190613699565b60405180910390f35b3480156101aa57600080fd5b506101c560048036036101c0919081019061323a565b610d4a565b6040516101d39291906137d2565b60405180910390f35b3480156101e857600080fd5b5061020360048036036101fe919081019061323a565b610d9b565b6040516102119291906135df565b60405180910390f35b34801561022657600080fd5b5061022f6112c8565b60405161023d929190613662565b60405180910390f35b34801561025257600080fd5b5061025b6113c2565b60405161026a93929190613616565b60405180910390f35b34801561027f57600080fd5b50610288611740565b005b34801561029657600080fd5b506102b160048036036102ac91908101906130bf565b611bc5565b005b3480156102bf57600080fd5b506102da60048036036102d5919081019061328c565b611cde565b6040516102ea94939291906137fb565b60405180910390f35b3480156102ff57600080fd5b5061031a6004803603610315919081019061323a565b611ef3565b60405161032791906136fa565b60405180910390f35b34801561033c57600080fd5b5061034561214c565b005b6060806060806001851415610561576000600160026001880381548110151561036c57fe5b90600052602060002001540390506060816040519080825280602002602001820160405280156103ab5781602001602082028038833980820191505090505b5090506060826040519080825280602002602001820160405280156103df5781602001602082028038833980820191505090505b5090506060836040519080825280602002602001820160405280156104135781602001602082028038833980820191505090505b5090506060846040519080825280602002602001820160405280156104475781602001602082028038833980820191505090505b509050600080905060008090505b868160ff161015610549576000808260ff16815260200190815260200160002060000154868381518110151561048757fe5b90602001906020020181815250506000808260ff1681526020019081526020016000206001015485838151811015156104bc57fe5b90602001906020020181815250506000808260ff1681526020019081526020016000206002015484838151811015156104f157fe5b90602001906020020181815250506000808260ff16815260200190815260200160002060080154838381518110151561052657fe5b906020019060200201818152505081806001019250508080600101915050610455565b508484848499509950995099505050505050506107b0565b6000600280870381548110151561057457fe5b906000526020600020015460026001880381548110151561059157fe5b90600052602060002001540390506060816040519080825280602002602001820160405280156105d05781602001602082028038833980820191505090505b5090506060826040519080825280602002602001820160405280156106045781602001602082028038833980820191505090505b5090506060836040519080825280602002602001820160405280156106385781602001602082028038833980820191505090505b50905060608460405190808252806020026020018201604052801561066c5781602001602082028038833980820191505090505b5090506000809050600060016002808e0381548110151561068957fe5b90600052602060002001540390505b6001600260018e038154811015156106ac57fe5b90600052602060002001540381101561079c576000808281526020019081526020016000206000015486838151811015156106e357fe5b906020019060200201818152505060008082815260200190815260200160002060010154858381518110151561071557fe5b906020019060200201818152505060008082815260200190815260200160002060020154848381518110151561074757fe5b906020019060200201818152505060008082815260200190815260200160002060080154838381518110151561077957fe5b906020019060200201818152505081806001019250508080600101915050610698565b508484848499509950995099505050505050505b9193509193565b600073ffffffffffffffffffffffffffffffffffffffff168173ffffffffffffffffffffffffffffffffffffffff1614151515610829576040517f08c379a000000000000000000000000000000000000000000000000000000000815260040161082090613737565b60405180910390fd5b80600a60006101000a81548173ffffffffffffffffffffffffffffffffffffffff021916908373ffffffffffffffffffffffffffffffffffffffff160217905550600a60009054906101000a900473ffffffffffffffffffffffffffffffffffffffff16600960006101000a81548173ffffffffffffffffffffffffffffffffffffffff021916908373ffffffffffffffffffffffffffffffffffffffff16021790555050565b6000600354905090565b6060806060806001851415610af457600060016002600188038154811015156108ff57fe5b906000526020600020015403905060608160405190808252806020026020018201604052801561093e5781602001602082028038833980820191505090505b5090506060826040519080825280602002602001820160405280156109725781602001602082028038833980820191505090505b5090506060836040519080825280602002602001820160405280156109a65781602001602082028038833980820191505090505b5090506060846040519080825280602002602001820160405280156109da5781602001602082028038833980820191505090505b509050600080905060008090505b868160ff161015610adc576000808260ff168152602001908152602001600020600501548683815181101515610a1a57fe5b90602001906020020181815250506000808260ff168152602001908152602001600020600601548583815181101515610a4f57fe5b90602001906020020181815250506000808260ff168152602001908152602001600020600701548483815181101515610a8457fe5b90602001906020020181815250506000808260ff168152602001908152602001600020600901548383815181101515610ab957fe5b9060200190602002018181525050818060010192505080806001019150506109e8565b50848484849950995099509950505050505050610d43565b60006002808703815481101515610b0757fe5b9060005260206000200154600260018803815481101515610b2457fe5b9060005260206000200154039050606081604051908082528060200260200182016040528015610b635781602001602082028038833980820191505090505b509050606082604051908082528060200260200182016040528015610b975781602001602082028038833980820191505090505b509050606083604051908082528060200260200182016040528015610bcb5781602001602082028038833980820191505090505b509050606084604051908082528060200260200182016040528015610bff5781602001602082028038833980820191505090505b5090506000809050600060016002808e03815481101515610c1c57fe5b90600052602060002001540390505b6001600260018e03815481101515610c3f57fe5b906000526020600020015403811015610d2f57600080828152602001908152602001600020600501548683815181101515610c7657fe5b9060200190602002018181525050600080828152602001908152602001600020600601548583815181101515610ca857fe5b9060200190602002018181525050600080828152602001908152602001600020600701548483815181101515610cda57fe5b9060200190602002018181525050600080828152602001908152602001600020600901548383815181101515610d0c57fe5b906020019060200201818152505081806001019250508080600101915050610c2b565b508484848499509950995099505050505050505b9193509193565b60008060008090505b600160035403811015610d94578360046000838152602001908152602001600020541415610d875780849250925050610d96565b8080600101915050610d53565b505b915091565b60608060018314156110105760006001600260018603815481101515610dbd57fe5b9060005260206000200154039050606081604051908082528060200260200182016040528015610e0157816020015b6060815260200190600190039081610dec5790505b509050606082604051908082528060200260200182016040528015610e3a57816020015b6060815260200190600190039081610e255790505b509050600080905060008090505b848160ff161015611000576000808260ff1681526020019081526020016000206003018054600181600116156101000203166002900480601f016020809104026020016040519081016040528092919081815260200182805460018160011615610100020316600290048015610eff5780601f10610ed457610100808354040283529160200191610eff565b820191906000526020600020905b815481529060010190602001808311610ee257829003601f168201915b50505050508483815181101515610f1257fe5b906020019060200201819052506000808260ff1681526020019081526020016000206004018054600181600116156101000203166002900480601f016020809104026020016040519081016040528092919081815260200182805460018160011615610100020316600290048015610fcb5780601f10610fa057610100808354040283529160200191610fcb565b820191906000526020600020905b815481529060010190602001808311610fae57829003601f168201915b50505050508383815181101515610fde57fe5b9060200190602002018190525081806001019250508080600101915050610e48565b50828295509550505050506112c3565b6000600280850381548110151561102357fe5b906000526020600020015460026001860381548110151561104057fe5b906000526020600020015403905060608160405190808252806020026020018201604052801561108457816020015b606081526020019060019003908161106f5790505b5090506060826040519080825280602002602001820160405280156110bd57816020015b60608152602001906001900390816110a85790505b5090506000809050600060016002808a038154811015156110da57fe5b90600052602060002001540390505b6001600260018a038154811015156110fd57fe5b9060005260206000200154038110156112b7576000808281526020019081526020016000206003018054600181600116156101000203166002900480601f0160208091040260200160405190810160405280929190818152602001828054600181600116156101000203166002900480156111b95780601f1061118e576101008083540402835291602001916111b9565b820191906000526020600020905b81548152906001019060200180831161119c57829003601f168201915b505050505084838151811015156111cc57fe5b906020019060200201819052506000808281526020019081526020016000206004018054600181600116156101000203166002900480601f0160208091040260200160405190810160405280929190818152602001828054600181600116156101000203166002900480156112825780601f1061125757610100808354040283529160200191611282565b820191906000526020600020905b81548152906001019060200180831161126557829003601f168201915b5050505050838381518110151561129557fe5b90602001906020020181905250818060010192505080806001019150506110e9565b50828295509550505050505b915091565b60608060606003546040519080825280602002602001820160405280156112fe5781602001602082028038833980820191505090505b50905060606003546040519080825280602002602001820160405280156113345781602001602082028038833980820191505090505b509050600080905060008090505b6001600354038110156113b45760018101848381518110151561136157fe5b90602001906020020181815250506004600082815260200190815260200160002054838381518110151561139157fe5b906020019060200201818152505081806001019250508080600101915050611342565b508282945094505050509091565b60608060606000600680549050905060608160405190808252806020026020018201604052801561140757816020015b60608152602001906001900390816113f25790505b50905060608260405190808252806020026020018201604052801561143b5781602001602082028038833980820191505090505b50905060608360405190808252806020026020018201604052801561146f5781602001602082028038833980820191505090505b509050600080905060008090505b8581101561172c57600560068281548110151561149657fe5b9060005260206000200160405180828054600181600116156101000203166002900480156114fb5780601f106114d95761010080835404028352918201916114fb565b820191906000526020600020905b8154815290600101906020018083116114e7575b505091505090815260200160405180910390206000018054600181600116156101000203166002900480601f0160208091040260200160405190810160405280929190818152602001828054600181600116156101000203166002900480156115a55780601f1061157a576101008083540402835291602001916115a5565b820191906000526020600020905b81548152906001019060200180831161158857829003601f168201915b505050505085838151811015156115b857fe5b9060200190602002018190525060056006828154811015156115d657fe5b90600052602060002001604051808280546001816001161561010002031660029004801561163b5780601f1061161957610100808354040283529182019161163b565b820191906000526020600020905b815481529060010190602001808311611627575b5050915050908152602001604051809103902060020154848381518110151561166057fe5b9060200190602002018181525050600560068281548110151561167f57fe5b9060005260206000200160405180828054600181600116156101000203166002900480156116e45780601f106116c25761010080835404028352918201916116e4565b820191906000526020600020905b8154815290600101906020018083116116d0575b5050915050908152602001604051809103902060010154838381518110151561170957fe5b90602001906020020181815250508180600101925050808060010191505061147d565b508383839750975097505050505050909192565b600960009054906101000a900473ffffffffffffffffffffffffffffffffffffffff1673ffffffffffffffffffffffffffffffffffffffff1663d601ad82336040518263ffffffff167c01000000000000000000000000000000000000000000000000000000000281526004016117b791906135c4565b602060405180830381600087803b1580156117d157600080fd5b505af11580156117e5573d6000803e3d6000fd5b505050506040513d601f19601f820116820180604052506118099190810190613129565b151561184a576040517f08c379a000000000000000000000000000000000000000000000000000000000815260040161184190613757565b60405180910390fd5b600960009054906101000a900473ffffffffffffffffffffffffffffffffffffffff1673ffffffffffffffffffffffffffffffffffffffff166388865dd26040518163ffffffff167c0100000000000000000000000000000000000000000000000000000000028152600401602060405180830381600087803b1580156118d057600080fd5b505af11580156118e4573d6000803e3d6000fd5b505050506040513d601f19601f820116820180604052506119089190810190613129565b15151561194a576040517f08c379a000000000000000000000000000000000000000000000000000000000815260040161194190613797565b60405180910390fd5b611952612165565b1515611993576040517f08c379a000000000000000000000000000000000000000000000000000000000815260040161198a90613777565b60405180910390fd5b6060600760009054906101000a900473ffffffffffffffffffffffffffffffffffffffff1673ffffffffffffffffffffffffffffffffffffffff16630e824f416003546040518263ffffffff167c0100000000000000000000000000000000000000000000000000000000028152600401611a0e91906137b7565b600060405180830381600087803b158015611a2857600080fd5b505af1158015611a3c573d6000803e3d6000fd5b505050506040513d6000823e3d601f19601f82011682018060405250611a6591908101906130e8565b905060008090505b8151811015611ab857611a996003548383815181101515611a8a57fe5b90602001906020020151612248565b6001600081548092919060010191905055508080600101915050611a6d565b50426004600060016003540381526020019081526020016000208190555060026001549080600181540180825580915050906001820390600052602060002001600090919290919091505550600360008154809291906001019190505550611b1e612950565b15611bc257600960009054906101000a900473ffffffffffffffffffffffffffffffffffffffff1673ffffffffffffffffffffffffffffffffffffffff166326442d496040518163ffffffff167c0100000000000000000000000000000000000000000000000000000000028152600401600060405180830381600087803b158015611ba957600080fd5b505af1158015611bbd573d6000803e3d6000fd5b505050505b50565b600073ffffffffffffffffffffffffffffffffffffffff168173ffffffffffffffffffffffffffffffffffffffff1614151515611c37576040517f08c379a0000000000000000000000000000000000000000000000000000000008152600401611c2e90613737565b60405180910390fd5b80600860006101000a81548173ffffffffffffffffffffffffffffffffffffffff021916908373ffffffffffffffffffffffffffffffffffffffff160217905550600860009054906101000a900473ffffffffffffffffffffffffffffffffffffffff16600760006101000a81548173ffffffffffffffffffffffffffffffffffffffff021916908373ffffffffffffffffffffffffffffffffffffffff16021790555050565b6000806000806001861415611dec5760006001600260018903815481101515611d0357fe5b906000526020600020015403905060008090505b818160ff161015611de557876000808360ff16815260200190815260200160002060010154148015611d605750866000808360ff16815260200190815260200160002060020154145b15611dd8576000808260ff168152602001908152602001600020600501546000808360ff168152602001908152602001600020600601546000808460ff168152602001908152602001600020600701546000808560ff1681526020019081526020016000206009015495509550955095505050611eea565b8080600101915050611d17565b5050611ee9565b600060016002808903815481101515611e0157fe5b90600052602060002001540390505b6001600260018903815481101515611e2457fe5b906000526020600020015403811015611ee7578660008083815260200190815260200160002060010154148015611e6f57508560008083815260200190815260200160002060020154145b15611eda5760008082815260200190815260200160002060050154600080838152602001908152602001600020600601546000808481526020019081526020016000206007015460008085815260200190815260200160002060090154945094509450945050611eea565b8080600101915050611e10565b505b5b92959194509250565b6000600960009054906101000a900473ffffffffffffffffffffffffffffffffffffffff1673ffffffffffffffffffffffffffffffffffffffff1663b02b5ac36040518163ffffffff167c0100000000000000000000000000000000000000000000000000000000028152600401602060405180830381600087803b158015611f7b57600080fd5b505af1158015611f8f573d6000803e3d6000fd5b505050506040513d601f19601f82011682018060405250611fb39190810190613263565b600960009054906101000a900473ffffffffffffffffffffffffffffffffffffffff1673ffffffffffffffffffffffffffffffffffffffff16638c1722596040518163ffffffff167c0100000000000000000000000000000000000000000000000000000000028152600401602060405180830381600087803b15801561203957600080fd5b505af115801561204d573d6000803e3d6000fd5b505050506040513d601f19601f820116820180604052506120719190810190613263565b028210151561214257600960009054906101000a900473ffffffffffffffffffffffffffffffffffffffff1673ffffffffffffffffffffffffffffffffffffffff1663eb858b406040518163ffffffff167c0100000000000000000000000000000000000000000000000000000000028152600401602060405180830381600087803b15801561210057600080fd5b505af1158015612114573d6000803e3d6000fd5b505050506040513d601f19601f820116820180604052506121389190810190613263565b5060019050612147565b600090505b919050565b3373ffffffffffffffffffffffffffffffffffffffff16ff5b6000600760009054906101000a900473ffffffffffffffffffffffffffffffffffffffff1673ffffffffffffffffffffffffffffffffffffffff16635fe10b006003546040518263ffffffff167c01000000000000000000000000000000000000000000000000000000000281526004016121e091906137b7565b602060405180830381600087803b1580156121fa57600080fd5b505af115801561220e573d6000803e3d6000fd5b505050506040513d601f19601f820116820180604052506122329190810190613129565b156122405760019050612245565b600090505b90565b4260008060018054038152602001908152602001600020600001819055508160008060018054038152602001908152602001600020600101819055508060008060018054038152602001908152602001600020600201819055506060600760009054906101000a900473ffffffffffffffffffffffffffffffffffffffff1673ffffffffffffffffffffffffffffffffffffffff16637d98d77484846040518363ffffffff167c010000000000000000000000000000000000000000000000000000000002815260040161231d9291906137d2565b600060405180830381600087803b15801561233757600080fd5b505af115801561234b573d6000803e3d6000fd5b505050506040513d6000823e3d601f19601f820116820180604052506123749190810190613152565b9050806000806001805403815260200190815260200160002060030190805190602001906123a3929190612e46565b50600960009054906101000a900473ffffffffffffffffffffffffffffffffffffffff1673ffffffffffffffffffffffffffffffffffffffff1663e37f1bd8826040518263ffffffff167c010000000000000000000000000000000000000000000000000000000002815260040161241b9190613715565b600060405180830381600087803b15801561243557600080fd5b505af1158015612449573d6000803e3d6000fd5b505050506040513d6000823e3d601f19601f820116820180604052506124729190810190613152565b60008060018054038152602001908152602001600020600401908051906020019061249e929190612e46565b506000600960009054906101000a900473ffffffffffffffffffffffffffffffffffffffff1673ffffffffffffffffffffffffffffffffffffffff1663db18d857836040518263ffffffff167c01000000000000000000000000000000000000000000000000000000000281526004016125189190613715565b602060405180830381600087803b15801561253257600080fd5b505af1158015612546573d6000803e3d6000fd5b505050506040513d601f19601f8201168201806040525061256a9190810190613263565b90506060806000806000600960009054906101000a900473ffffffffffffffffffffffffffffffffffffffff1673ffffffffffffffffffffffffffffffffffffffff1663a0d5cf95876040518263ffffffff167c01000000000000000000000000000000000000000000000000000000000281526004016125eb91906137b7565b600060405180830381600087803b15801561260557600080fd5b505af1158015612619573d6000803e3d6000fd5b505050506040513d6000823e3d601f19601f820116820180604052506126429190810190613193565b94509450945094509450826000806001805403815260200190815260200160002060050181905550600960009054906101000a900473ffffffffffffffffffffffffffffffffffffffff1673ffffffffffffffffffffffffffffffffffffffff1663e5789c34886040518263ffffffff167c01000000000000000000000000000000000000000000000000000000000281526004016126e19190613715565b602060405180830381600087803b1580156126fb57600080fd5b505af115801561270f573d6000803e3d6000fd5b505050506040513d601f19601f820116820180604052506127339190810190613263565b6000806001805403815260200190815260200160002060060181905550600960009054906101000a900473ffffffffffffffffffffffffffffffffffffffff1673ffffffffffffffffffffffffffffffffffffffff16635c11597f886040518263ffffffff167c01000000000000000000000000000000000000000000000000000000000281526004016127c79190613715565b602060405180830381600087803b1580156127e157600080fd5b505af11580156127f5573d6000803e3d6000fd5b505050506040513d601f19601f820116820180604052506128199190810190613263565b6000806001805403815260200190815260200160002060070181905550806000806001805403815260200190815260200160002060080181905550600960009054906101000a900473ffffffffffffffffffffffffffffffffffffffff1673ffffffffffffffffffffffffffffffffffffffff16633d90d56f886040518263ffffffff167c01000000000000000000000000000000000000000000000000000000000281526004016128cb9190613715565b602060405180830381600087803b1580156128e557600080fd5b505af11580156128f9573d6000803e3d6000fd5b505050506040513d601f19601f8201168201806040525061291d9190810190613263565b600080600180540381526020019081526020016000206009018190555061294587898b612982565b505050505050505050565b60008061295b612ac2565b905060008090505b61296c82611ef3565b1561297a5760019050612963565b809250505090565b61298b83612b0a565b1515612ab157612999612ec6565b6080604051908101604052808581526020018381526020018481526020016006805490508152509050806005856040518082805190602001908083835b6020831015156129fb57805182526020820191506020810190506020830392506129d6565b6001836020036101000a03801982511681845116808217855250505050505090500191505090815260200160405180910390206000820151816000019080519060200190612a4a929190612eef565b506020820151816001015560408201518160020155606082015181600301559050506006849080600181540180825580915050906001820390600052602060002001600090919290919091509080519060200190612aa9929190612e46565b505050612abd565b612abc838284612c53565b5b505050565b6000806000905060008090505b6001805403811015612b025760008082815260200190815260200160002060090154820191508080600101915050612acf565b508091505090565b6000806006805490501415612b225760009050612c4e565b612c4b60066005846040518082805190602001908083835b602083101515612b5f5780518252602082019150602081019050602083039250612b3a565b6001836020036101000a038019825116818451168082178552505050505050905001915050908152602001604051809103902060030154815481101515612ba257fe5b906000526020600020018054600181600116156101000203166002900480601f016020809104026020016040519081016040528092919081815260200182805460018160011615610100020316600290048015612c405780601f10612c1557610100808354040283529160200191612c40565b820191906000526020600020905b815481529060010190602001808311612c2357829003601f168201915b505050505083612d3e565b90505b919050565b816005846040518082805190602001908083835b602083101515612c8c5780518252602082019150602081019050602083039250612c67565b6001836020036101000a038019825116818451168082178552505050505050905001915050908152602001604051809103902060010181905550806005846040518082805190602001908083835b602083101515612cff5780518252602082019150602081019050602083039250612cda565b6001836020036101000a038019825116818451168082178552505050505050905001915050908152602001604051809103902060020181905550505050565b600081518351141515612d545760009050612e40565b816040516020018082805190602001908083835b602083101515612d8d5780518252602082019150602081019050602083039250612d68565b6001836020036101000a03801982511681845116808217855250505050505090500191505060405160208183030381529060405280519060200120836040516020018082805190602001908083835b602083101515612e015780518252602082019150602081019050602083039250612ddc565b6001836020036101000a038019825116818451168082178552505050505050905001915050604051602081830303815290604052805190602001201490505b92915050565b828054600181600116156101000203166002900490600052602060002090601f016020900481019282601f10612e8757805160ff1916838001178555612eb5565b82800160010185558215612eb5579182015b82811115612eb4578251825591602001919060010190612e99565b5b509050612ec29190612f6f565b5090565b608060405190810160405280606081526020016000815260200160008152602001600081525090565b828054600181600116156101000203166002900490600052602060002090601f016020900481019282601f10612f3057805160ff1916838001178555612f5e565b82800160010185558215612f5e579182015b82811115612f5d578251825591602001919060010190612f42565b5b509050612f6b9190612f6f565b5090565b612f9191905b80821115612f8d576000816000905550600101612f75565b5090565b90565b6000612fa08235613957565b905092915050565b600082601f8301121515612fbb57600080fd5b8151612fce612fc98261386d565b613840565b91508181835260208401935060208101905083856020840282011115612ff357600080fd5b60005b83811015613023578161300988826130ab565b845260208401935060208301925050600181019050612ff6565b5050505092915050565b60006130398251613969565b905092915050565b600082601f830112151561305457600080fd5b815161306761306282613895565b613840565b9150808252602083016020830185838301111561308357600080fd5b61308e8382846139b5565b50505092915050565b60006130a38235613975565b905092915050565b60006130b78251613975565b905092915050565b6000602082840312156130d157600080fd5b60006130df84828501612f94565b91505092915050565b6000602082840312156130fa57600080fd5b600082015167ffffffffffffffff81111561311457600080fd5b61312084828501612fa8565b91505092915050565b60006020828403121561313b57600080fd5b60006131498482850161302d565b91505092915050565b60006020828403121561316457600080fd5b600082015167ffffffffffffffff81111561317e57600080fd5b61318a84828501613041565b91505092915050565b600080600080600060a086880312156131ab57600080fd5b600086015167ffffffffffffffff8111156131c557600080fd5b6131d188828901613041565b955050602086015167ffffffffffffffff8111156131ee57600080fd5b6131fa88828901613041565b945050604061320b888289016130ab565b935050606061321c888289016130ab565b925050608061322d888289016130ab565b9150509295509295909350565b60006020828403121561324c57600080fd5b600061325a84828501613097565b91505092915050565b60006020828403121561327557600080fd5b6000613283848285016130ab565b91505092915050565b6000806040838503121561329f57600080fd5b60006132ad85828601613097565b92505060206132be85828601613097565b9150509250929050565b6132d18161397f565b82525050565b60006132e2826138db565b808452602084019350836020820285016132fb856138c1565b60005b848110156133345783830388526133168383516133e5565b925061332182613907565b91506020880197506001810190506132fe565b508196508694505050505092915050565b6000613350826138e6565b808452602084019350613362836138ce565b60005b82811015613394576133788683516135b5565b61338182613914565b9150602086019550600181019050613365565b50849250505092915050565b6133a981613921565b82525050565b60006133ba826138fc565b8084526133ce8160208601602086016139b5565b6133d7816139e8565b602085010191505092915050565b60006133f0826138f1565b8084526134048160208601602086016139b5565b61340d816139e8565b602085010191505092915050565b6000602082527f4c27696e646972697a7a6f207061737361746f206e6f6e203f2076616c69646f6020830152604082019050919050565b6000602a82527f536f6c6f20696c205255502070753f207574696c697a7a61726520717565737460208301527f612066756e7a696f6e65000000000000000000000000000000000000000000006040830152606082019050919050565b6000604c82527f4e657373756e206c6962726574746f20efbfbd20616e636f726120636f6d706c60208301527f65746f2070657220706f7465722065737365726520696e73657269746f20696e60408301527f20756e20726567697374726f00000000000000000000000000000000000000006060830152608082019050919050565b6000605682527f53692064657665207072696d6120656d616e61726520756e2053414c2070726960208301527f6d612064692070726f63656465726520616c6c6120636f6d70696c617a696f6e60408301527f6520646920756e206e756f766f20726567697374726f000000000000000000006060830152608082019050919050565b6135be8161394d565b82525050565b60006020820190506135d960008301846132c8565b92915050565b600060408201905081810360008301526135f981856132d7565b9050818103602083015261360d81846132d7565b90509392505050565b6000606082019050818103600083015261363081866132d7565b905081810360208301526136448185613345565b905081810360408301526136588184613345565b9050949350505050565b6000604082019050818103600083015261367c8185613345565b905081810360208301526136908184613345565b90509392505050565b600060808201905081810360008301526136b38187613345565b905081810360208301526136c78186613345565b905081810360408301526136db8185613345565b905081810360608301526136ef8184613345565b905095945050505050565b600060208201905061370f60008301846133a0565b92915050565b6000602082019050818103600083015261372f81846133af565b905092915050565b600060208201905081810360008301526137508161341b565b9050919050565b6000602082019050818103600083015261377081613452565b9050919050565b60006020820190508181036000830152613790816134af565b9050919050565b600060208201905081810360008301526137b081613532565b9050919050565b60006020820190506137cc60008301846135b5565b92915050565b60006040820190506137e760008301856135b5565b6137f460208301846135b5565b9392505050565b600060808201905061381060008301876135b5565b61381d60208301866135b5565b61382a60408301856135b5565b61383760608301846135b5565b95945050505050565b6000604051905081810181811067ffffffffffffffff8211171561386357600080fd5b8060405250919050565b600067ffffffffffffffff82111561388457600080fd5b602082029050602081019050919050565b600067ffffffffffffffff8211156138ac57600080fd5b601f19601f8301169050602081019050919050565b6000602082019050919050565b6000602082019050919050565b600081519050919050565b600081519050919050565b600081519050919050565b600081519050919050565b6000602082019050919050565b6000602082019050919050565b60008115159050919050565b600073ffffffffffffffffffffffffffffffffffffffff82169050919050565b6000819050919050565b60006139628261392d565b9050919050565b60008115159050919050565b6000819050919050565b600061398a82613991565b9050919050565b600061399c826139a3565b9050919050565b60006139ae8261392d565b9050919050565b60005b838110156139d35780820151818401526020810190506139b8565b838111156139e2576000848401525b50505050565b6000601f19601f830116905091905056fea265627a7a72305820ad436f11dd0f7033f97c3db66e2bbd27879de051a15d1c73246a05462f09cafe6c6578706572696d656e74616cf50037",
  "source": "pragma solidity ^0.5.0;\r\npragma experimental ABIEncoderV2;\r\n\r\nimport \"./Misure.sol\";\r\nimport \"./StringUtils.sol\";\r\nimport \"./Libretto.sol\";\r\n\r\ncontract Registro {\r\n    \r\n    struct RegistroDiContabilita {\r\n        uint data_registro;\r\n        uint numero_libretto; // ? il numero del libretto corrispondente\r\n        uint rigo_libretto; // ? il rigo del libretto corrispondente\r\n        string codice_lavoro;\r\n        string nome_lavoro; \r\n        uint percentuale_totale; // percentuale del lavoro\r\n        uint percentuale_i; // percentuale del lavoro i esimo sul totale\r\n        uint percentuale_raggiunta; // percentuale raggiunta sul 100%\r\n        uint costo_i; // costo del lavoto i esimo\r\n        uint costo_raggiunto; // costo del lavoro raggiunto con la percentuale raggiunta\r\n    }\r\n    \r\n    mapping (uint => RegistroDiContabilita) private registri;\r\n    uint private numero_totale_registri = 1; // indica il numero totale di righi di tutti i registri\r\n    uint[] private righi_max_registro;\r\n    uint private registro = 1;\r\n    \r\n    mapping(uint => uint) private data;\r\n    \r\n    \r\n    function getRegistro() public returns(uint) {\r\n        return registro;\r\n    }\r\n    \r\n    // a partire da una certa data, restituisce il numero di registro \r\n    function getRegistroData (uint _data) public returns(uint, uint) {\r\n        for (uint i = 0; i < (registro - 1); i++) {\r\n            if (data[i] == _data) {\r\n                return (i, _data);\r\n            }\r\n        }\r\n    }\r\n    \r\n    // se non viene passata una data, si restituisce la lista dei registri con la data \r\n    function getRegistroData() public returns(uint[] memory, uint[] memory) {\r\n        uint[] memory reg = new uint[](registro);\r\n        uint[] memory date = new uint[](registro);\r\n        \r\n        uint cont = 0;\r\n        \r\n        for (uint i = 0; i < (registro - 1); i++) {\r\n            reg[cont] = i+1;\r\n            date[cont] = data[i];\r\n            cont++;\r\n        }\r\n        return(reg, date);\r\n    }\r\n    \r\n    \r\n    // controlla se un certo libretto  completo\r\n    function checkLibretto() private returns(bool) {\r\n        if (l.checkLibrettoOk(registro)) {\r\n            return true;\r\n        }\r\n        return false;\r\n    }\r\n    \r\n    // serve per contenere il codice del lavoro con il rigo e numero di registro in cui ? stato inserito nel registro, in modo poi da poterlo utilizzare\r\n    struct Collocazione {\r\n        string codice;\r\n        uint numero; // indica il numero del libretto\r\n        uint rigo;\r\n        uint id;\r\n    }\r\n    \r\n    mapping (string => Collocazione) private mapping_collocazione;\r\n    string[] private collocazione;\r\n    \r\n    \r\n    // cerca se dentro collocazione esiste gi? il codice del lavoro che si vuole inserire\r\n    function esiste(string memory _codice) private returns (bool) {\r\n        // se la lunghezza di collocazione ? nulla allora sicuramente non c ? quel codice, perche ? un array vuoto\r\n        if (collocazione.length == 0) {\r\n            return false;\r\n        }\r\n        // altrimenti si cerca e si controlla se il codice ? contenuto all interno della struttura.\r\n        // attraverso la mapping_collocazione[_codice] si restituisce il riferimento ad un istanza della struct Collocazione \r\n        // con l id si accede al numero identificativo di quell istanza che ci serve poi per trovare il codice corrispondente\r\n        // infatti passando questo intero a collocazione andiamo ad ottenere il codice che si trova in quell elem dell array\r\n        return (StringUtils.compareStrings(collocazione[mapping_collocazione[_codice].id], _codice));\r\n    }\r\n    \r\n    // serve per aggiungere la collocazione di un codice\r\n    function addCollocazione(string memory _codice, uint _rigo, uint _numero) private {\r\n        // se non esiste gia un istanza con quel codice allora la si va ad inserire\r\n        if (!esiste(_codice)) {\r\n            Collocazione memory coll = Collocazione(_codice, _numero, _rigo, collocazione.length);\r\n            mapping_collocazione[_codice] = coll;\r\n            collocazione.push(_codice);\r\n        }\r\n        // altrimenti si fa un update del valore del registro e del rigo precedenti, dato che ho una collocazione piu aggiornata\r\n        else {\r\n            updateCollocazione(_codice, _numero, _rigo);\r\n        }\r\n    }\r\n    \r\n    \r\n    // fa un update del registro e del rigo \r\n    function updateCollocazione (string memory _codice, uint _numero, uint _rigo) private {\r\n        mapping_collocazione[_codice].numero = _numero;\r\n        mapping_collocazione[_codice].rigo = _rigo;\r\n    }\r\n    \r\n    \r\n    // serve per restituire i vari codici di lavoro con la relativa collocazione, ovvero rigo e registro\r\n    function findRegistri() public returns(string[] memory, uint[] memory, uint[] memory) {\r\n        uint lunghezza = collocazione.length;\r\n        string[] memory codici = new string[](lunghezza);\r\n        uint[] memory righi = new uint[](lunghezza);\r\n        uint[] memory regi = new uint[](lunghezza);\r\n        uint j = 0;\r\n        for (uint i = 0; i < lunghezza; i++) {\r\n            codici[j] = mapping_collocazione[collocazione[i]].codice;\r\n            righi[j] = mapping_collocazione[collocazione[i]].rigo;\r\n            regi[j] = mapping_collocazione[collocazione[i]].numero;\r\n            j++;\r\n        }\r\n        return (codici, righi, regi);\r\n    }\r\n    \r\n    \r\n    // restituisce il contenuto di un rigo di un registro \r\n    function findContenuto (uint _registro, uint _rigo) public returns(uint, uint, uint, uint) {\r\n        if (_registro == 1) {\r\n            uint lunghezza = righi_max_registro[_registro - 1] - 1;\r\n            \r\n            for (uint8 j = 0; j < lunghezza; j++) {\r\n                if (registri[j].numero_libretto == _registro && registri[j].rigo_libretto == _rigo) {\r\n                    return (registri[j].percentuale_totale, registri[j].percentuale_i, registri[j].percentuale_raggiunta, \r\n                    registri[j].costo_raggiunto);\r\n                }\r\n            }\r\n        }\r\n        else {\r\n            for (uint j = (righi_max_registro[_registro - 2] - 1); j < (righi_max_registro[_registro - 1] - 1); j++) {\r\n                if (registri[j].numero_libretto == _registro && registri[j].rigo_libretto == _rigo) {\r\n                    return (registri[j].percentuale_totale, registri[j].percentuale_i, registri[j].percentuale_raggiunta, \r\n                    registri[j].costo_raggiunto);\r\n                }\r\n            }\r\n        }\r\n    }\r\n    \r\n    \r\n    \r\n    \r\n    // fa l inserimento nel registro dei righi\r\n    function insertRegistro (uint _libretto, uint _rigo_libretto) private {\r\n        registri[numero_totale_registri - 1].data_registro = now;\r\n        registri[numero_totale_registri - 1].numero_libretto = _libretto;\r\n        registri[numero_totale_registri - 1].rigo_libretto = _rigo_libretto;\r\n        string memory codice_lavoro = l.findCodice(_libretto, _rigo_libretto);\r\n        registri[numero_totale_registri - 1].codice_lavoro = codice_lavoro;\r\n        registri[numero_totale_registri - 1].nome_lavoro = m.findNomeLavoro(codice_lavoro);\r\n        uint num_lavoro = m.findNumeroLavoro(codice_lavoro);\r\n        (string memory x, string memory y, uint perc_compl, uint z, uint cost_tot) = m.readLavori(num_lavoro);\r\n        registri[numero_totale_registri - 1].percentuale_totale = perc_compl; \r\n        registri[numero_totale_registri - 1].percentuale_i = m.countPercentualeLavoro(codice_lavoro); \r\n        registri[numero_totale_registri - 1].percentuale_raggiunta = m.countPercentualeRaggiunta(codice_lavoro); \r\n        registri[numero_totale_registri - 1].costo_i = cost_tot; \r\n        registri[numero_totale_registri - 1].costo_raggiunto = m.countCostoRaggiunto(codice_lavoro); \r\n    \r\n        addCollocazione(codice_lavoro, _rigo_libretto, _libretto);\r\n    }\r\n    \r\n    \r\n    // si permette di elaborare il registro di contabilit? solo se il libretto corrispondete ? completo\r\n    // ovvero: \r\n    // - si ? passati a compilare il successivo libretto, cioe ? stata chiamata la funzione finishLibretto\r\n    // - tutti i righi siano stati firmati\r\n    // - se firmati con riserva, sia stata completata la riserva\r\n    \r\n    // serve al rup per attivare il registro di contabilit?\r\n    // inserisce all interno della struct i dati che servono per il modello del registro\r\n    function enableRegistroContabilita () public onlyRup {\r\n        // richiede che la soglia non sia stata gia superata\r\n        // infatti in questo caso deve prima essere emanato il sal relativo a quella soglia\r\n        // prima di poter procedere all'inserimento di un nuovo registro\r\n        require(!m.getSuperata(), \"Si deve prima emanare un SAL prima di procedere alla compilazione di un nuovo registro\");\r\n        \r\n        // la checkLibretto restituisce false se il libretto che dev essere inserito non  completo, quindi si controlla che sia true\r\n        require(checkLibretto(), \"Nessun libretto  ancora completo per poter essere inserito in un registro\");\r\n        \r\n        uint[] memory righi = l.findRighiLibretto(registro);\r\n        \r\n        // per ogni valore da inserire all interno del libretto si chiama in modo cicliclo la insertRegistro\r\n        for (uint i = 0; i < righi.length ; i++) {\r\n            insertRegistro(registro, righi[i]);\r\n            numero_totale_registri++;\r\n        }\r\n        // una volta che tutti i righi di quel registro sono stati inseriti, si puo passare al registro successivo\r\n        // quindi si salva il numero di righi di quel registro\r\n        // si incrementa il registro\r\n        // si riporta ad uno il numero di righi del nuovo registro\r\n        data[registro - 1] = now;\r\n        righi_max_registro.push(numero_totale_registri);\r\n        registro++; \r\n        \r\n        \r\n        if (checkSoglia()) {\r\n            m.setSuperata();\r\n        }\r\n    }\r\n    \r\n   \r\n    \r\n    // serve per controllare che il nuovo valore raggiunto abbia superato la soglia\r\n    // restituisce il numero di soglia che si ? superata\r\n    function checkSoglia () private returns(bool) {\r\n        uint tot = countCostoRegistro();\r\n        \r\n        // se il totale calcolato con i registri fino ad ora ha superato la soglia, moltiplicata per il numero della soglia allora restituisce true\r\n        // il numero_soglia ? un valore che parte da 1 e viene incrementato ad ogni raggiungimento di una soglia\r\n        // nell ipotesi che la soglia da superare sia sempre uno stesso valore, allora va moltiplicato per il numero di soglia\r\n        // quindi se la soglia ? di 100, per la seconda 100*2 = 200, cio? quando si supera il valore di 200 allora restituisce true\r\n        \r\n        // potrebbe accadere che con il nuovo registro di contabilit? si vanno a superare anche 2 o piu soglie, quindi deve essere controllato\r\n        bool sup = false;\r\n        \r\n        while(checkSuperata(tot)) {\r\n            // se il totale raggiunto sommando tutti i costi dei righi dei registri completi supera la soglia corrente \r\n            // si va a controllare innanzitutto se il totale abbia superato anche la soglia successiva\r\n            // se la soglia successiva non ? superata \r\n            sup = true;\r\n        }\r\n        return sup;\r\n    }\r\n    \r\n    \r\n    // controlla se il totale calcolato sommando tutti i costi dei registri supera la soglia passata\r\n    function checkSuperata(uint _tot) public returns(bool) {\r\n        if (_tot >= (m.getSoglia() * m.getNumeroAcconto())) {\r\n            m.updateNumeroAcconto();\r\n            return true;\r\n        }\r\n        return false;\r\n    }    \r\n    \r\n     \r\n    // serve per contare il costo raggiunto con quel registro, quindi calcola il costo raggiunto con tutti i registri\r\n    function countCostoRegistro () private returns(uint) {\r\n        uint somma = 0;\r\n        \r\n        for (uint i = 0; i < (numero_totale_registri - 1); i++) {\r\n            somma += registri[i].costo_raggiunto;\r\n        }\r\n        return somma;\r\n    }\r\n    \r\n    \r\n    function getRegistri1 (uint _registro) public returns(uint[] memory, uint[] memory, uint[] memory, uint[] memory) {\r\n        if (_registro == 1) {\r\n            uint lunghezza = righi_max_registro[_registro - 1] - 1;\r\n            \r\n            uint[] memory perc_tot = new uint[](lunghezza);\r\n            uint[] memory perc_i = new uint[](lunghezza);\r\n            uint[] memory perc_ragg = new uint[](lunghezza);\r\n            uint[] memory costo_ragg = new uint[](lunghezza);\r\n            \r\n            uint cont = 0;\r\n            \r\n            for (uint8 j = 0; j < lunghezza; j++) {\r\n                perc_tot[cont] = registri[j].percentuale_totale;\r\n                perc_i[cont] = registri[j].percentuale_i;\r\n                perc_ragg[cont] = registri[j].percentuale_raggiunta;\r\n                costo_ragg[cont] = registri[j].costo_raggiunto;\r\n                \r\n                cont++;\r\n            }\r\n            return (perc_tot, perc_i, perc_ragg, costo_ragg);\r\n        }\r\n        else {\r\n            uint lunghezza = righi_max_registro[_registro - 1] - righi_max_registro[_registro - 2];\r\n            \r\n            uint[] memory perc_tot = new uint[](lunghezza);\r\n            uint[] memory perc_i = new uint[](lunghezza);\r\n            uint[] memory perc_ragg = new uint[](lunghezza);\r\n            uint[] memory costo_ragg = new uint[](lunghezza);\r\n            \r\n            uint cont = 0;\r\n            \r\n            for (uint j = (righi_max_registro[_registro - 2] - 1); j < (righi_max_registro[_registro - 1] - 1); j++) {\r\n                perc_tot[cont] = registri[j].percentuale_totale;\r\n                perc_i[cont] = registri[j].percentuale_i;\r\n                perc_ragg[cont] = registri[j].percentuale_raggiunta;\r\n                costo_ragg[cont] = registri[j].costo_raggiunto;\r\n                \r\n                cont++;\r\n            }\r\n            return (perc_tot, perc_i, perc_ragg, costo_ragg);\r\n        }\r\n    }\r\n    \r\n    function getRegistri2 (uint _registro) public returns(uint[] memory, uint[] memory, uint[] memory, uint[] memory) {\r\n        if (_registro == 1) {\r\n            uint lunghezza = righi_max_registro[_registro - 1] - 1;\r\n            \r\n            uint[] memory date = new uint[](lunghezza);\r\n            uint[] memory regi = new uint[](lunghezza);\r\n            uint[] memory righi = new uint[](lunghezza);\r\n            uint[] memory costo_i = new uint[](lunghezza);\r\n            \r\n            uint cont = 0;\r\n            \r\n            for (uint8 j = 0; j < lunghezza; j++) {\r\n                date[cont] = registri[j].data_registro;\r\n                regi[cont] = registri[j].numero_libretto;\r\n                righi[cont] = registri[j].rigo_libretto;\r\n                costo_i[cont] = registri[j].costo_i;\r\n                \r\n                cont++;\r\n            }\r\n            return (date, regi, righi, costo_i);\r\n        }\r\n        else {\r\n            uint lunghezza = righi_max_registro[_registro - 1] - righi_max_registro[_registro - 2];\r\n            \r\n            uint[] memory date = new uint[](lunghezza);\r\n            uint[] memory regi = new uint[](lunghezza);\r\n            uint[] memory righi = new uint[](lunghezza);\r\n            uint[] memory costo_i = new uint[](lunghezza);\r\n            \r\n            uint cont = 0;\r\n            \r\n            for (uint j = (righi_max_registro[_registro - 2] - 1); j < (righi_max_registro[_registro - 1] - 1); j++) {\r\n                date[cont] = registri[j].data_registro;\r\n                regi[cont] = registri[j].numero_libretto;\r\n                righi[cont] = registri[j].rigo_libretto;\r\n                costo_i[cont] = registri[j].costo_i;\r\n                \r\n                cont++;\r\n            }\r\n            return (date, regi, righi, costo_i);\r\n        }\r\n    }\r\n    \r\n    function getRegistri3 (uint _registro) public returns(string[] memory, string[] memory) {\r\n        if (_registro == 1) {\r\n            uint lunghezza = righi_max_registro[_registro - 1] - 1;\r\n            \r\n            string[] memory code = new string[](lunghezza);\r\n            string[] memory name = new string[](lunghezza);\r\n            \r\n            uint cont = 0;\r\n            \r\n            for (uint8 j = 0; j < lunghezza; j++) {\r\n                code[cont] = registri[j].codice_lavoro;\r\n                name[cont] = registri[j].nome_lavoro;\r\n                \r\n                cont++;\r\n            }\r\n            return (code, name);\r\n        }\r\n        else {\r\n            uint lunghezza = righi_max_registro[_registro - 1] - righi_max_registro[_registro - 2];\r\n            \r\n            string[] memory code = new string[](lunghezza);\r\n            string[] memory name = new string[](lunghezza);\r\n            \r\n            uint cont = 0;\r\n            \r\n            for (uint j = (righi_max_registro[_registro - 2] - 1); j < (righi_max_registro[_registro - 1] - 1); j++) {\r\n                code[cont] = registri[j].codice_lavoro;\r\n                name[cont] = registri[j].nome_lavoro;\r\n                \r\n                cont++;\r\n            }\r\n            return (code, name);\r\n        }\r\n    }\r\n    \r\n    \r\n    Libretto l;\r\n    address private indirizzoLibretto;\r\n    \r\n    function setIndirizzoLibretto (address _indirizzo) public {\r\n        require(_indirizzo != address(0), \"L'indirizzo passato non ? valido\");\r\n        indirizzoLibretto = _indirizzo;\r\n        l = Libretto(indirizzoLibretto);\r\n    }\r\n    \r\n    Misure m;\r\n    address private indirizzoMisure;\r\n    \r\n    function setIndirizzoMisure (address _indirizzo) public {\r\n        require(_indirizzo != address(0), \"L'indirizzo passato non ? valido\");\r\n        indirizzoMisure = _indirizzo;\r\n        m = Misure(indirizzoMisure);\r\n    }\r\n    \r\n    \r\n    modifier onlyDirettoreLavori {\r\n        // solo il Direttore dei Lavori pu? utilizzare questa funzione\r\n        require(\r\n            m.enableDL(msg.sender), \"Solo il Direttore dei Lavori pu? utilizzare questa funzione\"\r\n        );\r\n        _; //indica dove deve essere posta la funzione chiamata\r\n    } \r\n    \r\n    modifier onlyRup {\r\n        // solo il rup pu? utilizzare questa funzione\r\n        require(\r\n            m.enableRUP(msg.sender), \"Solo il RUP pu? utilizzare questa funzione\"\r\n        );\r\n        _; //indica dove deve essere posta la funzione chiamata\r\n    }\r\n    \r\n    function killRegistro() public {\r\n        selfdestruct(msg.sender);\r\n    }\r\n}\r\n",
  "sourcePath": "/Users/roby/Desktop/ServerIds/truffle/contracts/Registro.sol",
  "compiler": {
    "name": "solc",
    "version": "0.5.0+commit.1d4f565a.Emscripten.clang"
  },
  "schemaVersion": "3.0.8",
  "updatedAt": "2019-09-06T09:37:53.896Z",
  "devdoc": {
    "methods": {}
  },
  "userdoc": {
    "methods": {}
  }
}