{
  "contractName": "Riserve",
  "abi": [
    {
      "constant": false,
      "inputs": [
        {
          "name": "_libretto",
          "type": "uint256"
        }
      ],
      "name": "getRiserve1",
      "outputs": [
        {
          "name": "",
          "type": "bool[]"
        },
        {
          "name": "",
          "type": "bool[]"
        },
        {
          "name": "",
          "type": "bool[]"
        }
      ],
      "payable": false,
      "stateMutability": "nonpayable",
      "type": "function",
      "signature": "0x3a8d476b"
    },
    {
      "constant": false,
      "inputs": [
        {
          "name": "_libretto",
          "type": "uint256"
        }
      ],
      "name": "getRiserve2",
      "outputs": [
        {
          "name": "",
          "type": "uint256[]"
        },
        {
          "name": "",
          "type": "uint256[]"
        },
        {
          "name": "",
          "type": "string[]"
        }
      ],
      "payable": false,
      "stateMutability": "nonpayable",
      "type": "function",
      "signature": "0x51f9909e"
    },
    {
      "constant": false,
      "inputs": [
        {
          "name": "_descrizione",
          "type": "string"
        },
        {
          "name": "_percentuale",
          "type": "uint256"
        },
        {
          "name": "_rigo",
          "type": "uint256"
        },
        {
          "name": "_libretto",
          "type": "uint256"
        }
      ],
      "name": "insertRiserva",
      "outputs": [],
      "payable": false,
      "stateMutability": "nonpayable",
      "type": "function",
      "signature": "0xb8264c79"
    },
    {
      "constant": false,
      "inputs": [
        {
          "name": "_indirizzo",
          "type": "address"
        }
      ],
      "name": "setIndirizzoLibretto",
      "outputs": [],
      "payable": false,
      "stateMutability": "nonpayable",
      "type": "function",
      "signature": "0xcb92b744"
    },
    {
      "constant": false,
      "inputs": [
        {
          "name": "_indirizzo",
          "type": "address"
        }
      ],
      "name": "setIndirizzoMisure",
      "outputs": [],
      "payable": false,
      "stateMutability": "nonpayable",
      "type": "function",
      "signature": "0x14481ad6"
    },
    {
      "constant": false,
      "inputs": [
        {
          "name": "_indirizzo",
          "type": "address"
        }
      ],
      "name": "setIndirizzoFirme",
      "outputs": [],
      "payable": false,
      "stateMutability": "nonpayable",
      "type": "function",
      "signature": "0xd111bfb4"
    },
    {
      "constant": false,
      "inputs": [],
      "name": "killRiserve",
      "outputs": [],
      "payable": false,
      "stateMutability": "nonpayable",
      "type": "function",
      "signature": "0x1d30c0ed"
    }
  ],
  "bytecode": "0x608060405234801561001057600080fd5b5061314d806100206000396000f3fe608060405260043610610083576000357c0100000000000000000000000000000000000000000000000000000000900463ffffffff16806314481ad6146100885780631d30c0ed146100b15780633a8d476b146100c857806351f9909e14610107578063b8264c7914610146578063cb92b7441461016f578063d111bfb414610198575b600080fd5b34801561009457600080fd5b506100af60048036036100aa91908101906127ae565b6101c1565b005b3480156100bd57600080fd5b506100c66102da565b005b3480156100d457600080fd5b506100ef60048036036100ea91908101906128bc565b6102f3565b6040516100fe93929190612cfd565b60405180910390f35b34801561011357600080fd5b5061012e600480360361012991908101906128bc565b6110e3565b60405161013d93929190612d49565b60405180910390f35b34801561015257600080fd5b5061016d60048036036101689190810190612841565b611ba9565b005b34801561017b57600080fd5b50610196600480360361019191908101906127ae565b6123db565b005b3480156101a457600080fd5b506101bf60048036036101ba91908101906127ae565b6124f4565b005b600073ffffffffffffffffffffffffffffffffffffffff168173ffffffffffffffffffffffffffffffffffffffff1614151515610233576040517f08c379a000000000000000000000000000000000000000000000000000000000815260040161022a90612e27565b60405180910390fd5b80600460006101000a81548173ffffffffffffffffffffffffffffffffffffffff021916908373ffffffffffffffffffffffffffffffffffffffff160217905550600460009054906101000a900473ffffffffffffffffffffffffffffffffffffffff16600360006101000a81548173ffffffffffffffffffffffffffffffffffffffff021916908373ffffffffffffffffffffffffffffffffffffffff16021790555050565b3373ffffffffffffffffffffffffffffffffffffffff16ff5b6060806060600160009054906101000a900473ffffffffffffffffffffffffffffffffffffffff1673ffffffffffffffffffffffffffffffffffffffff1663555292f16040518163ffffffff167c0100000000000000000000000000000000000000000000000000000000028152600401602060405180830381600087803b15801561037e57600080fd5b505af1158015610392573d6000803e3d6000fd5b505050506040513d601f19601f820116820180604052506103b691908101906128e5565b841015156103f9576040517f08c379a00000000000000000000000000000000000000000000000000000000081526004016103f090612e67565b60405180910390fd5b600184141561094357600060018060009054906101000a900473ffffffffffffffffffffffffffffffffffffffff1673ffffffffffffffffffffffffffffffffffffffff1663d64b201c876040518263ffffffff167c010000000000000000000000000000000000000000000000000000000002815260040161047c9190612ea7565b602060405180830381600087803b15801561049657600080fd5b505af11580156104aa573d6000803e3d6000fd5b505050506040513d601f19601f820116820180604052506104ce91908101906128e5565b0390506060816040519080825280602002602001820160405280156105025781602001602082028038833980820191505090505b5090506060826040519080825280602002602001820160405280156105365781602001602082028038833980820191505090505b50905060608360405190808252806020026020018201604052801561056a5781602001602082028038833980820191505090505b509050600080905060008090505b858160ff16101561092f57600160009054906101000a900473ffffffffffffffffffffffffffffffffffffffff1673ffffffffffffffffffffffffffffffffffffffff16630d4c9fdd826040518263ffffffff167c01000000000000000000000000000000000000000000000000000000000281526004016105fa9190612f14565b602060405180830381600087803b15801561061457600080fd5b505af1158015610628573d6000803e3d6000fd5b505050506040513d601f19601f8201168201806040525061064c91908101906127d7565b156108ad57600560009054906101000a900473ffffffffffffffffffffffffffffffffffffffff1673ffffffffffffffffffffffffffffffffffffffff1663eb8049438b600184016040518363ffffffff167c01000000000000000000000000000000000000000000000000000000000281526004016106cd929190612eeb565b602060405180830381600087803b1580156106e757600080fd5b505af11580156106fb573d6000803e3d6000fd5b505050506040513d601f19601f8201168201806040525061071f91908101906127d7565b858381518110151561072d57fe5b9060200190602002019015159081151581525050600560009054906101000a900473ffffffffffffffffffffffffffffffffffffffff1673ffffffffffffffffffffffffffffffffffffffff166377f7b6e18b600184016040518363ffffffff167c01000000000000000000000000000000000000000000000000000000000281526004016107bd929190612eeb565b602060405180830381600087803b1580156107d757600080fd5b505af11580156107eb573d6000803e3d6000fd5b505050506040513d601f19601f8201168201806040525061080f91908101906127d7565b848381518110151561081d57fe5b906020019060200201901515908115158152505060008060008360ff16815260200190815260200160002060000154141561087b576000838381518110151561086257fe5b90602001906020020190151590811515815250506108a0565b6001838381518110151561088b57fe5b90602001906020020190151590811515815250505b8180600101925050610922565b600185838151811015156108bd57fe5b9060200190602002019015159081151581525050600184838151811015156108e157fe5b90602001906020020190151590811515815250506001838381518110151561090557fe5b906020019060200201901515908115158152505081806001019250505b8080600101915050610578565b5083838397509750975050505050506110dc565b6000600160009054906101000a900473ffffffffffffffffffffffffffffffffffffffff1673ffffffffffffffffffffffffffffffffffffffff1663d64b201c600187036040518263ffffffff167c01000000000000000000000000000000000000000000000000000000000281526004016109bf9190612ea7565b602060405180830381600087803b1580156109d957600080fd5b505af11580156109ed573d6000803e3d6000fd5b505050506040513d601f19601f82011682018060405250610a1191908101906128e5565b600160009054906101000a900473ffffffffffffffffffffffffffffffffffffffff1673ffffffffffffffffffffffffffffffffffffffff1663d64b201c876040518263ffffffff167c0100000000000000000000000000000000000000000000000000000000028152600401610a889190612ea7565b602060405180830381600087803b158015610aa257600080fd5b505af1158015610ab6573d6000803e3d6000fd5b505050506040513d601f19601f82011682018060405250610ada91908101906128e5565b039050606081604051908082528060200260200182016040528015610b0e5781602001602082028038833980820191505090505b509050606082604051908082528060200260200182016040528015610b425781602001602082028038833980820191505090505b509050606083604051908082528060200260200182016040528015610b765781602001602082028038833980820191505090505b5090506000809050600060018060009054906101000a900473ffffffffffffffffffffffffffffffffffffffff1673ffffffffffffffffffffffffffffffffffffffff1663d64b201c60018d036040518263ffffffff167c0100000000000000000000000000000000000000000000000000000000028152600401610bfb9190612ea7565b602060405180830381600087803b158015610c1557600080fd5b505af1158015610c29573d6000803e3d6000fd5b505050506040513d601f19601f82011682018060405250610c4d91908101906128e5565b0390505b60018060009054906101000a900473ffffffffffffffffffffffffffffffffffffffff1673ffffffffffffffffffffffffffffffffffffffff1663d64b201c8c6040518263ffffffff167c0100000000000000000000000000000000000000000000000000000000028152600401610cc99190612ea7565b602060405180830381600087803b158015610ce357600080fd5b505af1158015610cf7573d6000803e3d6000fd5b505050506040513d601f19601f82011682018060405250610d1b91908101906128e5565b038110156110cc57600160009054906101000a900473ffffffffffffffffffffffffffffffffffffffff1673ffffffffffffffffffffffffffffffffffffffff16630d4c9fdd826040518263ffffffff167c0100000000000000000000000000000000000000000000000000000000028152600401610d9a9190612ea7565b602060405180830381600087803b158015610db457600080fd5b505af1158015610dc8573d6000803e3d6000fd5b505050506040513d601f19601f82011682018060405250610dec91908101906127d7565b1561104a57600560009054906101000a900473ffffffffffffffffffffffffffffffffffffffff1673ffffffffffffffffffffffffffffffffffffffff1663eb8049438b600185016040518363ffffffff167c0100000000000000000000000000000000000000000000000000000000028152600401610e6d929190612ec2565b602060405180830381600087803b158015610e8757600080fd5b505af1158015610e9b573d6000803e3d6000fd5b505050506040513d601f19601f82011682018060405250610ebf91908101906127d7565b8583815181101515610ecd57fe5b9060200190602002019015159081151581525050600560009054906101000a900473ffffffffffffffffffffffffffffffffffffffff1673ffffffffffffffffffffffffffffffffffffffff166377f7b6e18b600185016040518363ffffffff167c0100000000000000000000000000000000000000000000000000000000028152600401610f5d929190612ec2565b602060405180830381600087803b158015610f7757600080fd5b505af1158015610f8b573d6000803e3d6000fd5b505050506040513d601f19601f82011682018060405250610faf91908101906127d7565b8483815181101515610fbd57fe5b906020019060200201901515908115158152505060008060008381526020019081526020016000206000015414156110185760008383815181101515610fff57fe5b906020019060200201901515908115158152505061103d565b6001838381518110151561102857fe5b90602001906020020190151590811515815250505b81806001019250506110bf565b6001858381518110151561105a57fe5b90602001906020020190151590811515815250506001848381518110151561107e57fe5b9060200190602002019015159081151581525050600183838151811015156110a257fe5b906020019060200201901515908115158152505081806001019250505b8080600101915050610c51565b5083838397509750975050505050505b9193909250565b6060806060600160009054906101000a900473ffffffffffffffffffffffffffffffffffffffff1673ffffffffffffffffffffffffffffffffffffffff1663555292f16040518163ffffffff167c0100000000000000000000000000000000000000000000000000000000028152600401602060405180830381600087803b15801561116e57600080fd5b505af1158015611182573d6000803e3d6000fd5b505050506040513d601f19601f820116820180604052506111a691908101906128e5565b841015156111e9576040517f08c379a00000000000000000000000000000000000000000000000000000000081526004016111e090612e67565b60405180910390fd5b60018414156115a157600060018060009054906101000a900473ffffffffffffffffffffffffffffffffffffffff1673ffffffffffffffffffffffffffffffffffffffff1663d64b201c876040518263ffffffff167c010000000000000000000000000000000000000000000000000000000002815260040161126c9190612ea7565b602060405180830381600087803b15801561128657600080fd5b505af115801561129a573d6000803e3d6000fd5b505050506040513d601f19601f820116820180604052506112be91908101906128e5565b0390506060816040519080825280602002602001820160405280156112f25781602001602082028038833980820191505090505b5090506060826040519080825280602002602001820160405280156113265781602001602082028038833980820191505090505b50905060608360405190808252806020026020018201604052801561135f57816020015b606081526020019060019003908161134a5790505b509050600080905060008090505b858160ff16101561158d57600160009054906101000a900473ffffffffffffffffffffffffffffffffffffffff1673ffffffffffffffffffffffffffffffffffffffff16630d4c9fdd826040518263ffffffff167c01000000000000000000000000000000000000000000000000000000000281526004016113ef9190612f14565b602060405180830381600087803b15801561140957600080fd5b505af115801561141d573d6000803e3d6000fd5b505050506040513d601f19601f8201168201806040525061144191908101906127d7565b15611577576001810160ff16858381518110151561145b57fe5b90602001906020020181815250506000808260ff16815260200190815260200160002060000154848381518110151561149057fe5b90602001906020020181815250506000808260ff1681526020019081526020016000206001018054600181600116156101000203166002900480601f01602080910402602001604051908101604052809291908181526020018280546001816001161561010002031660029004801561154a5780601f1061151f5761010080835404028352916020019161154a565b820191906000526020600020905b81548152906001019060200180831161152d57829003601f168201915b5050505050838381518110151561155d57fe5b906020019060200201819052508180600101925050611580565b81806001019250505b808060010191505061136d565b508383839750975097505050505050611ba2565b6000600160009054906101000a900473ffffffffffffffffffffffffffffffffffffffff1673ffffffffffffffffffffffffffffffffffffffff1663d64b201c600187036040518263ffffffff167c010000000000000000000000000000000000000000000000000000000002815260040161161d9190612ea7565b602060405180830381600087803b15801561163757600080fd5b505af115801561164b573d6000803e3d6000fd5b505050506040513d601f19601f8201168201806040525061166f91908101906128e5565b600160009054906101000a900473ffffffffffffffffffffffffffffffffffffffff1673ffffffffffffffffffffffffffffffffffffffff1663d64b201c876040518263ffffffff167c01000000000000000000000000000000000000000000000000000000000281526004016116e69190612ea7565b602060405180830381600087803b15801561170057600080fd5b505af1158015611714573d6000803e3d6000fd5b505050506040513d601f19601f8201168201806040525061173891908101906128e5565b03905060608160405190808252806020026020018201604052801561176c5781602001602082028038833980820191505090505b5090506060826040519080825280602002602001820160405280156117a05781602001602082028038833980820191505090505b5090506060836040519080825280602002602001820160405280156117d957816020015b60608152602001906001900390816117c45790505b5090506000809050600060018060009054906101000a900473ffffffffffffffffffffffffffffffffffffffff1673ffffffffffffffffffffffffffffffffffffffff1663d64b201c60018d036040518263ffffffff167c010000000000000000000000000000000000000000000000000000000002815260040161185e9190612ea7565b602060405180830381600087803b15801561187857600080fd5b505af115801561188c573d6000803e3d6000fd5b505050506040513d601f19601f820116820180604052506118b091908101906128e5565b0390505b60018060009054906101000a900473ffffffffffffffffffffffffffffffffffffffff1673ffffffffffffffffffffffffffffffffffffffff1663d64b201c8c6040518263ffffffff167c010000000000000000000000000000000000000000000000000000000002815260040161192c9190612ea7565b602060405180830381600087803b15801561194657600080fd5b505af115801561195a573d6000803e3d6000fd5b505050506040513d601f19601f8201168201806040525061197e91908101906128e5565b03811015611b9257600160009054906101000a900473ffffffffffffffffffffffffffffffffffffffff1673ffffffffffffffffffffffffffffffffffffffff16630d4c9fdd826040518263ffffffff167c01000000000000000000000000000000000000000000000000000000000281526004016119fd9190612ea7565b602060405180830381600087803b158015611a1757600080fd5b505af1158015611a2b573d6000803e3d6000fd5b505050506040513d601f19601f82011682018060405250611a4f91908101906127d7565b15611b7c57600181018583815181101515611a6657fe5b9060200190602002018181525050600080828152602001908152602001600020600001548483815181101515611a9857fe5b90602001906020020181815250506000808281526020019081526020016000206001018054600181600116156101000203166002900480601f016020809104026020016040519081016040528092919081815260200182805460018160011615610100020316600290048015611b4f5780601f10611b2457610100808354040283529160200191611b4f565b820191906000526020600020905b815481529060010190602001808311611b3257829003601f168201915b50505050508383815181101515611b6257fe5b906020019060200201819052508180600101925050611b85565b81806001019250505b80806001019150506118b4565b5083838397509750975050505050505b9193909250565b600360009054906101000a900473ffffffffffffffffffffffffffffffffffffffff1673ffffffffffffffffffffffffffffffffffffffff1662deb5d6336040518263ffffffff167c0100000000000000000000000000000000000000000000000000000000028152600401611c1f9190612ce2565b602060405180830381600087803b158015611c3957600080fd5b505af1158015611c4d573d6000803e3d6000fd5b505050506040513d601f19601f82011682018060405250611c7191908101906127d7565b1515611cb2576040517f08c379a0000000000000000000000000000000000000000000000000000000008152600401611ca990612e87565b60405180910390fd5b600560009054906101000a900473ffffffffffffffffffffffffffffffffffffffff1673ffffffffffffffffffffffffffffffffffffffff166377f7b6e182846040518363ffffffff167c0100000000000000000000000000000000000000000000000000000000028152600401611d2b929190612ec2565b602060405180830381600087803b158015611d4557600080fd5b505af1158015611d59573d6000803e3d6000fd5b505050506040513d601f19601f82011682018060405250611d7d91908101906127d7565b1515611dbe576040517f08c379a0000000000000000000000000000000000000000000000000000000008152600401611db590612e07565b60405180910390fd5b6000600160009054906101000a900473ffffffffffffffffffffffffffffffffffffffff1673ffffffffffffffffffffffffffffffffffffffff1663431e50a483856040518363ffffffff167c0100000000000000000000000000000000000000000000000000000000028152600401611e39929190612ec2565b602060405180830381600087803b158015611e5357600080fd5b505af1158015611e67573d6000803e3d6000fd5b505050506040513d601f19601f82011682018060405250611e8b91908101906128e5565b9050600080600060018403815260200190815260200160002060000154141515611eea576040517f08c379a0000000000000000000000000000000000000000000000000000000008152600401611ee190612e47565b60405180910390fd5b846000806001840381526020019081526020016000206001019080519060200190611f1692919061260d565b5060648411151515611f5d576040517f08c379a0000000000000000000000000000000000000000000000000000000008152600401611f5490612de7565b60405180910390fd5b83600080600184038152602001908152602001600020600001819055506060600160009054906101000a900473ffffffffffffffffffffffffffffffffffffffff1673ffffffffffffffffffffffffffffffffffffffff16637d98d77484866040518363ffffffff167c0100000000000000000000000000000000000000000000000000000000028152600401611ff5929190612ec2565b600060405180830381600087803b15801561200f57600080fd5b505af1158015612023573d6000803e3d6000fd5b505050506040513d6000823e3d601f19601f8201168201806040525061204c9190810190612800565b9050600360009054906101000a900473ffffffffffffffffffffffffffffffffffffffff1673ffffffffffffffffffffffffffffffffffffffff166335079ea782876040518363ffffffff167c01000000000000000000000000000000000000000000000000000000000281526004016120c7929190612db7565b600060405180830381600087803b1580156120e157600080fd5b505af11580156120f5573d6000803e3d6000fd5b50505050600360009054906101000a900473ffffffffffffffffffffffffffffffffffffffff1673ffffffffffffffffffffffffffffffffffffffff16632a1658fa826040518263ffffffff167c01000000000000000000000000000000000000000000000000000000000281526004016121709190612d95565b600060405180830381600087803b15801561218a57600080fd5b505af115801561219e573d6000803e3d6000fd5b50505050600160009054906101000a900473ffffffffffffffffffffffffffffffffffffffff1673ffffffffffffffffffffffffffffffffffffffff16635fe10b00846040518263ffffffff167c01000000000000000000000000000000000000000000000000000000000281526004016122199190612ea7565b602060405180830381600087803b15801561223357600080fd5b505af1158015612247573d6000803e3d6000fd5b505050506040513d601f19601f8201168201806040525061226b91908101906127d7565b156123d357600360009054906101000a900473ffffffffffffffffffffffffffffffffffffffff1673ffffffffffffffffffffffffffffffffffffffff1663f6070aa06040518163ffffffff167c0100000000000000000000000000000000000000000000000000000000028152600401602060405180830381600087803b1580156122f657600080fd5b505af115801561230a573d6000803e3d6000fd5b505050506040513d601f19601f8201168201806040525061232e91908101906127d7565b156123d257600360009054906101000a900473ffffffffffffffffffffffffffffffffffffffff1673ffffffffffffffffffffffffffffffffffffffff16633d1be3dd6040518163ffffffff167c0100000000000000000000000000000000000000000000000000000000028152600401600060405180830381600087803b1580156123b957600080fd5b505af11580156123cd573d6000803e3d6000fd5b505050505b5b505050505050565b600073ffffffffffffffffffffffffffffffffffffffff168173ffffffffffffffffffffffffffffffffffffffff161415151561244d576040517f08c379a000000000000000000000000000000000000000000000000000000000815260040161244490612e27565b60405180910390fd5b80600260006101000a81548173ffffffffffffffffffffffffffffffffffffffff021916908373ffffffffffffffffffffffffffffffffffffffff160217905550600260009054906101000a900473ffffffffffffffffffffffffffffffffffffffff16600160006101000a81548173ffffffffffffffffffffffffffffffffffffffff021916908373ffffffffffffffffffffffffffffffffffffffff16021790555050565b600073ffffffffffffffffffffffffffffffffffffffff168173ffffffffffffffffffffffffffffffffffffffff1614151515612566576040517f08c379a000000000000000000000000000000000000000000000000000000000815260040161255d90612e27565b60405180910390fd5b80600660006101000a81548173ffffffffffffffffffffffffffffffffffffffff021916908373ffffffffffffffffffffffffffffffffffffffff160217905550600660009054906101000a900473ffffffffffffffffffffffffffffffffffffffff16600560006101000a81548173ffffffffffffffffffffffffffffffffffffffff021916908373ffffffffffffffffffffffffffffffffffffffff16021790555050565b828054600181600116156101000203166002900490600052602060002090601f016020900481019282601f1061264e57805160ff191683800117855561267c565b8280016001018555821561267c579182015b8281111561267b578251825591602001919060010190612660565b5b509050612689919061268d565b5090565b6126af91905b808211156126ab576000816000905550600101612693565b5090565b90565b60006126be8235613050565b905092915050565b60006126d28251613062565b905092915050565b600082601f83011215156126ed57600080fd5b81356127006126fb82612f5c565b612f2f565b9150808252602083016020830185838301111561271c57600080fd5b6127278382846130c0565b50505092915050565b600082601f830112151561274357600080fd5b815161275661275182612f5c565b612f2f565b9150808252602083016020830185838301111561277257600080fd5b61277d8382846130cf565b50505092915050565b6000612792823561306e565b905092915050565b60006127a6825161306e565b905092915050565b6000602082840312156127c057600080fd5b60006127ce848285016126b2565b91505092915050565b6000602082840312156127e957600080fd5b60006127f7848285016126c6565b91505092915050565b60006020828403121561281257600080fd5b600082015167ffffffffffffffff81111561282c57600080fd5b61283884828501612730565b91505092915050565b6000806000806080858703121561285757600080fd5b600085013567ffffffffffffffff81111561287157600080fd5b61287d878288016126da565b945050602061288e87828801612786565b935050604061289f87828801612786565b92505060606128b087828801612786565b91505092959194509250565b6000602082840312156128ce57600080fd5b60006128dc84828501612786565b91505092915050565b6000602082840312156128f757600080fd5b60006129058482850161279a565b91505092915050565b61291781613078565b82525050565b600061292882612faf565b80845260208401935061293a83612f88565b60005b8281101561296c57612950868351612a41565b61295982612fe6565b915060208601955060018101905061293d565b50849250505092915050565b600061298382612fba565b8084526020840193508360208202850161299c85612f95565b60005b848110156129d55783830388526129b7838351612a86565b92506129c282612ff3565b915060208801975060018101905061299f565b508196508694505050505092915050565b60006129f182612fc5565b808452602084019350612a0383612fa2565b60005b82811015612a3557612a19868351612cc4565b612a2282613000565b9150602086019550600181019050612a06565b50849250505092915050565b612a4a8161300d565b82525050565b6000612a5b82612fdb565b808452612a6f8160208601602086016130cf565b612a7881613102565b602085010191505092915050565b6000612a9182612fd0565b808452612aa58160208601602086016130cf565b612aae81613102565b602085010191505092915050565b6000603e82527f4e6f6e203f20706f73736962696c6520696e73657269726520756e2076616c6f60208301527f72652070657263656e7475616c65207375706572696f726520612031303000006040830152606082019050919050565b6000602f82527f4e6f6e20736920686120756e61206669726d6120636f6e20726973657276612060208301527f7065722071756573746f207269676f00000000000000000000000000000000006040830152606082019050919050565b6000602082527f4c27696e646972697a7a6f207061737361746f206e6f6e203f2076616c69646f6020830152604082019050919050565b6000603082527f4c612072697365727661203f2067693f207374617461206573706c696369746160208301527f746120696e20707265636564656e7a61000000000000000000000000000000006040830152606082019050919050565b6000602a82527f496c206c6962726574746f206e6f6e20efbfbd20616e636f726120737461746f60208301527f207465726d696e61746f000000000000000000000000000000000000000000006040830152606082019050919050565b6000603b82527f536f6c6f20696c204469726574746f726520646569204c61766f72692070753f60208301527f207574696c697a7a617265207175657374612066756e7a696f6e6500000000006040830152606082019050919050565b612ccd81613039565b82525050565b612cdc816130ae565b82525050565b6000602082019050612cf7600083018461290e565b92915050565b60006060820190508181036000830152612d17818661291d565b90508181036020830152612d2b818561291d565b90508181036040830152612d3f818461291d565b9050949350505050565b60006060820190508181036000830152612d6381866129e6565b90508181036020830152612d7781856129e6565b90508181036040830152612d8b8184612978565b9050949350505050565b60006020820190508181036000830152612daf8184612a50565b905092915050565b60006040820190508181036000830152612dd18185612a50565b9050612de06020830184612cc4565b9392505050565b60006020820190508181036000830152612e0081612abc565b9050919050565b60006020820190508181036000830152612e2081612b19565b9050919050565b60006020820190508181036000830152612e4081612b76565b9050919050565b60006020820190508181036000830152612e6081612bad565b9050919050565b60006020820190508181036000830152612e8081612c0a565b9050919050565b60006020820190508181036000830152612ea081612c67565b9050919050565b6000602082019050612ebc6000830184612cc4565b92915050565b6000604082019050612ed76000830185612cc4565b612ee46020830184612cc4565b9392505050565b6000604082019050612f006000830185612cc4565b612f0d6020830184612cd3565b9392505050565b6000602082019050612f296000830184612cd3565b92915050565b6000604051905081810181811067ffffffffffffffff82111715612f5257600080fd5b8060405250919050565b600067ffffffffffffffff821115612f7357600080fd5b601f19601f8301169050602081019050919050565b6000602082019050919050565b6000602082019050919050565b6000602082019050919050565b600081519050919050565b600081519050919050565b600081519050919050565b600081519050919050565b600081519050919050565b6000602082019050919050565b6000602082019050919050565b6000602082019050919050565b60008115159050919050565b600073ffffffffffffffffffffffffffffffffffffffff82169050919050565b6000819050919050565b600060ff82169050919050565b600061305b82613019565b9050919050565b60008115159050919050565b6000819050919050565b60006130838261308a565b9050919050565b60006130958261309c565b9050919050565b60006130a782613019565b9050919050565b60006130b982613043565b9050919050565b82818337600083830152505050565b60005b838110156130ed5780820151818401526020810190506130d2565b838111156130fc576000848401525b50505050565b6000601f19601f830116905091905056fea265627a7a723058202f35e23ef6a1f1627984d3c59552008fb0c2c6c3d9a2cce77df0288f2f9c42096c6578706572696d656e74616cf50037",
  "source": "pragma solidity ^0.5.0;\r\npragma experimental ABIEncoderV2;\r\n\r\nimport \"./Libretto.sol\";\r\nimport \"./Misure.sol\";\r\nimport \"./Firme.sol\";\r\n\r\ncontract Riserve {\r\n    \r\n    struct Riserva {\r\n        uint percentuale_riserva;\r\n        string descrizione_riserva;\r\n    }\r\n    \r\n    mapping (uint => Riserva) private riserve;\r\n    \r\n    \r\n    // restituisce 6 campi:\r\n    // - uint array per il numero di rigo\r\n    // - bool array per la firma/firma con riserva o no\r\n    // - bool array per la firma con riserva o no\r\n    // - bool array per la riserva o no\r\n    // - uint array per la percentuale_riserva\r\n    // - string array per la descrizione_riserva\r\n    function getRiserve1(uint _libretto) public returns(bool[] memory, bool[] memory, bool[] memory) {\r\n        require (_libretto < l.getLibretto(), \"Il libretto non  ancora stato terminato\");\r\n        if (_libretto == 1) {\r\n            uint lunghezza = (l.getRighiMaxLibretto(_libretto) - 1);\r\n            \r\n            bool[] memory fir = new bool[](lunghezza);\r\n            bool[] memory firis = new bool[](lunghezza);\r\n            bool[] memory ris = new bool[](lunghezza);\r\n            \r\n            uint cont = 0;\r\n            \r\n            for (uint8 j = 0; j < lunghezza; j++) {\r\n                if (l.checkSovrascritto(j)) {\r\n                    fir[cont] = a.checkFirma(_libretto, j+1);\r\n                    firis[cont] = a.checkRiserva(_libretto, j+1);\r\n                    \r\n                    if (riserve[j].percentuale_riserva == 0) {\r\n                        ris[cont] = false;\r\n                    }\r\n                    else {\r\n                        ris[cont] = true;\r\n                    }\r\n                    \r\n                    cont++;\r\n                }\r\n                else {\r\n                    fir[cont] = true;\r\n                    firis[cont] = true;\r\n                    ris[cont] = true;\r\n                    cont++;\r\n                }\r\n            }\r\n            return (fir, firis, ris);\r\n        }\r\n        else {\r\n            uint lunghezza = (l.getRighiMaxLibretto(_libretto) - l.getRighiMaxLibretto(_libretto - 1));\r\n            \r\n            bool[] memory fir = new bool[](lunghezza);\r\n            bool[] memory firis = new bool[](lunghezza);\r\n            bool[] memory ris = new bool[](lunghezza);\r\n            \r\n            uint cont = 0;\r\n            \r\n            for (uint j = (l.getRighiMaxLibretto(_libretto - 1) - 1); j < (l.getRighiMaxLibretto(_libretto) - 1); j++) {\r\n                if (l.checkSovrascritto(j)) {\r\n                    fir[cont] = a.checkFirma(_libretto, cont+1);\r\n                    firis[cont] = a.checkRiserva(_libretto, cont+1);\r\n                    \r\n                    if (riserve[j].percentuale_riserva == 0) {\r\n                        ris[cont] = false;\r\n                    }\r\n                    else {\r\n                        ris[cont] = true;\r\n                    }\r\n                    \r\n                    cont++;\r\n                }\r\n                else {\r\n                    fir[cont] = true;\r\n                    firis[cont] = true;\r\n                    ris[cont] = true;\r\n                    cont++;\r\n                }\r\n            }\r\n            return (fir, firis, ris);\r\n        }\r\n    }\r\n    \r\n    \r\n    function getRiserve2(uint _libretto) public returns(uint[] memory, uint[] memory, string[] memory) {\r\n        require (_libretto < l.getLibretto(), \"Il libretto non  ancora stato terminato\");\r\n        if (_libretto == 1) {\r\n            uint lunghezza = (l.getRighiMaxLibretto(_libretto) - 1);\r\n            \r\n            uint[] memory rig = new uint[](lunghezza);\r\n            uint[] memory perc = new uint[](lunghezza);\r\n            string[] memory desc = new string[](lunghezza);\r\n            \r\n            uint cont = 0;\r\n            \r\n            for (uint8 j = 0; j < lunghezza; j++) {\r\n                if (l.checkSovrascritto(j)) {\r\n                    rig[cont] = j+1;\r\n                    perc[cont] = riserve[j].percentuale_riserva;\r\n                    desc[cont] = riserve[j].descrizione_riserva;\r\n                    \r\n                    cont++;\r\n                }\r\n                else {\r\n                    cont++;\r\n                }\r\n            }\r\n            return (rig, perc, desc);\r\n        }\r\n        else {\r\n            uint lunghezza = (l.getRighiMaxLibretto(_libretto) - l.getRighiMaxLibretto(_libretto - 1));\r\n            \r\n            uint[] memory rig = new uint[](lunghezza);\r\n            uint[] memory perc = new uint[](lunghezza);\r\n            string[] memory desc = new string[](lunghezza);\r\n            \r\n            uint cont = 0;\r\n            \r\n            for (uint j = (l.getRighiMaxLibretto(_libretto - 1) - 1); j < (l.getRighiMaxLibretto(_libretto) - 1); j++) {\r\n                if (l.checkSovrascritto(j)) {\r\n                    rig[cont] = j+1;\r\n                    perc[cont] = riserve[j].percentuale_riserva;\r\n                    desc[cont] = riserve[j].descrizione_riserva;\r\n                    \r\n                    cont++;\r\n                }\r\n                else {\r\n                    cont++;\r\n                }\r\n            }\r\n            return (rig, perc, desc);\r\n        }\r\n    }\r\n    \r\n    \r\n    // il DL inserisce una riserva su una misurazione, e in automatico viene modificata la percentuale di completaento del lavoro\r\n    // _numero indica il numero del rigo del libretto, ovvero il numero totale di rigo, non il singolo rigo di quel libretto\r\n    function insertRiserva (string memory _descrizione, uint _percentuale, uint _rigo, uint _libretto)\r\n    public onlyDirettoreLavori {\r\n        // con il require si richiede che la ditta abbia espresso la volonta di firmare con una certa riserva\r\n        // e richiede anche che la percentuale non sia gia stata cambiata\r\n        require (a.checkRiserva(_libretto, _rigo), \"Non si ha una firma con riserva per questo rigo\"); \r\n        \r\n        uint rigo = l.getRigoLibretto(_libretto, _rigo);\r\n        require (riserve[rigo - 1].percentuale_riserva == 0, \"La riserva ? gi? stata esplicitata in precedenza\");\r\n        riserve[rigo - 1].descrizione_riserva = _descrizione;\r\n        require(_percentuale <= 100, \"Non ? possibile inserire un valore percentuale superiore a 100\");\r\n        riserve[rigo - 1].percentuale_riserva = _percentuale;\r\n        string memory codice = l.findCodice(_libretto, _rigo);\r\n        m.setPercentualeLavoro(codice, _percentuale); \r\n        m.updateValore(codice);\r\n        \r\n        // se sono state inserite tutte le firme a tutti i righi con evenutali riserve, allora il libretto  completo\r\n        if (l.checkLibrettoOk(_libretto)) {\r\n            // si va quindi a controllare che le percentuali di tutti i lavori siano al 100%, in modo da terminare il constratto\r\n            // se tutte sono al 100%\r\n            if (m.checkPercentuali()) {\r\n                // si chiama questa funzione che setta uan variabile a true per indicare che tutte le percentuali sono complete\r\n                m.setPercentuali();\r\n            }\r\n        }\r\n    } \r\n    \r\n    \r\n    \r\n    Libretto l;\r\n    address private indirizzoLibretto;\r\n    \r\n    function setIndirizzoLibretto (address _indirizzo) public {\r\n        require(_indirizzo != address(0), \"L'indirizzo passato non ? valido\");\r\n        indirizzoLibretto = _indirizzo;\r\n        l = Libretto(indirizzoLibretto);\r\n    }\r\n    \r\n    Misure m;\r\n    address private indirizzoMisure;\r\n    \r\n    function setIndirizzoMisure (address _indirizzo) public {\r\n        require(_indirizzo != address(0), \"L'indirizzo passato non ? valido\");\r\n        indirizzoMisure = _indirizzo;\r\n        m = Misure(indirizzoMisure);\r\n    }\r\n    \r\n    Firme a;\r\n    address private indirizzoFirme;\r\n    \r\n    function setIndirizzoFirme (address _indirizzo) public {\r\n        require(_indirizzo != address(0), \"L'indirizzo passato non ? valido\");\r\n        indirizzoFirme = _indirizzo;\r\n        a = Firme(indirizzoFirme);\r\n    }\r\n    \r\n    modifier onlyDirettoreLavori {\r\n        // solo il Direttore dei Lavori pu? utilizzare questa funzione\r\n        require(\r\n            m.enableDL(msg.sender), \"Solo il Direttore dei Lavori pu? utilizzare questa funzione\"\r\n        );\r\n        _; //indica dove deve essere posta la funzione chiamata\r\n    } \r\n    \r\n    function killRiserve() public {\r\n        selfdestruct(msg.sender);\r\n    }\r\n}\r\n",
  "sourcePath": "/Users/roby/Desktop/ServerIds/truffle/contracts/Riserve.sol",
  "compiler": {
    "name": "solc",
    "version": "0.5.0+commit.1d4f565a.Emscripten.clang"
  },
  "schemaVersion": "3.0.8",
  "updatedAt": "2019-09-06T09:37:50.345Z",
  "devdoc": {
    "methods": {}
  },
  "userdoc": {
    "methods": {}
  }
}